{
  "contractName": "Sch",
  "abi": [
    {
      "inputs": [],
      "payable": false,
      "stateMutability": "nonpayable",
      "type": "constructor"
    },
    {
      "constant": true,
      "inputs": [
        {
          "internalType": "address",
          "name": "",
          "type": "address"
        }
      ],
      "name": "getHousesByOwnerCount",
      "outputs": [
        {
          "internalType": "uint256",
          "name": "",
          "type": "uint256"
        }
      ],
      "payable": false,
      "stateMutability": "view",
      "type": "function"
    },
    {
      "constant": true,
      "inputs": [
        {
          "internalType": "uint256",
          "name": "",
          "type": "uint256"
        }
      ],
      "name": "getHousesByPincodeCount",
      "outputs": [
        {
          "internalType": "uint256",
          "name": "",
          "type": "uint256"
        }
      ],
      "payable": false,
      "stateMutability": "view",
      "type": "function"
    },
    {
      "constant": true,
      "inputs": [
        {
          "internalType": "uint256",
          "name": "",
          "type": "uint256"
        },
        {
          "internalType": "uint256",
          "name": "",
          "type": "uint256"
        }
      ],
      "name": "history",
      "outputs": [
        {
          "internalType": "uint256",
          "name": "historyId",
          "type": "uint256"
        },
        {
          "internalType": "uint256",
          "name": "houseId",
          "type": "uint256"
        },
        {
          "internalType": "address",
          "name": "owner",
          "type": "address"
        },
        {
          "internalType": "string",
          "name": "title",
          "type": "string"
        },
        {
          "internalType": "string",
          "name": "desc",
          "type": "string"
        },
        {
          "internalType": "string",
          "name": "contractorName",
          "type": "string"
        },
        {
          "internalType": "uint256",
          "name": "historyDate",
          "type": "uint256"
        },
        {
          "internalType": "string",
          "name": "beforeImageHash",
          "type": "string"
        },
        {
          "internalType": "string",
          "name": "afterImageHash",
          "type": "string"
        }
      ],
      "payable": false,
      "stateMutability": "view",
      "type": "function"
    },
    {
      "constant": true,
      "inputs": [],
      "name": "historyCount",
      "outputs": [
        {
          "internalType": "uint256",
          "name": "",
          "type": "uint256"
        }
      ],
      "payable": false,
      "stateMutability": "view",
      "type": "function"
    },
    {
      "constant": true,
      "inputs": [
        {
          "internalType": "uint256",
          "name": "",
          "type": "uint256"
        }
      ],
      "name": "house",
      "outputs": [
        {
          "internalType": "uint256",
          "name": "houseId",
          "type": "uint256"
        },
        {
          "internalType": "string",
          "name": "name",
          "type": "string"
        },
        {
          "internalType": "address",
          "name": "currentOwner",
          "type": "address"
        },
        {
          "internalType": "uint256",
          "name": "pinCode",
          "type": "uint256"
        },
        {
          "internalType": "string",
          "name": "houseAddress",
          "type": "string"
        },
        {
          "internalType": "uint256",
          "name": "houseDate",
          "type": "uint256"
        },
        {
          "internalType": "enum Sch.HouseStatus",
          "name": "houseStatus",
          "type": "uint8"
        },
        {
          "internalType": "uint256",
          "name": "totalHistoryCount",
          "type": "uint256"
        },
        {
          "internalType": "address",
          "name": "RequestedUser",
          "type": "address"
        }
      ],
      "payable": false,
      "stateMutability": "view",
      "type": "function"
    },
    {
      "constant": true,
      "inputs": [],
      "name": "houseCount",
      "outputs": [
        {
          "internalType": "uint256",
          "name": "",
          "type": "uint256"
        }
      ],
      "payable": false,
      "stateMutability": "view",
      "type": "function"
    },
    {
      "constant": false,
      "inputs": [
        {
          "internalType": "string",
          "name": "nm",
          "type": "string"
        },
        {
          "internalType": "uint256",
          "name": "pc",
          "type": "uint256"
        },
        {
          "internalType": "string",
          "name": "ha",
          "type": "string"
        },
        {
          "internalType": "uint256",
          "name": "hd",
          "type": "uint256"
        },
        {
          "internalType": "string",
          "name": "_imageHash",
          "type": "string"
        }
      ],
      "name": "addHouse",
      "outputs": [],
      "payable": false,
      "stateMutability": "nonpayable",
      "type": "function"
    },
    {
      "constant": true,
      "inputs": [
        {
          "internalType": "address",
          "name": "_owner",
          "type": "address"
        }
      ],
      "name": "getHousesByOwner",
      "outputs": [
        {
          "components": [
            {
              "internalType": "uint256",
              "name": "houseId",
              "type": "uint256"
            },
            {
              "internalType": "string",
              "name": "name",
              "type": "string"
            },
            {
              "internalType": "address",
              "name": "currentOwner",
              "type": "address"
            },
            {
              "internalType": "uint256",
              "name": "pinCode",
              "type": "uint256"
            },
            {
              "internalType": "string",
              "name": "houseAddress",
              "type": "string"
            },
            {
              "internalType": "uint256",
              "name": "houseDate",
              "type": "uint256"
            },
            {
              "internalType": "enum Sch.HouseStatus",
              "name": "houseStatus",
              "type": "uint8"
            },
            {
              "internalType": "uint256",
              "name": "totalHistoryCount",
              "type": "uint256"
            },
            {
              "internalType": "address",
              "name": "RequestedUser",
              "type": "address"
            }
          ],
          "internalType": "struct Sch.House[]",
          "name": "",
          "type": "tuple[]"
        },
        {
          "internalType": "uint256",
          "name": "",
          "type": "uint256"
        }
      ],
      "payable": false,
      "stateMutability": "view",
      "type": "function"
    },
    {
      "constant": true,
      "inputs": [
        {
          "internalType": "uint256",
          "name": "_pinCode",
          "type": "uint256"
        }
      ],
      "name": "getHousesByPincode",
      "outputs": [
        {
          "components": [
            {
              "internalType": "uint256",
              "name": "houseId",
              "type": "uint256"
            },
            {
              "internalType": "string",
              "name": "name",
              "type": "string"
            },
            {
              "internalType": "address",
              "name": "currentOwner",
              "type": "address"
            },
            {
              "internalType": "uint256",
              "name": "pinCode",
              "type": "uint256"
            },
            {
              "internalType": "string",
              "name": "houseAddress",
              "type": "string"
            },
            {
              "internalType": "uint256",
              "name": "houseDate",
              "type": "uint256"
            },
            {
              "internalType": "enum Sch.HouseStatus",
              "name": "houseStatus",
              "type": "uint8"
            },
            {
              "internalType": "uint256",
              "name": "totalHistoryCount",
              "type": "uint256"
            },
            {
              "internalType": "address",
              "name": "RequestedUser",
              "type": "address"
            }
          ],
          "internalType": "struct Sch.House[]",
          "name": "",
          "type": "tuple[]"
        },
        {
          "internalType": "uint256",
          "name": "",
          "type": "uint256"
        }
      ],
      "payable": false,
      "stateMutability": "view",
      "type": "function"
    },
    {
      "constant": false,
      "inputs": [
        {
          "internalType": "uint256",
          "name": "_houseId",
          "type": "uint256"
        },
        {
          "internalType": "string",
          "name": "title",
          "type": "string"
        },
        {
          "internalType": "string",
          "name": "desc",
          "type": "string"
        },
        {
          "internalType": "string",
          "name": "cn",
          "type": "string"
        },
        {
          "internalType": "uint256",
          "name": "hd",
          "type": "uint256"
        },
        {
          "internalType": "string",
          "name": "_befImgHash",
          "type": "string"
        },
        {
          "internalType": "string",
          "name": "_aftImgHash",
          "type": "string"
        }
      ],
      "name": "addHouseHistory",
      "outputs": [],
      "payable": false,
      "stateMutability": "nonpayable",
      "type": "function"
    },
    {
      "constant": false,
      "inputs": [
        {
          "internalType": "uint256",
          "name": "_houseId",
          "type": "uint256"
        },
        {
          "internalType": "string",
          "name": "title",
          "type": "string"
        },
        {
          "internalType": "string",
          "name": "desc",
          "type": "string"
        },
        {
          "internalType": "string",
          "name": "cn",
          "type": "string"
        },
        {
          "internalType": "uint256",
          "name": "hd",
          "type": "uint256"
        },
        {
          "internalType": "address",
          "name": "newOwner",
          "type": "address"
        }
      ],
      "name": "addHouseHistoryThroughAccept",
      "outputs": [],
      "payable": false,
      "stateMutability": "nonpayable",
      "type": "function"
    },
    {
      "constant": true,
      "inputs": [
        {
          "internalType": "uint256",
          "name": "_houseId",
          "type": "uint256"
        }
      ],
      "name": "getHouseHistory",
      "outputs": [
        {
          "components": [
            {
              "internalType": "uint256",
              "name": "historyId",
              "type": "uint256"
            },
            {
              "internalType": "uint256",
              "name": "houseId",
              "type": "uint256"
            },
            {
              "internalType": "address",
              "name": "owner",
              "type": "address"
            },
            {
              "internalType": "string",
              "name": "title",
              "type": "string"
            },
            {
              "internalType": "string",
              "name": "desc",
              "type": "string"
            },
            {
              "internalType": "string",
              "name": "contractorName",
              "type": "string"
            },
            {
              "internalType": "uint256",
              "name": "historyDate",
              "type": "uint256"
            },
            {
              "internalType": "string",
              "name": "beforeImageHash",
              "type": "string"
            },
            {
              "internalType": "string",
              "name": "afterImageHash",
              "type": "string"
            }
          ],
          "internalType": "struct Sch.History[]",
          "name": "",
          "type": "tuple[]"
        },
        {
          "internalType": "uint256",
          "name": "",
          "type": "uint256"
        }
      ],
      "payable": false,
      "stateMutability": "view",
      "type": "function"
    },
    {
      "constant": false,
      "inputs": [
        {
          "internalType": "uint256",
          "name": "_houseId",
          "type": "uint256"
        }
      ],
      "name": "requestHouse",
      "outputs": [],
      "payable": false,
      "stateMutability": "nonpayable",
      "type": "function"
    },
    {
      "constant": false,
      "inputs": [
        {
          "internalType": "uint256",
          "name": "_houseId",
          "type": "uint256"
        },
        {
          "internalType": "address",
          "name": "_newOwner",
          "type": "address"
        },
        {
          "internalType": "uint256",
          "name": "hd",
          "type": "uint256"
        }
      ],
      "name": "agreeHouse",
      "outputs": [],
      "payable": false,
      "stateMutability": "nonpayable",
      "type": "function"
    },
    {
      "constant": false,
      "inputs": [
        {
          "internalType": "uint256",
          "name": "_houseId",
          "type": "uint256"
        }
      ],
      "name": "disAgreeHouse",
      "outputs": [],
      "payable": false,
      "stateMutability": "nonpayable",
      "type": "function"
    }
  ],
  "bytecode": "0x608060405234801561001057600080fd5b50600060018190555060008081905550612ea38061002f6000396000f3fe608060405234801561001057600080fd5b50600436106100f55760003560e01c8063801f89a711610097578063b3f603d111610066578063b3f603d1146102a6578063bd74f8b1146102d7578063dbea574d146102f5578063e856683814610311576100f5565b8063801f89a7146102225780639a20bd811461023e578063a53be7291461025a578063b278a1e81461028a576100f5565b80633a9c9ffc116100d35780633a9c9ffc1461017f5780635e5505d71461019d57806371d9e19e146101b957806375e6c709146101f1576100f5565b806326fbf7e0146100fa57806328718e4c1461012b57806330c8db5d14610163575b600080fd5b610114600480360361010f91908101906123ab565b610341565b604051610122929190612a37565b60405180910390f35b610145600480360361014091908101906123ab565b6107bd565b60405161015a99989796959493929190612ad2565b60405180910390f35b61017d600480360361017891908101906122ec565b610995565b005b610187610d9e565b6040516101949190612ab7565b60405180910390f35b6101b760048036036101b291908101906124f4565b610da4565b005b6101d360048036036101ce919081019061260a565b610f78565b6040516101e899989796959493929190612b6d565b60405180910390f35b61020b600480360361020691908101906122c3565b6112f8565b604051610219929190612a67565b60405180910390f35b61023c60048036036102379190810190612423565b6116bf565b005b610258600480360361025391908101906123d4565b6118cd565b005b610274600480360361026f91908101906123ab565b611b50565b6040516102819190612ab7565b60405180910390f35b6102a4600480360361029f91908101906123ab565b611b68565b005b6102c060048036036102bb91908101906123ab565b611bf4565b6040516102ce929190612a67565b60405180910390f35b6102df611f8d565b6040516102ec9190612ab7565b60405180910390f35b61030f600480360361030a91908101906123ab565b611f93565b005b61032b600480360361032691908101906122c3565b612020565b6040516103389190612ab7565b60405180910390f35b60606000806002848154811061035357fe5b906000526020600020906009020190506000816007015490506060816040519080825280602002602001820160405280156103a857816020015b610395612038565b81526020019060019003908161038d5790505b50905060008090505b828110156107ae57600387603281106103c657fe5b0181815481106103d257fe5b90600052602060002090600902016040518061012001604052908160008201548152602001600182015481526020016002820160009054906101000a900473ffffffffffffffffffffffffffffffffffffffff1673ffffffffffffffffffffffffffffffffffffffff1673ffffffffffffffffffffffffffffffffffffffff168152602001600382018054600181600116156101000203166002900480601f0160208091040260200160405190810160405280929190818152602001828054600181600116156101000203166002900480156104ef5780601f106104c4576101008083540402835291602001916104ef565b820191906000526020600020905b8154815290600101906020018083116104d257829003601f168201915b50505050508152602001600482018054600181600116156101000203166002900480601f0160208091040260200160405190810160405280929190818152602001828054600181600116156101000203166002900480156105915780601f1061056657610100808354040283529160200191610591565b820191906000526020600020905b81548152906001019060200180831161057457829003601f168201915b50505050508152602001600582018054600181600116156101000203166002900480601f0160208091040260200160405190810160405280929190818152602001828054600181600116156101000203166002900480156106335780601f1061060857610100808354040283529160200191610633565b820191906000526020600020905b81548152906001019060200180831161061657829003601f168201915b5050505050815260200160068201548152602001600782018054600181600116156101000203166002900480601f0160208091040260200160405190810160405280929190818152602001828054600181600116156101000203166002900480156106df5780601f106106b4576101008083540402835291602001916106df565b820191906000526020600020905b8154815290600101906020018083116106c257829003601f168201915b50505050508152602001600882018054600181600116156101000203166002900480601f0160208091040260200160405190810160405280929190818152602001828054600181600116156101000203166002900480156107815780601f1061075657610100808354040283529160200191610781565b820191906000526020600020905b81548152906001019060200180831161076457829003601f168201915b50505050508152505082828151811061079657fe5b602002602001018190525080806001019150506103b1565b50808294509450505050915091565b600281815481106107ca57fe5b9060005260206000209060090201600091509050806000015490806001018054600181600116156101000203166002900480601f01602080910402602001604051908101604052809291908181526020018280546001816001161561010002031660029004801561087c5780601f106108515761010080835404028352916020019161087c565b820191906000526020600020905b81548152906001019060200180831161085f57829003601f168201915b5050505050908060020160009054906101000a900473ffffffffffffffffffffffffffffffffffffffff1690806003015490806004018054600181600116156101000203166002900480601f0160208091040260200160405190810160405280929190818152602001828054600181600116156101000203166002900480156109465780601f1061091b57610100808354040283529160200191610946565b820191906000526020600020905b81548152906001019060200180831161092957829003601f168201915b5050505050908060050154908060060160009054906101000a900460ff16908060070154908060080160009054906101000a900473ffffffffffffffffffffffffffffffffffffffff16905089565b600260405180610120016040528060005481526020018781526020013373ffffffffffffffffffffffffffffffffffffffff168152602001868152602001858152602001848152602001600060018111156109ec57fe5b815260200160008152602001600073ffffffffffffffffffffffffffffffffffffffff1681525090806001815401808255809150509060018203906000526020600020906009020160009091929091909150600082015181600001556020820151816001019080519060200190610a6492919061209a565b5060408201518160020160006101000a81548173ffffffffffffffffffffffffffffffffffffffff021916908373ffffffffffffffffffffffffffffffffffffffff160217905550606082015181600301556080820151816004019080519060200190610ad292919061209a565b5060a0820151816005015560c08201518160060160006101000a81548160ff02191690836001811115610b0157fe5b021790555060e082015181600701556101008201518160080160006101000a81548173ffffffffffffffffffffffffffffffffffffffff021916908373ffffffffffffffffffffffffffffffffffffffff160217905550505050610bee6000546040518060400160405280600c81526020017f4465706c6f792d486f7573650000000000000000000000000000000000000000815250604051806060016040528060278152602001612e3a602791396040518060400160405280601681526020017f6e6f20636f6e74726163746f7220617661696c616c6500000000000000000000815250868687610da4565b60008081548092919060010191905055506000603560003373ffffffffffffffffffffffffffffffffffffffff1673ffffffffffffffffffffffffffffffffffffffff168152602001908152602001600020541415610c91576001603560003373ffffffffffffffffffffffffffffffffffffffff1673ffffffffffffffffffffffffffffffffffffffff16815260200190815260200160002081905550610d23565b6000603560003373ffffffffffffffffffffffffffffffffffffffff1673ffffffffffffffffffffffffffffffffffffffff168152602001908152602001600020549050808060010191505080603560003373ffffffffffffffffffffffffffffffffffffffff1673ffffffffffffffffffffffffffffffffffffffff16815260200190815260200160002081905550505b600060366000868152602001908152602001600020541415610d5d5760016036600086815260200190815260200160002081905550610d97565b6000603660008681526020019081526020016000205490508080600101915050806036600087815260200190815260200160002081905550505b5050505050565b60015481565b60038760328110610db157fe5b0160405180610120016040528060015481526020018981526020013373ffffffffffffffffffffffffffffffffffffffff1681526020018881526020018781526020018681526020018581526020018481526020018381525090806001815401808255809150509060018203906000526020600020906009020160009091929091909150600082015181600001556020820151816001015560408201518160020160006101000a81548173ffffffffffffffffffffffffffffffffffffffff021916908373ffffffffffffffffffffffffffffffffffffffff1602179055506060820151816003019080519060200190610eac92919061209a565b506080820151816004019080519060200190610ec992919061209a565b5060a0820151816005019080519060200190610ee692919061209a565b5060c0820151816006015560e0820151816007019080519060200190610f0d92919061209a565b50610100820151816008019080519060200190610f2b92919061209a565b5050505060028781548110610f3c57fe5b90600052602060002090600902016007016000815480929190600101919050555060016000815480929190600101919050555050505050505050565b60038260328110610f8557fe5b018181548110610f9157fe5b9060005260206000209060090201600091509150508060000154908060010154908060020160009054906101000a900473ffffffffffffffffffffffffffffffffffffffff1690806003018054600181600116156101000203166002900480601f0160208091040260200160405190810160405280929190818152602001828054600181600116156101000203166002900480156110705780601f1061104557610100808354040283529160200191611070565b820191906000526020600020905b81548152906001019060200180831161105357829003601f168201915b505050505090806004018054600181600116156101000203166002900480601f01602080910402602001604051908101604052809291908181526020018280546001816001161561010002031660029004801561110e5780601f106110e35761010080835404028352916020019161110e565b820191906000526020600020905b8154815290600101906020018083116110f157829003601f168201915b505050505090806005018054600181600116156101000203166002900480601f0160208091040260200160405190810160405280929190818152602001828054600181600116156101000203166002900480156111ac5780601f10611181576101008083540402835291602001916111ac565b820191906000526020600020905b81548152906001019060200180831161118f57829003601f168201915b505050505090806006015490806007018054600181600116156101000203166002900480601f0160208091040260200160405190810160405280929190818152602001828054600181600116156101000203166002900480156112505780601f1061122557610100808354040283529160200191611250565b820191906000526020600020905b81548152906001019060200180831161123357829003601f168201915b505050505090806008018054600181600116156101000203166002900480601f0160208091040260200160405190810160405280929190818152602001828054600181600116156101000203166002900480156112ee5780601f106112c3576101008083540402835291602001916112ee565b820191906000526020600020905b8154815290600101906020018083116112d157829003601f168201915b5050505050905089565b6060600080603560008573ffffffffffffffffffffffffffffffffffffffff1673ffffffffffffffffffffffffffffffffffffffff16815260200190815260200160002054905060608160405190808252806020026020018201604052801561137b57816020015b61136861211a565b8152602001906001900390816113605790505b509050600080905060008090505b6000548110156116b0576000600282815481106113a257fe5b906000526020600020906009020190508773ffffffffffffffffffffffffffffffffffffffff168160020160009054906101000a900473ffffffffffffffffffffffffffffffffffffffff1673ffffffffffffffffffffffffffffffffffffffff1614156116a25761141261219d565b6002838154811061141f57fe5b90600052602060002090600902016040518061012001604052908160008201548152602001600182018054600181600116156101000203166002900480601f0160208091040260200160405190810160405280929190818152602001828054600181600116156101000203166002900480156114dc5780601f106114b1576101008083540402835291602001916114dc565b820191906000526020600020905b8154815290600101906020018083116114bf57829003601f168201915b505050505081526020016002820160009054906101000a900473ffffffffffffffffffffffffffffffffffffffff1673ffffffffffffffffffffffffffffffffffffffff1673ffffffffffffffffffffffffffffffffffffffff16815260200160038201548152602001600482018054600181600116156101000203166002900480601f0160208091040260200160405190810160405280929190818152602001828054600181600116156101000203166002900480156115de5780601f106115b3576101008083540402835291602001916115de565b820191906000526020600020905b8154815290600101906020018083116115c157829003601f168201915b50505050508152602001600582015481526020016006820160009054906101000a900460ff16600181111561160f57fe5b600181111561161a57fe5b8152602001600782015481526020016008820160009054906101000a900473ffffffffffffffffffffffffffffffffffffffff1673ffffffffffffffffffffffffffffffffffffffff1673ffffffffffffffffffffffffffffffffffffffff168152505090508085858151811061168d57fe5b60200260200101819052508380600101945050505b508080600101915050611389565b50818194509450505050915091565b60606040518060400160405280600d81526020017f6e6f7420617661696c61626c650000000000000000000000000000000000000081525090506003876032811061170657fe5b0160405180610120016040528060015481526020018981526020018473ffffffffffffffffffffffffffffffffffffffff1681526020018881526020018781526020018681526020018581526020018381526020018381525090806001815401808255809150509060018203906000526020600020906009020160009091929091909150600082015181600001556020820151816001015560408201518160020160006101000a81548173ffffffffffffffffffffffffffffffffffffffff021916908373ffffffffffffffffffffffffffffffffffffffff160217905550606082015181600301908051906020019061180192919061209a565b50608082015181600401908051906020019061181e92919061209a565b5060a082015181600501908051906020019061183b92919061209a565b5060c0820151816006015560e082015181600701908051906020019061186292919061209a565b5061010082015181600801908051906020019061188092919061209a565b505050506002878154811061189157fe5b90600052602060002090600902016007016000815480929190600101919050555060016000815480929190600101919050555050505050505050565b6000600284815481106118dc57fe5b9060005260206000209060090201905060008160060160006101000a81548160ff0219169083600181111561190d57fe5b021790555060008160080160006101000a81548173ffffffffffffffffffffffffffffffffffffffff021916908373ffffffffffffffffffffffffffffffffffffffff1602179055506000603560003373ffffffffffffffffffffffffffffffffffffffff1673ffffffffffffffffffffffffffffffffffffffff16815260200190815260200160002054905060018103905080603560003373ffffffffffffffffffffffffffffffffffffffff1673ffffffffffffffffffffffffffffffffffffffff16815260200190815260200160002081905550603560008573ffffffffffffffffffffffffffffffffffffffff1673ffffffffffffffffffffffffffffffffffffffff16815260200190815260200160002054905060018101905080603560008673ffffffffffffffffffffffffffffffffffffffff1673ffffffffffffffffffffffffffffffffffffffff16815260200190815260200160002081905550838260020160006101000a81548173ffffffffffffffffffffffffffffffffffffffff021916908373ffffffffffffffffffffffffffffffffffffffff1602179055506060604051806060016040528060358152602001612e05603591399050611b48866040518060400160405280601281526020017f4f776e657273686970205472616e736665720000000000000000000000000000815250836040518060400160405280601681526020017f6e6f20636f6e74726163746f7220617661696c616c6500000000000000000000815250888a6116bf565b505050505050565b60366020528060005260406000206000915090505481565b600060028281548110611b7757fe5b9060005260206000209060090201905060018160060160006101000a81548160ff02191690836001811115611ba857fe5b0217905550338160080160006101000a81548173ffffffffffffffffffffffffffffffffffffffff021916908373ffffffffffffffffffffffffffffffffffffffff1602179055505050565b6060600080603660008581526020019081526020016000205490506000811415611c53576040517f08c379a0000000000000000000000000000000000000000000000000000000008152600401611c4a90612a97565b60405180910390fd5b606081604051908082528060200260200182016040528015611c8f57816020015b611c7c61211a565b815260200190600190039081611c745790505b509050600080905060008090505b600054811015611f7e57600060028281548110611cb657fe5b9060005260206000209060090201905060008160030154905088811415611f6f57611cdf61219d565b60028481548110611cec57fe5b90600052602060002090600902016040518061012001604052908160008201548152602001600182018054600181600116156101000203166002900480601f016020809104026020016040519081016040528092919081815260200182805460018160011615610100020316600290048015611da95780601f10611d7e57610100808354040283529160200191611da9565b820191906000526020600020905b815481529060010190602001808311611d8c57829003601f168201915b505050505081526020016002820160009054906101000a900473ffffffffffffffffffffffffffffffffffffffff1673ffffffffffffffffffffffffffffffffffffffff1673ffffffffffffffffffffffffffffffffffffffff16815260200160038201548152602001600482018054600181600116156101000203166002900480601f016020809104026020016040519081016040528092919081815260200182805460018160011615610100020316600290048015611eab5780601f10611e8057610100808354040283529160200191611eab565b820191906000526020600020905b815481529060010190602001808311611e8e57829003601f168201915b50505050508152602001600582015481526020016006820160009054906101000a900460ff166001811115611edc57fe5b6001811115611ee757fe5b8152602001600782015481526020016008820160009054906101000a900473ffffffffffffffffffffffffffffffffffffffff1673ffffffffffffffffffffffffffffffffffffffff1673ffffffffffffffffffffffffffffffffffffffff1681525050905080868681518110611f5a57fe5b60200260200101819052508480600101955050505b50508080600101915050611c9d565b50818194509450505050915091565b60005481565b600060028281548110611fa257fe5b9060005260206000209060090201905060008160060160006101000a81548160ff02191690836001811115611fd357fe5b021790555060008160080160006101000a81548173ffffffffffffffffffffffffffffffffffffffff021916908373ffffffffffffffffffffffffffffffffffffffff1602179055505050565b60356020528060005260406000206000915090505481565b6040518061012001604052806000815260200160008152602001600073ffffffffffffffffffffffffffffffffffffffff1681526020016060815260200160608152602001606081526020016000815260200160608152602001606081525090565b828054600181600116156101000203166002900490600052602060002090601f016020900481019282601f106120db57805160ff1916838001178555612109565b82800160010185558215612109579182015b828111156121085782518255916020019190600101906120ed565b5b5090506121169190612220565b5090565b6040518061012001604052806000815260200160608152602001600073ffffffffffffffffffffffffffffffffffffffff1681526020016000815260200160608152602001600081526020016000600181111561217357fe5b815260200160008152602001600073ffffffffffffffffffffffffffffffffffffffff1681525090565b6040518061012001604052806000815260200160608152602001600073ffffffffffffffffffffffffffffffffffffffff168152602001600081526020016060815260200160008152602001600060018111156121f657fe5b815260200160008152602001600073ffffffffffffffffffffffffffffffffffffffff1681525090565b61224291905b8082111561223e576000816000905550600101612226565b5090565b90565b60008135905061225481612dd6565b92915050565b600082601f83011261226b57600080fd5b813561227e61227982612c4a565b612c1d565b9150808252602083016020830185838301111561229a57600080fd5b6122a5838284612d76565b50505092915050565b6000813590506122bd81612ded565b92915050565b6000602082840312156122d557600080fd5b60006122e384828501612245565b91505092915050565b600080600080600060a0868803121561230457600080fd5b600086013567ffffffffffffffff81111561231e57600080fd5b61232a8882890161225a565b955050602061233b888289016122ae565b945050604086013567ffffffffffffffff81111561235857600080fd5b6123648882890161225a565b9350506060612375888289016122ae565b925050608086013567ffffffffffffffff81111561239257600080fd5b61239e8882890161225a565b9150509295509295909350565b6000602082840312156123bd57600080fd5b60006123cb848285016122ae565b91505092915050565b6000806000606084860312156123e957600080fd5b60006123f7868287016122ae565b935050602061240886828701612245565b9250506040612419868287016122ae565b9150509250925092565b60008060008060008060c0878903121561243c57600080fd5b600061244a89828a016122ae565b965050602087013567ffffffffffffffff81111561246757600080fd5b61247389828a0161225a565b955050604087013567ffffffffffffffff81111561249057600080fd5b61249c89828a0161225a565b945050606087013567ffffffffffffffff8111156124b957600080fd5b6124c589828a0161225a565b93505060806124d689828a016122ae565b92505060a06124e789828a01612245565b9150509295509295509295565b600080600080600080600060e0888a03121561250f57600080fd5b600061251d8a828b016122ae565b975050602088013567ffffffffffffffff81111561253a57600080fd5b6125468a828b0161225a565b965050604088013567ffffffffffffffff81111561256357600080fd5b61256f8a828b0161225a565b955050606088013567ffffffffffffffff81111561258c57600080fd5b6125988a828b0161225a565b94505060806125a98a828b016122ae565b93505060a088013567ffffffffffffffff8111156125c657600080fd5b6125d28a828b0161225a565b92505060c088013567ffffffffffffffff8111156125ef57600080fd5b6125fb8a828b0161225a565b91505092959891949750929550565b6000806040838503121561261d57600080fd5b600061262b858286016122ae565b925050602061263c858286016122ae565b9150509250929050565b6000612652838361286c565b905092915050565b6000612666838361294d565b905092915050565b61267781612d15565b82525050565b61268681612d15565b82525050565b600061269782612c96565b6126a18185612cd1565b9350836020820285016126b385612c76565b8060005b858110156126ef57848403895281516126d08582612646565b94506126db83612cb7565b925060208a019950506001810190506126b7565b50829750879550505050505092915050565b600061270c82612ca1565b6127168185612ce2565b93508360208202850161272885612c86565b8060005b858110156127645784840389528151612745858261265a565b945061275083612cc4565b925060208a0199505060018101905061272c565b50829750879550505050505092915050565b61277f81612d64565b82525050565b61278e81612d64565b82525050565b600061279f82612cac565b6127a98185612cf3565b93506127b9818560208601612d85565b6127c281612db8565b840191505092915050565b60006127d882612cac565b6127e28185612d04565b93506127f2818560208601612d85565b6127fb81612db8565b840191505092915050565b6000612813602483612d04565b91507f4e6f20686f7573657320617661696c616c6520666f7220676976656e2070696e60008301527f636f6465000000000000000000000000000000000000000000000000000000006020830152604082019050919050565b6000610120830160008301516128856000860182612a19565b5060208301516128986020860182612a19565b5060408301516128ab604086018261266e565b50606083015184820360608601526128c38282612794565b915050608083015184820360808601526128dd8282612794565b91505060a083015184820360a08601526128f78282612794565b91505060c083015161290c60c0860182612a19565b5060e083015184820360e08601526129248282612794565b9150506101008301518482036101008601526129408282612794565b9150508091505092915050565b6000610120830160008301516129666000860182612a19565b506020830151848203602086015261297e8282612794565b9150506040830151612993604086018261266e565b5060608301516129a66060860182612a19565b50608083015184820360808601526129be8282612794565b91505060a08301516129d360a0860182612a19565b5060c08301516129e660c0860182612776565b5060e08301516129f960e0860182612a19565b50610100830151612a0e61010086018261266e565b508091505092915050565b612a2281612d5a565b82525050565b612a3181612d5a565b82525050565b60006040820190508181036000830152612a51818561268c565b9050612a606020830184612a28565b9392505050565b60006040820190508181036000830152612a818185612701565b9050612a906020830184612a28565b9392505050565b60006020820190508181036000830152612ab081612806565b9050919050565b6000602082019050612acc6000830184612a28565b92915050565b600061012082019050612ae8600083018c612a28565b8181036020830152612afa818b6127cd565b9050612b09604083018a61267d565b612b166060830189612a28565b8181036080830152612b2881886127cd565b9050612b3760a0830187612a28565b612b4460c0830186612785565b612b5160e0830185612a28565b612b5f61010083018461267d565b9a9950505050505050505050565b600061012082019050612b83600083018c612a28565b612b90602083018b612a28565b612b9d604083018a61267d565b8181036060830152612baf81896127cd565b90508181036080830152612bc381886127cd565b905081810360a0830152612bd781876127cd565b9050612be660c0830186612a28565b81810360e0830152612bf881856127cd565b9050818103610100830152612c0d81846127cd565b90509a9950505050505050505050565b6000604051905081810181811067ffffffffffffffff82111715612c4057600080fd5b8060405250919050565b600067ffffffffffffffff821115612c6157600080fd5b601f19601f8301169050602081019050919050565b6000819050602082019050919050565b6000819050602082019050919050565b600081519050919050565b600081519050919050565b600081519050919050565b6000602082019050919050565b6000602082019050919050565b600082825260208201905092915050565b600082825260208201905092915050565b600082825260208201905092915050565b600082825260208201905092915050565b6000612d2082612d3a565b9050919050565b6000819050612d3582612dc9565b919050565b600073ffffffffffffffffffffffffffffffffffffffff82169050919050565b6000819050919050565b6000612d6f82612d27565b9050919050565b82818337600083830152505050565b60005b83811015612da3578082015181840152602081019050612d88565b83811115612db2576000848401525b50505050565b6000601f19601f8301169050919050565b60028110612dd357fe5b50565b612ddf81612d15565b8114612dea57600080fd5b50565b612df681612d5a565b8114612e0157600080fd5b5056fe7472616e736665722074616b657320706c6163652066726f6d2070726576696f7573206f776e657220746f206e6577206f776e65725468697320686f75736520776173206465706c6f796564206f6e20676976656e20646174652021a365627a7a72315820d797ef41967ed137a7dc12b637fe4fb9108b0b9e623514f9269ff744d7cfe2016c6578706572696d656e74616cf564736f6c63430005100040",
  "source": "// SPDX-License-Identifier: MIT\r\npragma solidity >=0.4.22 <0.8.0;\r\npragma experimental ABIEncoderV2;\r\n\r\ncontract Sch {\r\n \r\n uint public houseCount;\r\n uint public historyCount;\r\n\r\n\r\n \r\nstruct History{\r\n    uint historyId;\r\n    uint houseId;\r\n    address owner;\r\n    string title;\r\n    string desc;\r\n    string contractorName;\r\n    uint256 historyDate;\r\n    string beforeImageHash;\r\n    string afterImageHash;\r\n\r\n\r\n\r\n}\r\n\r\nenum HouseStatus{\r\n    Available,\r\n    Requested\r\n    \r\n}\r\n\r\nHouseStatus constant defaultChoice=HouseStatus.Available;\r\n\r\n\r\n\r\nstruct House{\r\n     uint houseId;\r\n     string name;\r\n     address currentOwner;\r\n     uint256 pinCode;\r\n     string houseAddress;\r\n     uint256 houseDate;\r\n     HouseStatus houseStatus;\r\n     uint  totalHistoryCount;\r\n     address RequestedUser;\r\n     \r\n    \r\n\r\n }\r\n\r\nHouse [] public house;\r\nHistory [][50] public history;\r\n\r\n\r\nmapping(address=>uint) public getHousesByOwnerCount;\r\nmapping(uint256=>uint) public getHousesByPincodeCount;\r\n\r\n\r\nconstructor() public{\r\n    \r\n    historyCount=0;\r\n    houseCount=0;\r\n    \r\n    \r\n   \r\n\r\n}\r\n\r\n\r\n\r\nfunction addHouse(string memory nm,uint256 pc,string memory ha,uint256 hd,string memory _imageHash) public{\r\n   \r\n    house.push(House(houseCount,nm,msg.sender,pc,ha,hd,HouseStatus.Available,0,address(0x0)));\r\n    \r\n    \r\n    addHouseHistory(houseCount,\"Deploy-House\",\"This house was deployed on given date !\",\"no contractor availale\",hd,_imageHash,_imageHash);\r\n    houseCount++;\r\n    \r\n    if(getHousesByOwnerCount[msg.sender]==0){\r\n        \r\n        getHousesByOwnerCount[msg.sender]=1;\r\n    }\r\n    else{\r\n        uint a=getHousesByOwnerCount[msg.sender];\r\n        a++;\r\n        getHousesByOwnerCount[msg.sender]=a;\r\n        \r\n    }\r\n    \r\n      \r\n    if(getHousesByPincodeCount[pc]==0){\r\n        \r\n        getHousesByPincodeCount[pc]=1;\r\n    }\r\n    else{\r\n        \r\n        uint a=getHousesByPincodeCount[pc];\r\n        a++;\r\n        getHousesByPincodeCount[pc]=a;\r\n        \r\n    }\r\n\r\n    \r\n\r\n    \r\n}  \r\n\r\n\r\nfunction getHousesByOwner(address _owner)public view returns(House[] memory ,uint){\r\n     \r\n     uint cnt=getHousesByOwnerCount[address(_owner)];\r\n\r\n    // require(cnt!=0,\"No houses availale for given owner\");\r\n     \r\n     House[] memory retHouse=new House[](cnt);\r\n     uint retHouseCount=0;\r\n     \r\n     for(uint i=0;i<houseCount;i++)\r\n     {\r\n         House storage temHouse=house[i];\r\n         if(address(temHouse.currentOwner)==address(_owner))\r\n         {\r\n             House memory temHouse1=house[i];\r\n             retHouse[retHouseCount]=temHouse1;\r\n             retHouseCount++;\r\n             \r\n         }\r\n     }\r\n     \r\n     return(retHouse,retHouseCount);\r\n     \r\n}\r\n\r\n\r\nfunction getHousesByPincode(uint256 _pinCode)public view returns(House[] memory,uint){\r\n    \r\n    \r\n    uint cnt=getHousesByPincodeCount[_pinCode];\r\n\r\n    require(cnt!=0,\"No houses availale for given pincode\");\r\n\r\n    House[] memory retHouse=new House[](cnt);\r\n    uint retHouseCount=0;\r\n    \r\n     for(uint i=0;i<houseCount;i++)\r\n     {\r\n         House storage temHouse=house[i];\r\n         uint256 pin=temHouse.pinCode;\r\n         if(pin==_pinCode)\r\n         {\r\n             House memory temHouse1=house[i];\r\n             retHouse[retHouseCount]=temHouse1;\r\n             retHouseCount++;\r\n             \r\n         }\r\n     }\r\n    \r\n    \r\n    return(retHouse,retHouseCount);\r\n}\r\n\r\n\r\nfunction addHouseHistory(uint _houseId,string memory title,string memory desc,string memory cn,uint256 hd,string memory _befImgHash,string memory _aftImgHash) public {\r\n  \r\n    \r\n    history[_houseId].push(History(historyCount,_houseId,msg.sender,title,desc,cn,hd,_befImgHash,_aftImgHash));\r\n    house[_houseId].totalHistoryCount++;\r\n    historyCount++;\r\n} \r\n\r\nfunction addHouseHistoryThroughAccept(uint _houseId,string memory title,string memory desc,string memory cn,uint256 hd,address newOwner) public {\r\n  \r\n    string memory t1=\"not available\";\r\n    history[_houseId].push(History(historyCount,_houseId,newOwner,title,desc,cn,hd,t1,t1));\r\n    house[_houseId].totalHistoryCount++;\r\n    historyCount++;\r\n} \r\n\r\nfunction getHouseHistory(uint _houseId)public view returns(History[] memory,uint){\r\n    \r\n    House storage _temHouse=house[_houseId];\r\n    uint  _totalHistoryCount=_temHouse.totalHistoryCount;\r\n    History[] memory _history=new History[](_totalHistoryCount);\r\n    \r\n    for(uint i=0;i<_totalHistoryCount;i++)\r\n    {\r\n        _history[i]=history[_houseId][i];\r\n    }\r\n   \r\n    return(_history,_totalHistoryCount);\r\n    \r\n}\r\n\r\nfunction requestHouse(uint _houseId)public {\r\n\r\n    House storage _temHouse=house[_houseId];\r\n    _temHouse.houseStatus=HouseStatus.Requested;\r\n    _temHouse.RequestedUser=address(msg.sender);\r\n}\r\n\r\nfunction agreeHouse(uint _houseId ,address _newOwner,uint256 hd)public {\r\n\r\n    House storage _temHouse=house[_houseId];\r\n    _temHouse.houseStatus=HouseStatus.Available;\r\n    _temHouse.RequestedUser=address(0x0);\r\n\r\n    uint cnt=getHousesByOwnerCount[address(msg.sender)];\r\n    cnt=cnt-1;\r\n    getHousesByOwnerCount[address(msg.sender)]=cnt;\r\n\r\n    cnt=getHousesByOwnerCount[_newOwner];\r\n    cnt=cnt+1;\r\n    getHousesByOwnerCount[_newOwner]=cnt;\r\n\r\n    _temHouse.currentOwner=_newOwner;\r\n    \r\n    string memory desc=\"transfer takes place from previous owner to new owner\";\r\n    addHouseHistoryThroughAccept(_houseId,\"Ownership Transfer\",desc,\"no contractor availale\",hd,_newOwner);\r\n    \r\n}\r\n\r\n\r\nfunction disAgreeHouse(uint _houseId)public {\r\n\r\n    House storage _temHouse=house[_houseId];\r\n    _temHouse.houseStatus=HouseStatus.Available;\r\n    _temHouse.RequestedUser=address(0x0);\r\n\r\n}\r\n\r\n}\r\n\r\n\r\n\r\n",
  "sourcePath": "E:/react/selfconcioushouse/src/contracts/Sch.sol",
  "compiler": {
    "name": "solc",
    "version": "0.5.16+commit.9c3226ce.Emscripten.clang"
  },
  "schemaVersion": "3.2.3",
  "updatedAt": "2020-10-15T16:34:15.795Z",
  "networkType": "ethereum",
  "devdoc": {
    "methods": {}
  },
  "userdoc": {
    "methods": {}
  }
}