{
  "contractName": "Sch",
  "abi": [
    {
      "inputs": [],
      "payable": false,
      "stateMutability": "nonpayable",
      "type": "constructor"
    },
    {
      "constant": true,
      "inputs": [
        {
          "internalType": "address",
          "name": "",
          "type": "address"
        }
      ],
      "name": "getHousesByOwnerCount",
      "outputs": [
        {
          "internalType": "uint256",
          "name": "",
          "type": "uint256"
        }
      ],
      "payable": false,
      "stateMutability": "view",
      "type": "function"
    },
    {
      "constant": true,
      "inputs": [
        {
          "internalType": "uint256",
          "name": "",
          "type": "uint256"
        }
      ],
      "name": "getHousesByPincodeCount",
      "outputs": [
        {
          "internalType": "uint256",
          "name": "",
          "type": "uint256"
        }
      ],
      "payable": false,
      "stateMutability": "view",
      "type": "function"
    },
    {
      "constant": true,
      "inputs": [
        {
          "internalType": "uint256",
          "name": "",
          "type": "uint256"
        },
        {
          "internalType": "uint256",
          "name": "",
          "type": "uint256"
        }
      ],
      "name": "history",
      "outputs": [
        {
          "internalType": "uint256",
          "name": "historyId",
          "type": "uint256"
        },
        {
          "internalType": "uint256",
          "name": "houseId",
          "type": "uint256"
        },
        {
          "internalType": "address",
          "name": "owner",
          "type": "address"
        },
        {
          "internalType": "string",
          "name": "title",
          "type": "string"
        },
        {
          "internalType": "string",
          "name": "desc",
          "type": "string"
        },
        {
          "internalType": "string",
          "name": "contractorName",
          "type": "string"
        },
        {
          "internalType": "uint256",
          "name": "historyDate",
          "type": "uint256"
        }
      ],
      "payable": false,
      "stateMutability": "view",
      "type": "function"
    },
    {
      "constant": true,
      "inputs": [],
      "name": "historyCount",
      "outputs": [
        {
          "internalType": "uint256",
          "name": "",
          "type": "uint256"
        }
      ],
      "payable": false,
      "stateMutability": "view",
      "type": "function"
    },
    {
      "constant": true,
      "inputs": [
        {
          "internalType": "uint256",
          "name": "",
          "type": "uint256"
        }
      ],
      "name": "house",
      "outputs": [
        {
          "internalType": "uint256",
          "name": "houseId",
          "type": "uint256"
        },
        {
          "internalType": "string",
          "name": "name",
          "type": "string"
        },
        {
          "internalType": "address",
          "name": "currentOwner",
          "type": "address"
        },
        {
          "internalType": "uint256",
          "name": "pinCode",
          "type": "uint256"
        },
        {
          "internalType": "string",
          "name": "houseAddress",
          "type": "string"
        },
        {
          "internalType": "uint256",
          "name": "houseDate",
          "type": "uint256"
        },
        {
          "internalType": "enum Sch.HouseStatus",
          "name": "houseStatus",
          "type": "uint8"
        },
        {
          "internalType": "uint256",
          "name": "totalHistoryCount",
          "type": "uint256"
        },
        {
          "internalType": "address",
          "name": "RequestedUser",
          "type": "address"
        }
      ],
      "payable": false,
      "stateMutability": "view",
      "type": "function"
    },
    {
      "constant": true,
      "inputs": [],
      "name": "houseCount",
      "outputs": [
        {
          "internalType": "uint256",
          "name": "",
          "type": "uint256"
        }
      ],
      "payable": false,
      "stateMutability": "view",
      "type": "function"
    },
    {
      "constant": false,
      "inputs": [
        {
          "internalType": "string",
          "name": "nm",
          "type": "string"
        },
        {
          "internalType": "uint256",
          "name": "pc",
          "type": "uint256"
        },
        {
          "internalType": "string",
          "name": "ha",
          "type": "string"
        },
        {
          "internalType": "uint256",
          "name": "hd",
          "type": "uint256"
        }
      ],
      "name": "addHouse",
      "outputs": [],
      "payable": false,
      "stateMutability": "nonpayable",
      "type": "function"
    },
    {
      "constant": true,
      "inputs": [
        {
          "internalType": "address",
          "name": "_owner",
          "type": "address"
        }
      ],
      "name": "getHousesByOwner",
      "outputs": [
        {
          "components": [
            {
              "internalType": "uint256",
              "name": "houseId",
              "type": "uint256"
            },
            {
              "internalType": "string",
              "name": "name",
              "type": "string"
            },
            {
              "internalType": "address",
              "name": "currentOwner",
              "type": "address"
            },
            {
              "internalType": "uint256",
              "name": "pinCode",
              "type": "uint256"
            },
            {
              "internalType": "string",
              "name": "houseAddress",
              "type": "string"
            },
            {
              "internalType": "uint256",
              "name": "houseDate",
              "type": "uint256"
            },
            {
              "internalType": "enum Sch.HouseStatus",
              "name": "houseStatus",
              "type": "uint8"
            },
            {
              "internalType": "uint256",
              "name": "totalHistoryCount",
              "type": "uint256"
            },
            {
              "internalType": "address",
              "name": "RequestedUser",
              "type": "address"
            }
          ],
          "internalType": "struct Sch.House[]",
          "name": "",
          "type": "tuple[]"
        },
        {
          "internalType": "uint256",
          "name": "",
          "type": "uint256"
        }
      ],
      "payable": false,
      "stateMutability": "view",
      "type": "function"
    },
    {
      "constant": true,
      "inputs": [
        {
          "internalType": "uint256",
          "name": "_pinCode",
          "type": "uint256"
        }
      ],
      "name": "getHousesByPincode",
      "outputs": [
        {
          "components": [
            {
              "internalType": "uint256",
              "name": "houseId",
              "type": "uint256"
            },
            {
              "internalType": "string",
              "name": "name",
              "type": "string"
            },
            {
              "internalType": "address",
              "name": "currentOwner",
              "type": "address"
            },
            {
              "internalType": "uint256",
              "name": "pinCode",
              "type": "uint256"
            },
            {
              "internalType": "string",
              "name": "houseAddress",
              "type": "string"
            },
            {
              "internalType": "uint256",
              "name": "houseDate",
              "type": "uint256"
            },
            {
              "internalType": "enum Sch.HouseStatus",
              "name": "houseStatus",
              "type": "uint8"
            },
            {
              "internalType": "uint256",
              "name": "totalHistoryCount",
              "type": "uint256"
            },
            {
              "internalType": "address",
              "name": "RequestedUser",
              "type": "address"
            }
          ],
          "internalType": "struct Sch.House[]",
          "name": "",
          "type": "tuple[]"
        },
        {
          "internalType": "uint256",
          "name": "",
          "type": "uint256"
        }
      ],
      "payable": false,
      "stateMutability": "view",
      "type": "function"
    },
    {
      "constant": false,
      "inputs": [
        {
          "internalType": "uint256",
          "name": "_houseId",
          "type": "uint256"
        },
        {
          "internalType": "string",
          "name": "title",
          "type": "string"
        },
        {
          "internalType": "string",
          "name": "desc",
          "type": "string"
        },
        {
          "internalType": "string",
          "name": "cn",
          "type": "string"
        },
        {
          "internalType": "uint256",
          "name": "hd",
          "type": "uint256"
        }
      ],
      "name": "addHouseHistory",
      "outputs": [],
      "payable": false,
      "stateMutability": "nonpayable",
      "type": "function"
    },
    {
      "constant": false,
      "inputs": [
        {
          "internalType": "uint256",
          "name": "_houseId",
          "type": "uint256"
        },
        {
          "internalType": "string",
          "name": "title",
          "type": "string"
        },
        {
          "internalType": "string",
          "name": "desc",
          "type": "string"
        },
        {
          "internalType": "string",
          "name": "cn",
          "type": "string"
        },
        {
          "internalType": "uint256",
          "name": "hd",
          "type": "uint256"
        },
        {
          "internalType": "address",
          "name": "newOwner",
          "type": "address"
        }
      ],
      "name": "addHouseHistoryThroughAccept",
      "outputs": [],
      "payable": false,
      "stateMutability": "nonpayable",
      "type": "function"
    },
    {
      "constant": true,
      "inputs": [
        {
          "internalType": "uint256",
          "name": "_houseId",
          "type": "uint256"
        }
      ],
      "name": "getHouseHistory",
      "outputs": [
        {
          "components": [
            {
              "internalType": "uint256",
              "name": "historyId",
              "type": "uint256"
            },
            {
              "internalType": "uint256",
              "name": "houseId",
              "type": "uint256"
            },
            {
              "internalType": "address",
              "name": "owner",
              "type": "address"
            },
            {
              "internalType": "string",
              "name": "title",
              "type": "string"
            },
            {
              "internalType": "string",
              "name": "desc",
              "type": "string"
            },
            {
              "internalType": "string",
              "name": "contractorName",
              "type": "string"
            },
            {
              "internalType": "uint256",
              "name": "historyDate",
              "type": "uint256"
            }
          ],
          "internalType": "struct Sch.History[]",
          "name": "",
          "type": "tuple[]"
        },
        {
          "internalType": "uint256",
          "name": "",
          "type": "uint256"
        }
      ],
      "payable": false,
      "stateMutability": "view",
      "type": "function"
    },
    {
      "constant": false,
      "inputs": [
        {
          "internalType": "uint256",
          "name": "_houseId",
          "type": "uint256"
        }
      ],
      "name": "requestHouse",
      "outputs": [],
      "payable": false,
      "stateMutability": "nonpayable",
      "type": "function"
    },
    {
      "constant": false,
      "inputs": [
        {
          "internalType": "uint256",
          "name": "_houseId",
          "type": "uint256"
        },
        {
          "internalType": "address",
          "name": "_newOwner",
          "type": "address"
        },
        {
          "internalType": "uint256",
          "name": "hd",
          "type": "uint256"
        }
      ],
      "name": "agreeHouse",
      "outputs": [],
      "payable": false,
      "stateMutability": "nonpayable",
      "type": "function"
    },
    {
      "constant": false,
      "inputs": [
        {
          "internalType": "uint256",
          "name": "_houseId",
          "type": "uint256"
        }
      ],
      "name": "disAgreeHouse",
      "outputs": [],
      "payable": false,
      "stateMutability": "nonpayable",
      "type": "function"
    }
  ],
  "bytecode": "0x608060405234801561001057600080fd5b50600060018190555060008081905550612a5b8061002f6000396000f3fe608060405234801561001057600080fd5b50600436106100f55760003560e01c8063801f89a711610097578063b3f603d111610066578063b3f603d1146102a4578063bd74f8b1146102d5578063dbea574d146102f3578063e85668381461030f576100f5565b8063801f89a7146102205780639a20bd811461023c578063a53be72914610258578063b278a1e814610288576100f5565b80633a9c9ffc116100d35780633a9c9ffc1461017f578063600f11cc1461019d57806371d9e19e146101b957806375e6c709146101ef576100f5565b8063195d0edf146100fa57806326fbf7e01461011657806328718e4c14610147575b600080fd5b610114600480360361010f9190810190611f8a565b61033f565b005b610130600480360361012b919081019061201d565b610745565b60405161013e92919061261b565b60405180910390f35b610161600480360361015c919081019061201d565b610a7c565b604051610176999897969594939291906126b6565b60405180910390f35b610187610c54565b604051610194919061269b565b60405180910390f35b6101b760048036036101b29190810190612095565b610c5a565b005b6101d360048036036101ce9190810190612225565b610de4565b6040516101e69796959493929190612751565b60405180910390f35b61020960048036036102049190810190611f61565b611028565b60405161021792919061264b565b60405180910390f35b61023a60048036036102359190810190612154565b6113ef565b005b61025660048036036102519190810190612046565b61157a565b005b610272600480360361026d919081019061201d565b6117fd565b60405161027f919061269b565b60405180910390f35b6102a2600480360361029d919081019061201d565b611815565b005b6102be60048036036102b9919081019061201d565b6118a1565b6040516102cc92919061264b565b60405180910390f35b6102dd611c3a565b6040516102ea919061269b565b60405180910390f35b61030d6004803603610308919081019061201d565b611c40565b005b61032960048036036103249190810190611f61565b611ccd565b604051610336919061269b565b60405180910390f35b600260405180610120016040528060005481526020018681526020013373ffffffffffffffffffffffffffffffffffffffff1681526020018581526020018481526020018381526020016000600181111561039657fe5b815260200160008152602001600073ffffffffffffffffffffffffffffffffffffffff168152509080600181540180825580915050906001820390600052602060002090600902016000909192909190915060008201518160000155602082015181600101908051906020019061040e929190611ce5565b5060408201518160020160006101000a81548173ffffffffffffffffffffffffffffffffffffffff021916908373ffffffffffffffffffffffffffffffffffffffff16021790555060608201518160030155608082015181600401908051906020019061047c929190611ce5565b5060a0820151816005015560c08201518160060160006101000a81548160ff021916908360018111156104ab57fe5b021790555060e082015181600701556101008201518160080160006101000a81548173ffffffffffffffffffffffffffffffffffffffff021916908373ffffffffffffffffffffffffffffffffffffffff1602179055505050506105966000546040518060400160405280600c81526020017f4465706c6f792d486f75736500000000000000000000000000000000000000008152506040518060600160405280602781526020016129f2602791396040518060400160405280601681526020017f6e6f20636f6e74726163746f7220617661696c616c650000000000000000000081525085610c5a565b60008081548092919060010191905055506000601760003373ffffffffffffffffffffffffffffffffffffffff1673ffffffffffffffffffffffffffffffffffffffff168152602001908152602001600020541415610639576001601760003373ffffffffffffffffffffffffffffffffffffffff1673ffffffffffffffffffffffffffffffffffffffff168152602001908152602001600020819055506106cb565b6000601760003373ffffffffffffffffffffffffffffffffffffffff1673ffffffffffffffffffffffffffffffffffffffff168152602001908152602001600020549050808060010191505080601760003373ffffffffffffffffffffffffffffffffffffffff1673ffffffffffffffffffffffffffffffffffffffff16815260200190815260200160002081905550505b600060186000858152602001908152602001600020541415610705576001601860008581526020019081526020016000208190555061073f565b6000601860008581526020019081526020016000205490508080600101915050806018600086815260200190815260200160002081905550505b50505050565b60606000806002848154811061075757fe5b906000526020600020906009020190506000816007015490506060816040519080825280602002602001820160405280156107ac57816020015b610799611d65565b8152602001906001900390816107915790505b50905060008090505b82811015610a6d57600387601481106107ca57fe5b0181815481106107d657fe5b90600052602060002090600702016040518060e001604052908160008201548152602001600182015481526020016002820160009054906101000a900473ffffffffffffffffffffffffffffffffffffffff1673ffffffffffffffffffffffffffffffffffffffff1673ffffffffffffffffffffffffffffffffffffffff168152602001600382018054600181600116156101000203166002900480601f0160208091040260200160405190810160405280929190818152602001828054600181600116156101000203166002900480156108f25780601f106108c7576101008083540402835291602001916108f2565b820191906000526020600020905b8154815290600101906020018083116108d557829003601f168201915b50505050508152602001600482018054600181600116156101000203166002900480601f0160208091040260200160405190810160405280929190818152602001828054600181600116156101000203166002900480156109945780601f1061096957610100808354040283529160200191610994565b820191906000526020600020905b81548152906001019060200180831161097757829003601f168201915b50505050508152602001600582018054600181600116156101000203166002900480601f016020809104026020016040519081016040528092919081815260200182805460018160011615610100020316600290048015610a365780601f10610a0b57610100808354040283529160200191610a36565b820191906000526020600020905b815481529060010190602001808311610a1957829003601f168201915b50505050508152602001600682015481525050828281518110610a5557fe5b602002602001018190525080806001019150506107b5565b50808294509450505050915091565b60028181548110610a8957fe5b9060005260206000209060090201600091509050806000015490806001018054600181600116156101000203166002900480601f016020809104026020016040519081016040528092919081815260200182805460018160011615610100020316600290048015610b3b5780601f10610b1057610100808354040283529160200191610b3b565b820191906000526020600020905b815481529060010190602001808311610b1e57829003601f168201915b5050505050908060020160009054906101000a900473ffffffffffffffffffffffffffffffffffffffff1690806003015490806004018054600181600116156101000203166002900480601f016020809104026020016040519081016040528092919081815260200182805460018160011615610100020316600290048015610c055780601f10610bda57610100808354040283529160200191610c05565b820191906000526020600020905b815481529060010190602001808311610be857829003601f168201915b5050505050908060050154908060060160009054906101000a900460ff16908060070154908060080160009054906101000a900473ffffffffffffffffffffffffffffffffffffffff16905089565b60015481565b60038560148110610c6757fe5b016040518060e0016040528060015481526020018781526020013373ffffffffffffffffffffffffffffffffffffffff1681526020018681526020018581526020018481526020018381525090806001815401808255809150509060018203906000526020600020906007020160009091929091909150600082015181600001556020820151816001015560408201518160020160006101000a81548173ffffffffffffffffffffffffffffffffffffffff021916908373ffffffffffffffffffffffffffffffffffffffff1602179055506060820151816003019080519060200190610d55929190611ce5565b506080820151816004019080519060200190610d72929190611ce5565b5060a0820151816005019080519060200190610d8f929190611ce5565b5060c0820151816006015550505060028581548110610daa57fe5b9060005260206000209060090201600701600081548092919060010191905055506001600081548092919060010191905055505050505050565b60038260148110610df157fe5b018181548110610dfd57fe5b9060005260206000209060070201600091509150508060000154908060010154908060020160009054906101000a900473ffffffffffffffffffffffffffffffffffffffff1690806003018054600181600116156101000203166002900480601f016020809104026020016040519081016040528092919081815260200182805460018160011615610100020316600290048015610edc5780601f10610eb157610100808354040283529160200191610edc565b820191906000526020600020905b815481529060010190602001808311610ebf57829003601f168201915b505050505090806004018054600181600116156101000203166002900480601f016020809104026020016040519081016040528092919081815260200182805460018160011615610100020316600290048015610f7a5780601f10610f4f57610100808354040283529160200191610f7a565b820191906000526020600020905b815481529060010190602001808311610f5d57829003601f168201915b505050505090806005018054600181600116156101000203166002900480601f0160208091040260200160405190810160405280929190818152602001828054600181600116156101000203166002900480156110185780601f10610fed57610100808354040283529160200191611018565b820191906000526020600020905b815481529060010190602001808311610ffb57829003601f168201915b5050505050908060060154905087565b6060600080601760008573ffffffffffffffffffffffffffffffffffffffff1673ffffffffffffffffffffffffffffffffffffffff1681526020019081526020016000205490506060816040519080825280602002602001820160405280156110ab57816020015b611098611db8565b8152602001906001900390816110905790505b509050600080905060008090505b6000548110156113e0576000600282815481106110d257fe5b906000526020600020906009020190508773ffffffffffffffffffffffffffffffffffffffff168160020160009054906101000a900473ffffffffffffffffffffffffffffffffffffffff1673ffffffffffffffffffffffffffffffffffffffff1614156113d257611142611e3b565b6002838154811061114f57fe5b90600052602060002090600902016040518061012001604052908160008201548152602001600182018054600181600116156101000203166002900480601f01602080910402602001604051908101604052809291908181526020018280546001816001161561010002031660029004801561120c5780601f106111e15761010080835404028352916020019161120c565b820191906000526020600020905b8154815290600101906020018083116111ef57829003601f168201915b505050505081526020016002820160009054906101000a900473ffffffffffffffffffffffffffffffffffffffff1673ffffffffffffffffffffffffffffffffffffffff1673ffffffffffffffffffffffffffffffffffffffff16815260200160038201548152602001600482018054600181600116156101000203166002900480601f01602080910402602001604051908101604052809291908181526020018280546001816001161561010002031660029004801561130e5780601f106112e35761010080835404028352916020019161130e565b820191906000526020600020905b8154815290600101906020018083116112f157829003601f168201915b50505050508152602001600582015481526020016006820160009054906101000a900460ff16600181111561133f57fe5b600181111561134a57fe5b8152602001600782015481526020016008820160009054906101000a900473ffffffffffffffffffffffffffffffffffffffff1673ffffffffffffffffffffffffffffffffffffffff1673ffffffffffffffffffffffffffffffffffffffff16815250509050808585815181106113bd57fe5b60200260200101819052508380600101945050505b5080806001019150506110b9565b50818194509450505050915091565b600386601481106113fc57fe5b016040518060e0016040528060015481526020018881526020018373ffffffffffffffffffffffffffffffffffffffff1681526020018781526020018681526020018581526020018481525090806001815401808255809150509060018203906000526020600020906007020160009091929091909150600082015181600001556020820151816001015560408201518160020160006101000a81548173ffffffffffffffffffffffffffffffffffffffff021916908373ffffffffffffffffffffffffffffffffffffffff16021790555060608201518160030190805190602001906114ea929190611ce5565b506080820151816004019080519060200190611507929190611ce5565b5060a0820151816005019080519060200190611524929190611ce5565b5060c082015181600601555050506002868154811061153f57fe5b906000526020600020906009020160070160008154809291906001019190505550600160008154809291906001019190505550505050505050565b60006002848154811061158957fe5b9060005260206000209060090201905060008160060160006101000a81548160ff021916908360018111156115ba57fe5b021790555060008160080160006101000a81548173ffffffffffffffffffffffffffffffffffffffff021916908373ffffffffffffffffffffffffffffffffffffffff1602179055506000601760003373ffffffffffffffffffffffffffffffffffffffff1673ffffffffffffffffffffffffffffffffffffffff16815260200190815260200160002054905060018103905080601760003373ffffffffffffffffffffffffffffffffffffffff1673ffffffffffffffffffffffffffffffffffffffff16815260200190815260200160002081905550601760008573ffffffffffffffffffffffffffffffffffffffff1673ffffffffffffffffffffffffffffffffffffffff16815260200190815260200160002054905060018101905080601760008673ffffffffffffffffffffffffffffffffffffffff1673ffffffffffffffffffffffffffffffffffffffff16815260200190815260200160002081905550838260020160006101000a81548173ffffffffffffffffffffffffffffffffffffffff021916908373ffffffffffffffffffffffffffffffffffffffff16021790555060606040518060600160405280603581526020016129bd6035913990506117f5866040518060400160405280601281526020017f4f776e657273686970205472616e736665720000000000000000000000000000815250836040518060400160405280601681526020017f6e6f20636f6e74726163746f7220617661696c616c6500000000000000000000815250888a6113ef565b505050505050565b60186020528060005260406000206000915090505481565b60006002828154811061182457fe5b9060005260206000209060090201905060018160060160006101000a81548160ff0219169083600181111561185557fe5b0217905550338160080160006101000a81548173ffffffffffffffffffffffffffffffffffffffff021916908373ffffffffffffffffffffffffffffffffffffffff1602179055505050565b6060600080601860008581526020019081526020016000205490506000811415611900576040517f08c379a00000000000000000000000000000000000000000000000000000000081526004016118f79061267b565b60405180910390fd5b60608160405190808252806020026020018201604052801561193c57816020015b611929611db8565b8152602001906001900390816119215790505b509050600080905060008090505b600054811015611c2b5760006002828154811061196357fe5b9060005260206000209060090201905060008160030154905088811415611c1c5761198c611e3b565b6002848154811061199957fe5b90600052602060002090600902016040518061012001604052908160008201548152602001600182018054600181600116156101000203166002900480601f016020809104026020016040519081016040528092919081815260200182805460018160011615610100020316600290048015611a565780601f10611a2b57610100808354040283529160200191611a56565b820191906000526020600020905b815481529060010190602001808311611a3957829003601f168201915b505050505081526020016002820160009054906101000a900473ffffffffffffffffffffffffffffffffffffffff1673ffffffffffffffffffffffffffffffffffffffff1673ffffffffffffffffffffffffffffffffffffffff16815260200160038201548152602001600482018054600181600116156101000203166002900480601f016020809104026020016040519081016040528092919081815260200182805460018160011615610100020316600290048015611b585780601f10611b2d57610100808354040283529160200191611b58565b820191906000526020600020905b815481529060010190602001808311611b3b57829003601f168201915b50505050508152602001600582015481526020016006820160009054906101000a900460ff166001811115611b8957fe5b6001811115611b9457fe5b8152602001600782015481526020016008820160009054906101000a900473ffffffffffffffffffffffffffffffffffffffff1673ffffffffffffffffffffffffffffffffffffffff1673ffffffffffffffffffffffffffffffffffffffff1681525050905080868681518110611c0757fe5b60200260200101819052508480600101955050505b5050808060010191505061194a565b50818194509450505050915091565b60005481565b600060028281548110611c4f57fe5b9060005260206000209060090201905060008160060160006101000a81548160ff02191690836001811115611c8057fe5b021790555060008160080160006101000a81548173ffffffffffffffffffffffffffffffffffffffff021916908373ffffffffffffffffffffffffffffffffffffffff1602179055505050565b60176020528060005260406000206000915090505481565b828054600181600116156101000203166002900490600052602060002090601f016020900481019282601f10611d2657805160ff1916838001178555611d54565b82800160010185558215611d54579182015b82811115611d53578251825591602001919060010190611d38565b5b509050611d619190611ebe565b5090565b6040518060e001604052806000815260200160008152602001600073ffffffffffffffffffffffffffffffffffffffff168152602001606081526020016060815260200160608152602001600081525090565b6040518061012001604052806000815260200160608152602001600073ffffffffffffffffffffffffffffffffffffffff16815260200160008152602001606081526020016000815260200160006001811115611e1157fe5b815260200160008152602001600073ffffffffffffffffffffffffffffffffffffffff1681525090565b6040518061012001604052806000815260200160608152602001600073ffffffffffffffffffffffffffffffffffffffff16815260200160008152602001606081526020016000815260200160006001811115611e9457fe5b815260200160008152602001600073ffffffffffffffffffffffffffffffffffffffff1681525090565b611ee091905b80821115611edc576000816000905550600101611ec4565b5090565b90565b600081359050611ef28161298e565b92915050565b600082601f830112611f0957600080fd5b8135611f1c611f1782612802565b6127d5565b91508082526020830160208301858383011115611f3857600080fd5b611f4383828461292e565b50505092915050565b600081359050611f5b816129a5565b92915050565b600060208284031215611f7357600080fd5b6000611f8184828501611ee3565b91505092915050565b60008060008060808587031215611fa057600080fd5b600085013567ffffffffffffffff811115611fba57600080fd5b611fc687828801611ef8565b9450506020611fd787828801611f4c565b935050604085013567ffffffffffffffff811115611ff457600080fd5b61200087828801611ef8565b925050606061201187828801611f4c565b91505092959194509250565b60006020828403121561202f57600080fd5b600061203d84828501611f4c565b91505092915050565b60008060006060848603121561205b57600080fd5b600061206986828701611f4c565b935050602061207a86828701611ee3565b925050604061208b86828701611f4c565b9150509250925092565b600080600080600060a086880312156120ad57600080fd5b60006120bb88828901611f4c565b955050602086013567ffffffffffffffff8111156120d857600080fd5b6120e488828901611ef8565b945050604086013567ffffffffffffffff81111561210157600080fd5b61210d88828901611ef8565b935050606086013567ffffffffffffffff81111561212a57600080fd5b61213688828901611ef8565b925050608061214788828901611f4c565b9150509295509295909350565b60008060008060008060c0878903121561216d57600080fd5b600061217b89828a01611f4c565b965050602087013567ffffffffffffffff81111561219857600080fd5b6121a489828a01611ef8565b955050604087013567ffffffffffffffff8111156121c157600080fd5b6121cd89828a01611ef8565b945050606087013567ffffffffffffffff8111156121ea57600080fd5b6121f689828a01611ef8565b935050608061220789828a01611f4c565b92505060a061221889828a01611ee3565b9150509295509295509295565b6000806040838503121561223857600080fd5b600061224685828601611f4c565b925050602061225785828601611f4c565b9150509250929050565b600061226d8383612487565b905092915050565b60006122818383612531565b905092915050565b612292816128cd565b82525050565b6122a1816128cd565b82525050565b60006122b28261284e565b6122bc8185612889565b9350836020820285016122ce8561282e565b8060005b8581101561230a57848403895281516122eb8582612261565b94506122f68361286f565b925060208a019950506001810190506122d2565b50829750879550505050505092915050565b600061232782612859565b612331818561289a565b9350836020820285016123438561283e565b8060005b8581101561237f57848403895281516123608582612275565b945061236b8361287c565b925060208a01995050600181019050612347565b50829750879550505050505092915050565b61239a8161291c565b82525050565b6123a98161291c565b82525050565b60006123ba82612864565b6123c481856128ab565b93506123d481856020860161293d565b6123dd81612970565b840191505092915050565b60006123f382612864565b6123fd81856128bc565b935061240d81856020860161293d565b61241681612970565b840191505092915050565b600061242e6024836128bc565b91507f4e6f20686f7573657320617661696c616c6520666f7220676976656e2070696e60008301527f636f6465000000000000000000000000000000000000000000000000000000006020830152604082019050919050565b600060e08301600083015161249f60008601826125fd565b5060208301516124b260208601826125fd565b5060408301516124c56040860182612289565b50606083015184820360608601526124dd82826123af565b915050608083015184820360808601526124f782826123af565b91505060a083015184820360a086015261251182826123af565b91505060c083015161252660c08601826125fd565b508091505092915050565b60006101208301600083015161254a60008601826125fd565b506020830151848203602086015261256282826123af565b91505060408301516125776040860182612289565b50606083015161258a60608601826125fd565b50608083015184820360808601526125a282826123af565b91505060a08301516125b760a08601826125fd565b5060c08301516125ca60c0860182612391565b5060e08301516125dd60e08601826125fd565b506101008301516125f2610100860182612289565b508091505092915050565b61260681612912565b82525050565b61261581612912565b82525050565b6000604082019050818103600083015261263581856122a7565b9050612644602083018461260c565b9392505050565b60006040820190508181036000830152612665818561231c565b9050612674602083018461260c565b9392505050565b6000602082019050818103600083015261269481612421565b9050919050565b60006020820190506126b0600083018461260c565b92915050565b6000610120820190506126cc600083018c61260c565b81810360208301526126de818b6123e8565b90506126ed604083018a612298565b6126fa606083018961260c565b818103608083015261270c81886123e8565b905061271b60a083018761260c565b61272860c08301866123a0565b61273560e083018561260c565b612743610100830184612298565b9a9950505050505050505050565b600060e082019050612766600083018a61260c565b612773602083018961260c565b6127806040830188612298565b818103606083015261279281876123e8565b905081810360808301526127a681866123e8565b905081810360a08301526127ba81856123e8565b90506127c960c083018461260c565b98975050505050505050565b6000604051905081810181811067ffffffffffffffff821117156127f857600080fd5b8060405250919050565b600067ffffffffffffffff82111561281957600080fd5b601f19601f8301169050602081019050919050565b6000819050602082019050919050565b6000819050602082019050919050565b600081519050919050565b600081519050919050565b600081519050919050565b6000602082019050919050565b6000602082019050919050565b600082825260208201905092915050565b600082825260208201905092915050565b600082825260208201905092915050565b600082825260208201905092915050565b60006128d8826128f2565b9050919050565b60008190506128ed82612981565b919050565b600073ffffffffffffffffffffffffffffffffffffffff82169050919050565b6000819050919050565b6000612927826128df565b9050919050565b82818337600083830152505050565b60005b8381101561295b578082015181840152602081019050612940565b8381111561296a576000848401525b50505050565b6000601f19601f8301169050919050565b6002811061298b57fe5b50565b612997816128cd565b81146129a257600080fd5b50565b6129ae81612912565b81146129b957600080fd5b5056fe7472616e736665722074616b657320706c6163652066726f6d2070726576696f7573206f776e657220746f206e6577206f776e65725468697320686f75736520776173206465706c6f796564206f6e20676976656e20646174652021a365627a7a723158208c6ad0114817c220f49df0db64dc4e2f272d8d3ef342e38d569b00fdcf579f236c6578706572696d656e74616cf564736f6c63430005100040",
  "source": "// SPDX-License-Identifier: MIT\r\npragma solidity >=0.4.22 <0.8.0;\r\npragma experimental ABIEncoderV2;\r\n\r\ncontract Sch {\r\n \r\n uint public houseCount;\r\n uint public historyCount;\r\n\r\n\r\n \r\nstruct History{\r\n    uint historyId;\r\n    uint houseId;\r\n    address owner;\r\n    string title;\r\n    string desc;\r\n    string contractorName;\r\n    uint256 historyDate;\r\n\r\n\r\n\r\n}\r\n\r\nenum HouseStatus{\r\n    Available,\r\n    Requested\r\n    \r\n}\r\n\r\nHouseStatus constant defaultChoice=HouseStatus.Available;\r\n\r\n\r\n\r\nstruct House{\r\n     uint houseId;\r\n     string name;\r\n     address currentOwner;\r\n     uint256 pinCode;\r\n     string houseAddress;\r\n     uint256 houseDate;\r\n     HouseStatus houseStatus;\r\n     uint  totalHistoryCount;\r\n     address RequestedUser;\r\n     \r\n    \r\n\r\n }\r\n\r\nHouse [] public house;\r\nHistory [][20] public history;\r\n\r\n\r\nmapping(address=>uint) public getHousesByOwnerCount;\r\nmapping(uint256=>uint) public getHousesByPincodeCount;\r\n\r\n\r\nconstructor() public{\r\n    \r\n    historyCount=0;\r\n    houseCount=0;\r\n    \r\n    \r\n   \r\n\r\n}\r\n\r\n\r\n\r\nfunction addHouse(string memory nm,uint256 pc,string memory ha,uint256 hd) public{\r\n   \r\n    house.push(House(houseCount,nm,msg.sender,pc,ha,hd,HouseStatus.Available,0,address(0x0)));\r\n    \r\n    \r\n    addHouseHistory(houseCount,\"Deploy-House\",\"This house was deployed on given date !\",\"no contractor availale\",hd);\r\n    houseCount++;\r\n    \r\n    if(getHousesByOwnerCount[msg.sender]==0){\r\n        \r\n        getHousesByOwnerCount[msg.sender]=1;\r\n    }\r\n    else{\r\n        uint a=getHousesByOwnerCount[msg.sender];\r\n        a++;\r\n        getHousesByOwnerCount[msg.sender]=a;\r\n        \r\n    }\r\n    \r\n      \r\n    if(getHousesByPincodeCount[pc]==0){\r\n        \r\n        getHousesByPincodeCount[pc]=1;\r\n    }\r\n    else{\r\n        \r\n        uint a=getHousesByPincodeCount[pc];\r\n        a++;\r\n        getHousesByPincodeCount[pc]=a;\r\n        \r\n    }\r\n\r\n    \r\n\r\n    \r\n}  \r\n\r\n\r\nfunction getHousesByOwner(address _owner)public view returns(House[] memory ,uint){\r\n     \r\n     uint cnt=getHousesByOwnerCount[address(_owner)];\r\n\r\n    // require(cnt!=0,\"No houses availale for given owner\");\r\n     \r\n     House[] memory retHouse=new House[](cnt);\r\n     uint retHouseCount=0;\r\n     \r\n     for(uint i=0;i<houseCount;i++)\r\n     {\r\n         House storage temHouse=house[i];\r\n         if(address(temHouse.currentOwner)==address(_owner))\r\n         {\r\n             House memory temHouse1=house[i];\r\n             retHouse[retHouseCount]=temHouse1;\r\n             retHouseCount++;\r\n             \r\n         }\r\n     }\r\n     \r\n     return(retHouse,retHouseCount);\r\n     \r\n}\r\n\r\n\r\nfunction getHousesByPincode(uint256 _pinCode)public view returns(House[] memory,uint){\r\n    \r\n    \r\n    uint cnt=getHousesByPincodeCount[_pinCode];\r\n\r\n    require(cnt!=0,\"No houses availale for given pincode\");\r\n\r\n    House[] memory retHouse=new House[](cnt);\r\n    uint retHouseCount=0;\r\n    \r\n     for(uint i=0;i<houseCount;i++)\r\n     {\r\n         House storage temHouse=house[i];\r\n         uint256 pin=temHouse.pinCode;\r\n         if(pin==_pinCode)\r\n         {\r\n             House memory temHouse1=house[i];\r\n             retHouse[retHouseCount]=temHouse1;\r\n             retHouseCount++;\r\n             \r\n         }\r\n     }\r\n    \r\n    \r\n    return(retHouse,retHouseCount);\r\n}\r\n\r\n\r\nfunction addHouseHistory(uint _houseId,string memory title,string memory desc,string memory cn,uint256 hd) public {\r\n  \r\n    \r\n    history[_houseId].push(History(historyCount,_houseId,msg.sender,title,desc,cn,hd));\r\n    house[_houseId].totalHistoryCount++;\r\n    historyCount++;\r\n} \r\n\r\nfunction addHouseHistoryThroughAccept(uint _houseId,string memory title,string memory desc,string memory cn,uint256 hd,address newOwner) public {\r\n  \r\n    \r\n    history[_houseId].push(History(historyCount,_houseId,newOwner,title,desc,cn,hd));\r\n    house[_houseId].totalHistoryCount++;\r\n    historyCount++;\r\n} \r\n\r\nfunction getHouseHistory(uint _houseId)public view returns(History[] memory,uint){\r\n    \r\n    House storage _temHouse=house[_houseId];\r\n    uint  _totalHistoryCount=_temHouse.totalHistoryCount;\r\n    History[] memory _history=new History[](_totalHistoryCount);\r\n    \r\n    for(uint i=0;i<_totalHistoryCount;i++)\r\n    {\r\n        _history[i]=history[_houseId][i];\r\n    }\r\n   \r\n    return(_history,_totalHistoryCount);\r\n    \r\n}\r\n\r\nfunction requestHouse(uint _houseId)public {\r\n\r\n    House storage _temHouse=house[_houseId];\r\n    _temHouse.houseStatus=HouseStatus.Requested;\r\n    _temHouse.RequestedUser=address(msg.sender);\r\n}\r\n\r\nfunction agreeHouse(uint _houseId ,address _newOwner,uint256 hd)public {\r\n\r\n    House storage _temHouse=house[_houseId];\r\n    _temHouse.houseStatus=HouseStatus.Available;\r\n    _temHouse.RequestedUser=address(0x0);\r\n\r\n    uint cnt=getHousesByOwnerCount[address(msg.sender)];\r\n    cnt=cnt-1;\r\n    getHousesByOwnerCount[address(msg.sender)]=cnt;\r\n\r\n    cnt=getHousesByOwnerCount[_newOwner];\r\n    cnt=cnt+1;\r\n    getHousesByOwnerCount[_newOwner]=cnt;\r\n\r\n    _temHouse.currentOwner=_newOwner;\r\n    \r\n    string memory desc=\"transfer takes place from previous owner to new owner\";\r\n    addHouseHistoryThroughAccept(_houseId,\"Ownership Transfer\",desc,\"no contractor availale\",hd,_newOwner);\r\n    \r\n}\r\n\r\n\r\nfunction disAgreeHouse(uint _houseId)public {\r\n\r\n    House storage _temHouse=house[_houseId];\r\n    _temHouse.houseStatus=HouseStatus.Available;\r\n    _temHouse.RequestedUser=address(0x0);\r\n\r\n}\r\n\r\n}\r\n\r\n\r\n\r\n",
  "sourcePath": "E:/react/selfconcioushouse/src/contracts/Sch.sol",
  "compiler": {
    "name": "solc",
    "version": "0.5.16+commit.9c3226ce.Emscripten.clang"
  },
  "schemaVersion": "3.2.3",
  "updatedAt": "2020-10-09T08:11:17.820Z",
  "networkType": "ethereum",
  "devdoc": {
    "methods": {}
  },
  "userdoc": {
    "methods": {}
  }
}