{
  "contractName": "Sch",
  "abi": [
    {
      "inputs": [],
      "payable": false,
      "stateMutability": "nonpayable",
      "type": "constructor"
    },
    {
      "constant": true,
      "inputs": [
        {
          "internalType": "address",
          "name": "",
          "type": "address"
        },
        {
          "internalType": "uint256",
          "name": "",
          "type": "uint256"
        }
      ],
      "name": "OutgoingRequestMap",
      "outputs": [
        {
          "internalType": "uint256",
          "name": "houseId",
          "type": "uint256"
        },
        {
          "internalType": "string",
          "name": "houseName",
          "type": "string"
        },
        {
          "internalType": "uint256",
          "name": "status",
          "type": "uint256"
        },
        {
          "internalType": "uint256",
          "name": "dateOfReq",
          "type": "uint256"
        }
      ],
      "payable": false,
      "stateMutability": "view",
      "type": "function"
    },
    {
      "constant": true,
      "inputs": [
        {
          "internalType": "address",
          "name": "",
          "type": "address"
        }
      ],
      "name": "OutgoingRequestMapCount",
      "outputs": [
        {
          "internalType": "uint256",
          "name": "",
          "type": "uint256"
        }
      ],
      "payable": false,
      "stateMutability": "view",
      "type": "function"
    },
    {
      "constant": true,
      "inputs": [
        {
          "internalType": "address",
          "name": "",
          "type": "address"
        }
      ],
      "name": "getHousesByOwnerCount",
      "outputs": [
        {
          "internalType": "uint256",
          "name": "",
          "type": "uint256"
        }
      ],
      "payable": false,
      "stateMutability": "view",
      "type": "function"
    },
    {
      "constant": true,
      "inputs": [
        {
          "internalType": "uint256",
          "name": "",
          "type": "uint256"
        }
      ],
      "name": "getHousesByPincodeCount",
      "outputs": [
        {
          "internalType": "uint256",
          "name": "",
          "type": "uint256"
        }
      ],
      "payable": false,
      "stateMutability": "view",
      "type": "function"
    },
    {
      "constant": true,
      "inputs": [
        {
          "internalType": "uint256",
          "name": "",
          "type": "uint256"
        },
        {
          "internalType": "uint256",
          "name": "",
          "type": "uint256"
        }
      ],
      "name": "history",
      "outputs": [
        {
          "internalType": "uint256",
          "name": "historyId",
          "type": "uint256"
        },
        {
          "internalType": "uint256",
          "name": "houseId",
          "type": "uint256"
        },
        {
          "internalType": "address",
          "name": "owner",
          "type": "address"
        },
        {
          "internalType": "string",
          "name": "title",
          "type": "string"
        },
        {
          "internalType": "string",
          "name": "desc",
          "type": "string"
        },
        {
          "internalType": "string",
          "name": "contractorName",
          "type": "string"
        },
        {
          "internalType": "uint256",
          "name": "historyDate",
          "type": "uint256"
        },
        {
          "internalType": "string",
          "name": "beforeImageHash",
          "type": "string"
        },
        {
          "internalType": "string",
          "name": "afterImageHash",
          "type": "string"
        }
      ],
      "payable": false,
      "stateMutability": "view",
      "type": "function"
    },
    {
      "constant": true,
      "inputs": [],
      "name": "historyCount",
      "outputs": [
        {
          "internalType": "uint256",
          "name": "",
          "type": "uint256"
        }
      ],
      "payable": false,
      "stateMutability": "view",
      "type": "function"
    },
    {
      "constant": true,
      "inputs": [
        {
          "internalType": "uint256",
          "name": "",
          "type": "uint256"
        }
      ],
      "name": "house",
      "outputs": [
        {
          "internalType": "uint256",
          "name": "houseId",
          "type": "uint256"
        },
        {
          "internalType": "string",
          "name": "name",
          "type": "string"
        },
        {
          "internalType": "address",
          "name": "currentOwner",
          "type": "address"
        },
        {
          "internalType": "uint256",
          "name": "pinCode",
          "type": "uint256"
        },
        {
          "internalType": "string",
          "name": "houseAddress",
          "type": "string"
        },
        {
          "internalType": "uint256",
          "name": "houseDate",
          "type": "uint256"
        },
        {
          "internalType": "enum Sch.HouseStatus",
          "name": "houseStatus",
          "type": "uint8"
        },
        {
          "internalType": "uint256",
          "name": "totalHistoryCount",
          "type": "uint256"
        },
        {
          "internalType": "address",
          "name": "RequestedUser",
          "type": "address"
        }
      ],
      "payable": false,
      "stateMutability": "view",
      "type": "function"
    },
    {
      "constant": true,
      "inputs": [],
      "name": "houseCount",
      "outputs": [
        {
          "internalType": "uint256",
          "name": "",
          "type": "uint256"
        }
      ],
      "payable": false,
      "stateMutability": "view",
      "type": "function"
    },
    {
      "constant": false,
      "inputs": [
        {
          "internalType": "string",
          "name": "nm",
          "type": "string"
        },
        {
          "internalType": "uint256",
          "name": "pc",
          "type": "uint256"
        },
        {
          "internalType": "string",
          "name": "ha",
          "type": "string"
        },
        {
          "internalType": "uint256",
          "name": "hd",
          "type": "uint256"
        },
        {
          "internalType": "string",
          "name": "_imageHash",
          "type": "string"
        }
      ],
      "name": "addHouse",
      "outputs": [],
      "payable": false,
      "stateMutability": "nonpayable",
      "type": "function"
    },
    {
      "constant": true,
      "inputs": [
        {
          "internalType": "address",
          "name": "_owner",
          "type": "address"
        }
      ],
      "name": "getHousesByOwner",
      "outputs": [
        {
          "components": [
            {
              "internalType": "uint256",
              "name": "houseId",
              "type": "uint256"
            },
            {
              "internalType": "string",
              "name": "name",
              "type": "string"
            },
            {
              "internalType": "address",
              "name": "currentOwner",
              "type": "address"
            },
            {
              "internalType": "uint256",
              "name": "pinCode",
              "type": "uint256"
            },
            {
              "internalType": "string",
              "name": "houseAddress",
              "type": "string"
            },
            {
              "internalType": "uint256",
              "name": "houseDate",
              "type": "uint256"
            },
            {
              "internalType": "enum Sch.HouseStatus",
              "name": "houseStatus",
              "type": "uint8"
            },
            {
              "internalType": "uint256",
              "name": "totalHistoryCount",
              "type": "uint256"
            },
            {
              "internalType": "address",
              "name": "RequestedUser",
              "type": "address"
            }
          ],
          "internalType": "struct Sch.House[]",
          "name": "",
          "type": "tuple[]"
        },
        {
          "internalType": "uint256",
          "name": "",
          "type": "uint256"
        }
      ],
      "payable": false,
      "stateMutability": "view",
      "type": "function"
    },
    {
      "constant": true,
      "inputs": [
        {
          "internalType": "uint256",
          "name": "_pinCode",
          "type": "uint256"
        }
      ],
      "name": "getHousesByPincode",
      "outputs": [
        {
          "components": [
            {
              "internalType": "uint256",
              "name": "houseId",
              "type": "uint256"
            },
            {
              "internalType": "string",
              "name": "name",
              "type": "string"
            },
            {
              "internalType": "address",
              "name": "currentOwner",
              "type": "address"
            },
            {
              "internalType": "uint256",
              "name": "pinCode",
              "type": "uint256"
            },
            {
              "internalType": "string",
              "name": "houseAddress",
              "type": "string"
            },
            {
              "internalType": "uint256",
              "name": "houseDate",
              "type": "uint256"
            },
            {
              "internalType": "enum Sch.HouseStatus",
              "name": "houseStatus",
              "type": "uint8"
            },
            {
              "internalType": "uint256",
              "name": "totalHistoryCount",
              "type": "uint256"
            },
            {
              "internalType": "address",
              "name": "RequestedUser",
              "type": "address"
            }
          ],
          "internalType": "struct Sch.House[]",
          "name": "",
          "type": "tuple[]"
        },
        {
          "internalType": "uint256",
          "name": "",
          "type": "uint256"
        }
      ],
      "payable": false,
      "stateMutability": "view",
      "type": "function"
    },
    {
      "constant": false,
      "inputs": [
        {
          "internalType": "uint256",
          "name": "_houseId",
          "type": "uint256"
        },
        {
          "internalType": "string",
          "name": "title",
          "type": "string"
        },
        {
          "internalType": "string",
          "name": "desc",
          "type": "string"
        },
        {
          "internalType": "string",
          "name": "cn",
          "type": "string"
        },
        {
          "internalType": "uint256",
          "name": "hd",
          "type": "uint256"
        },
        {
          "internalType": "string",
          "name": "_befImgHash",
          "type": "string"
        },
        {
          "internalType": "string",
          "name": "_aftImgHash",
          "type": "string"
        }
      ],
      "name": "addHouseHistory",
      "outputs": [],
      "payable": false,
      "stateMutability": "nonpayable",
      "type": "function"
    },
    {
      "constant": false,
      "inputs": [
        {
          "internalType": "uint256",
          "name": "_houseId",
          "type": "uint256"
        },
        {
          "internalType": "string",
          "name": "title",
          "type": "string"
        },
        {
          "internalType": "string",
          "name": "desc",
          "type": "string"
        },
        {
          "internalType": "string",
          "name": "cn",
          "type": "string"
        },
        {
          "internalType": "uint256",
          "name": "hd",
          "type": "uint256"
        },
        {
          "internalType": "address",
          "name": "newOwner",
          "type": "address"
        }
      ],
      "name": "addHouseHistoryThroughAccept",
      "outputs": [],
      "payable": false,
      "stateMutability": "nonpayable",
      "type": "function"
    },
    {
      "constant": true,
      "inputs": [
        {
          "internalType": "uint256",
          "name": "_houseId",
          "type": "uint256"
        }
      ],
      "name": "getHouseHistory",
      "outputs": [
        {
          "components": [
            {
              "internalType": "uint256",
              "name": "historyId",
              "type": "uint256"
            },
            {
              "internalType": "uint256",
              "name": "houseId",
              "type": "uint256"
            },
            {
              "internalType": "address",
              "name": "owner",
              "type": "address"
            },
            {
              "internalType": "string",
              "name": "title",
              "type": "string"
            },
            {
              "internalType": "string",
              "name": "desc",
              "type": "string"
            },
            {
              "internalType": "string",
              "name": "contractorName",
              "type": "string"
            },
            {
              "internalType": "uint256",
              "name": "historyDate",
              "type": "uint256"
            },
            {
              "internalType": "string",
              "name": "beforeImageHash",
              "type": "string"
            },
            {
              "internalType": "string",
              "name": "afterImageHash",
              "type": "string"
            }
          ],
          "internalType": "struct Sch.History[]",
          "name": "",
          "type": "tuple[]"
        },
        {
          "internalType": "uint256",
          "name": "",
          "type": "uint256"
        }
      ],
      "payable": false,
      "stateMutability": "view",
      "type": "function"
    },
    {
      "constant": false,
      "inputs": [
        {
          "internalType": "uint256",
          "name": "_houseId",
          "type": "uint256"
        },
        {
          "internalType": "uint256",
          "name": "hd",
          "type": "uint256"
        }
      ],
      "name": "requestHouse",
      "outputs": [],
      "payable": false,
      "stateMutability": "nonpayable",
      "type": "function"
    },
    {
      "constant": false,
      "inputs": [
        {
          "internalType": "uint256",
          "name": "_houseId",
          "type": "uint256"
        },
        {
          "internalType": "address",
          "name": "_newOwner",
          "type": "address"
        },
        {
          "internalType": "uint256",
          "name": "hd",
          "type": "uint256"
        }
      ],
      "name": "agreeHouse",
      "outputs": [],
      "payable": false,
      "stateMutability": "nonpayable",
      "type": "function"
    },
    {
      "constant": false,
      "inputs": [
        {
          "internalType": "uint256",
          "name": "_houseId",
          "type": "uint256"
        },
        {
          "internalType": "address",
          "name": "_newOwner",
          "type": "address"
        },
        {
          "internalType": "uint256",
          "name": "hd",
          "type": "uint256"
        }
      ],
      "name": "disAgreeHouse",
      "outputs": [],
      "payable": false,
      "stateMutability": "nonpayable",
      "type": "function"
    }
  ],
  "bytecode": "0x608060405234801561001057600080fd5b5060006001819055506000808190555061346e8061002f6000396000f3fe608060405234801561001057600080fd5b506004361061010a5760003560e01c806371d9e19e116100a2578063a53be72911610071578063a53be729146102da578063b175bac11461030a578063b3f603d11461033a578063bd74f8b11461036b578063e8566838146103895761010a565b806371d9e19e1461023957806375e6c70914610271578063801f89a7146102a25780639a20bd81146102be5761010a565b806330c8db5d116100de57806330c8db5d146101c75780633a9c9ffc146101e35780635e5505d7146102015780636e6c6b3a1461021d5761010a565b80623e6b811461010f578063036d096c1461012b57806326fbf7e01461015e57806328718e4c1461018f575b600080fd5b61012960048036036101249190810190612b89565b6103b9565b005b6101456004803603610140919081019061282f565b610638565b60405161015594939291906130ec565b60405180910390f35b6101786004803603610173919081019061292a565b61071a565b604051610186929190612fb6565b60405180910390f35b6101a960048036036101a4919081019061292a565b610b96565b6040516101be99989796959493929190613051565b60405180910390f35b6101e160048036036101dc919081019061286b565b610d6e565b005b6101eb611177565b6040516101f89190613036565b60405180910390f35b61021b60048036036102169190810190612a73565b61117d565b005b61023760048036036102329190810190612953565b611351565b005b610253600480360361024e9190810190612b89565b6114ce565b60405161026899989796959493929190613138565b60405180910390f35b61028b60048036036102869190810190612806565b61184e565b604051610299929190612fe6565b60405180910390f35b6102bc60048036036102b791908101906129a2565b611c15565b005b6102d860048036036102d39190810190612953565b611e23565b005b6102f460048036036102ef919081019061292a565b612194565b6040516103019190613036565b60405180910390f35b610324600480360361031f9190810190612806565b6121ac565b6040516103319190613036565b60405180910390f35b610354600480360361034f919081019061292a565b6121c4565b604051610362929190612fe6565b60405180910390f35b61037361255d565b6040516103809190613036565b60405180910390f35b6103a3600480360361039e9190810190612806565b612563565b6040516103b09190613036565b60405180910390f35b6000600283815481106103c857fe5b9060005260206000209060090201905060018160060160006101000a81548160ff021916908360018111156103f957fe5b0217905550338160080160006101000a81548173ffffffffffffffffffffffffffffffffffffffff021916908373ffffffffffffffffffffffffffffffffffffffff1602179055506060816001018054600181600116156101000203166002900480601f0160208091040260200160405190810160405280929190818152602001828054600181600116156101000203166002900480156104db5780601f106104b0576101008083540402835291602001916104db565b820191906000526020600020905b8154815290600101906020018083116104be57829003601f168201915b50505050509050603860003373ffffffffffffffffffffffffffffffffffffffff1673ffffffffffffffffffffffffffffffffffffffff168152602001908152602001600020604051806080016040528086815260200183815260200160008152602001858152509080600181540180825580915050906001820390600052602060002090600402016000909192909190915060008201518160000155602082015181600101908051906020019061059492919061257b565b5060408201518160020155606082015181600301555050506001603760003373ffffffffffffffffffffffffffffffffffffffff1673ffffffffffffffffffffffffffffffffffffffff1681526020019081526020016000205401603760003373ffffffffffffffffffffffffffffffffffffffff1673ffffffffffffffffffffffffffffffffffffffff1681526020019081526020016000208190555050505050565b6038602052816000526040600020818154811061065157fe5b906000526020600020906004020160009150915050806000015490806001018054600181600116156101000203166002900480601f0160208091040260200160405190810160405280929190818152602001828054600181600116156101000203166002900480156107045780601f106106d957610100808354040283529160200191610704565b820191906000526020600020905b8154815290600101906020018083116106e757829003601f168201915b5050505050908060020154908060030154905084565b60606000806002848154811061072c57fe5b9060005260206000209060090201905060008160070154905060608160405190808252806020026020018201604052801561078157816020015b61076e6125fb565b8152602001906001900390816107665790505b50905060008090505b82811015610b87576003876032811061079f57fe5b0181815481106107ab57fe5b90600052602060002090600902016040518061012001604052908160008201548152602001600182015481526020016002820160009054906101000a900473ffffffffffffffffffffffffffffffffffffffff1673ffffffffffffffffffffffffffffffffffffffff1673ffffffffffffffffffffffffffffffffffffffff168152602001600382018054600181600116156101000203166002900480601f0160208091040260200160405190810160405280929190818152602001828054600181600116156101000203166002900480156108c85780601f1061089d576101008083540402835291602001916108c8565b820191906000526020600020905b8154815290600101906020018083116108ab57829003601f168201915b50505050508152602001600482018054600181600116156101000203166002900480601f01602080910402602001604051908101604052809291908181526020018280546001816001161561010002031660029004801561096a5780601f1061093f5761010080835404028352916020019161096a565b820191906000526020600020905b81548152906001019060200180831161094d57829003601f168201915b50505050508152602001600582018054600181600116156101000203166002900480601f016020809104026020016040519081016040528092919081815260200182805460018160011615610100020316600290048015610a0c5780601f106109e157610100808354040283529160200191610a0c565b820191906000526020600020905b8154815290600101906020018083116109ef57829003601f168201915b5050505050815260200160068201548152602001600782018054600181600116156101000203166002900480601f016020809104026020016040519081016040528092919081815260200182805460018160011615610100020316600290048015610ab85780601f10610a8d57610100808354040283529160200191610ab8565b820191906000526020600020905b815481529060010190602001808311610a9b57829003601f168201915b50505050508152602001600882018054600181600116156101000203166002900480601f016020809104026020016040519081016040528092919081815260200182805460018160011615610100020316600290048015610b5a5780601f10610b2f57610100808354040283529160200191610b5a565b820191906000526020600020905b815481529060010190602001808311610b3d57829003601f168201915b505050505081525050828281518110610b6f57fe5b6020026020010181905250808060010191505061078a565b50808294509450505050915091565b60028181548110610ba357fe5b9060005260206000209060090201600091509050806000015490806001018054600181600116156101000203166002900480601f016020809104026020016040519081016040528092919081815260200182805460018160011615610100020316600290048015610c555780601f10610c2a57610100808354040283529160200191610c55565b820191906000526020600020905b815481529060010190602001808311610c3857829003601f168201915b5050505050908060020160009054906101000a900473ffffffffffffffffffffffffffffffffffffffff1690806003015490806004018054600181600116156101000203166002900480601f016020809104026020016040519081016040528092919081815260200182805460018160011615610100020316600290048015610d1f5780601f10610cf457610100808354040283529160200191610d1f565b820191906000526020600020905b815481529060010190602001808311610d0257829003601f168201915b5050505050908060050154908060060160009054906101000a900460ff16908060070154908060080160009054906101000a900473ffffffffffffffffffffffffffffffffffffffff16905089565b600260405180610120016040528060005481526020018781526020013373ffffffffffffffffffffffffffffffffffffffff16815260200186815260200185815260200184815260200160006001811115610dc557fe5b815260200160008152602001600073ffffffffffffffffffffffffffffffffffffffff1681525090806001815401808255809150509060018203906000526020600020906009020160009091929091909150600082015181600001556020820151816001019080519060200190610e3d92919061257b565b5060408201518160020160006101000a81548173ffffffffffffffffffffffffffffffffffffffff021916908373ffffffffffffffffffffffffffffffffffffffff160217905550606082015181600301556080820151816004019080519060200190610eab92919061257b565b5060a0820151816005015560c08201518160060160006101000a81548160ff02191690836001811115610eda57fe5b021790555060e082015181600701556101008201518160080160006101000a81548173ffffffffffffffffffffffffffffffffffffffff021916908373ffffffffffffffffffffffffffffffffffffffff160217905550505050610fc76000546040518060400160405280600c81526020017f4465706c6f792d486f7573650000000000000000000000000000000000000000815250604051806060016040528060278152602001613405602791396040518060400160405280600381526020017f2d2d2d000000000000000000000000000000000000000000000000000000000081525086868761117d565b60008081548092919060010191905055506000603560003373ffffffffffffffffffffffffffffffffffffffff1673ffffffffffffffffffffffffffffffffffffffff16815260200190815260200160002054141561106a576001603560003373ffffffffffffffffffffffffffffffffffffffff1673ffffffffffffffffffffffffffffffffffffffff168152602001908152602001600020819055506110fc565b6000603560003373ffffffffffffffffffffffffffffffffffffffff1673ffffffffffffffffffffffffffffffffffffffff168152602001908152602001600020549050808060010191505080603560003373ffffffffffffffffffffffffffffffffffffffff1673ffffffffffffffffffffffffffffffffffffffff16815260200190815260200160002081905550505b6000603660008681526020019081526020016000205414156111365760016036600086815260200190815260200160002081905550611170565b6000603660008681526020019081526020016000205490508080600101915050806036600087815260200190815260200160002081905550505b5050505050565b60015481565b6003876032811061118a57fe5b0160405180610120016040528060015481526020018981526020013373ffffffffffffffffffffffffffffffffffffffff1681526020018881526020018781526020018681526020018581526020018481526020018381525090806001815401808255809150509060018203906000526020600020906009020160009091929091909150600082015181600001556020820151816001015560408201518160020160006101000a81548173ffffffffffffffffffffffffffffffffffffffff021916908373ffffffffffffffffffffffffffffffffffffffff160217905550606082015181600301908051906020019061128592919061257b565b5060808201518160040190805190602001906112a292919061257b565b5060a08201518160050190805190602001906112bf92919061257b565b5060c0820151816006015560e08201518160070190805190602001906112e692919061257b565b5061010082015181600801908051906020019061130492919061257b565b505050506002878154811061131557fe5b90600052602060002090600902016007016000815480929190600101919050555060016000815480929190600101919050555050505050505050565b60006002848154811061136057fe5b9060005260206000209060090201905060008160060160006101000a81548160ff0219169083600181111561139157fe5b021790555060008160080160006101000a81548173ffffffffffffffffffffffffffffffffffffffff021916908373ffffffffffffffffffffffffffffffffffffffff1602179055506000603760008573ffffffffffffffffffffffffffffffffffffffff1673ffffffffffffffffffffffffffffffffffffffff16815260200190815260200160002054905060008090505b818110156114c6576000603860008773ffffffffffffffffffffffffffffffffffffffff1673ffffffffffffffffffffffffffffffffffffffff168152602001908152602001600020828154811061147857fe5b9060005260206000209060040201905086816000015414801561149f575060008160020154145b156114b857600281600201819055508481600301819055505b508080600101915050611424565b505050505050565b600382603281106114db57fe5b0181815481106114e757fe5b9060005260206000209060090201600091509150508060000154908060010154908060020160009054906101000a900473ffffffffffffffffffffffffffffffffffffffff1690806003018054600181600116156101000203166002900480601f0160208091040260200160405190810160405280929190818152602001828054600181600116156101000203166002900480156115c65780601f1061159b576101008083540402835291602001916115c6565b820191906000526020600020905b8154815290600101906020018083116115a957829003601f168201915b505050505090806004018054600181600116156101000203166002900480601f0160208091040260200160405190810160405280929190818152602001828054600181600116156101000203166002900480156116645780601f1061163957610100808354040283529160200191611664565b820191906000526020600020905b81548152906001019060200180831161164757829003601f168201915b505050505090806005018054600181600116156101000203166002900480601f0160208091040260200160405190810160405280929190818152602001828054600181600116156101000203166002900480156117025780601f106116d757610100808354040283529160200191611702565b820191906000526020600020905b8154815290600101906020018083116116e557829003601f168201915b505050505090806006015490806007018054600181600116156101000203166002900480601f0160208091040260200160405190810160405280929190818152602001828054600181600116156101000203166002900480156117a65780601f1061177b576101008083540402835291602001916117a6565b820191906000526020600020905b81548152906001019060200180831161178957829003601f168201915b505050505090806008018054600181600116156101000203166002900480601f0160208091040260200160405190810160405280929190818152602001828054600181600116156101000203166002900480156118445780601f1061181957610100808354040283529160200191611844565b820191906000526020600020905b81548152906001019060200180831161182757829003601f168201915b5050505050905089565b6060600080603560008573ffffffffffffffffffffffffffffffffffffffff1673ffffffffffffffffffffffffffffffffffffffff1681526020019081526020016000205490506060816040519080825280602002602001820160405280156118d157816020015b6118be61265d565b8152602001906001900390816118b65790505b509050600080905060008090505b600054811015611c06576000600282815481106118f857fe5b906000526020600020906009020190508773ffffffffffffffffffffffffffffffffffffffff168160020160009054906101000a900473ffffffffffffffffffffffffffffffffffffffff1673ffffffffffffffffffffffffffffffffffffffff161415611bf8576119686126e0565b6002838154811061197557fe5b90600052602060002090600902016040518061012001604052908160008201548152602001600182018054600181600116156101000203166002900480601f016020809104026020016040519081016040528092919081815260200182805460018160011615610100020316600290048015611a325780601f10611a0757610100808354040283529160200191611a32565b820191906000526020600020905b815481529060010190602001808311611a1557829003601f168201915b505050505081526020016002820160009054906101000a900473ffffffffffffffffffffffffffffffffffffffff1673ffffffffffffffffffffffffffffffffffffffff1673ffffffffffffffffffffffffffffffffffffffff16815260200160038201548152602001600482018054600181600116156101000203166002900480601f016020809104026020016040519081016040528092919081815260200182805460018160011615610100020316600290048015611b345780601f10611b0957610100808354040283529160200191611b34565b820191906000526020600020905b815481529060010190602001808311611b1757829003601f168201915b50505050508152602001600582015481526020016006820160009054906101000a900460ff166001811115611b6557fe5b6001811115611b7057fe5b8152602001600782015481526020016008820160009054906101000a900473ffffffffffffffffffffffffffffffffffffffff1673ffffffffffffffffffffffffffffffffffffffff1673ffffffffffffffffffffffffffffffffffffffff1681525050905080858581518110611be357fe5b60200260200101819052508380600101945050505b5080806001019150506118df565b50818194509450505050915091565b60606040518060400160405280600d81526020017f6e6f7420617661696c61626c6500000000000000000000000000000000000000815250905060038760328110611c5c57fe5b0160405180610120016040528060015481526020018981526020018473ffffffffffffffffffffffffffffffffffffffff1681526020018881526020018781526020018681526020018581526020018381526020018381525090806001815401808255809150509060018203906000526020600020906009020160009091929091909150600082015181600001556020820151816001015560408201518160020160006101000a81548173ffffffffffffffffffffffffffffffffffffffff021916908373ffffffffffffffffffffffffffffffffffffffff1602179055506060820151816003019080519060200190611d5792919061257b565b506080820151816004019080519060200190611d7492919061257b565b5060a0820151816005019080519060200190611d9192919061257b565b5060c0820151816006015560e0820151816007019080519060200190611db892919061257b565b50610100820151816008019080519060200190611dd692919061257b565b5050505060028781548110611de757fe5b90600052602060002090600902016007016000815480929190600101919050555060016000815480929190600101919050555050505050505050565b600060028481548110611e3257fe5b9060005260206000209060090201905060008160060160006101000a81548160ff02191690836001811115611e6357fe5b021790555060008160080160006101000a81548173ffffffffffffffffffffffffffffffffffffffff021916908373ffffffffffffffffffffffffffffffffffffffff1602179055506000603560003373ffffffffffffffffffffffffffffffffffffffff1673ffffffffffffffffffffffffffffffffffffffff16815260200190815260200160002054905060018103905080603560003373ffffffffffffffffffffffffffffffffffffffff1673ffffffffffffffffffffffffffffffffffffffff16815260200190815260200160002081905550603560008573ffffffffffffffffffffffffffffffffffffffff1673ffffffffffffffffffffffffffffffffffffffff16815260200190815260200160002054905060018101905080603560008673ffffffffffffffffffffffffffffffffffffffff1673ffffffffffffffffffffffffffffffffffffffff16815260200190815260200160002081905550838260020160006101000a81548173ffffffffffffffffffffffffffffffffffffffff021916908373ffffffffffffffffffffffffffffffffffffffff16021790555060606040518060600160405280603581526020016133d060359139905061209e866040518060400160405280601281526020017f4f776e657273686970205472616e736665720000000000000000000000000000815250836040518060400160405280600381526020017f2d2d2d0000000000000000000000000000000000000000000000000000000000815250888a611c15565b6000603760008773ffffffffffffffffffffffffffffffffffffffff1673ffffffffffffffffffffffffffffffffffffffff16815260200190815260200160002054905060008090505b8181101561218a576000603860008973ffffffffffffffffffffffffffffffffffffffff1673ffffffffffffffffffffffffffffffffffffffff168152602001908152602001600020828154811061213c57fe5b90600052602060002090600402019050888160000154148015612163575060008160020154145b1561217c57600181600201819055508681600301819055505b5080806001019150506120e8565b5050505050505050565b60366020528060005260406000206000915090505481565b60376020528060005260406000206000915090505481565b6060600080603660008581526020019081526020016000205490506000811415612223576040517f08c379a000000000000000000000000000000000000000000000000000000000815260040161221a90613016565b60405180910390fd5b60608160405190808252806020026020018201604052801561225f57816020015b61224c61265d565b8152602001906001900390816122445790505b509050600080905060008090505b60005481101561254e5760006002828154811061228657fe5b906000526020600020906009020190506000816003015490508881141561253f576122af6126e0565b600284815481106122bc57fe5b90600052602060002090600902016040518061012001604052908160008201548152602001600182018054600181600116156101000203166002900480601f0160208091040260200160405190810160405280929190818152602001828054600181600116156101000203166002900480156123795780601f1061234e57610100808354040283529160200191612379565b820191906000526020600020905b81548152906001019060200180831161235c57829003601f168201915b505050505081526020016002820160009054906101000a900473ffffffffffffffffffffffffffffffffffffffff1673ffffffffffffffffffffffffffffffffffffffff1673ffffffffffffffffffffffffffffffffffffffff16815260200160038201548152602001600482018054600181600116156101000203166002900480601f01602080910402602001604051908101604052809291908181526020018280546001816001161561010002031660029004801561247b5780601f106124505761010080835404028352916020019161247b565b820191906000526020600020905b81548152906001019060200180831161245e57829003601f168201915b50505050508152602001600582015481526020016006820160009054906101000a900460ff1660018111156124ac57fe5b60018111156124b757fe5b8152602001600782015481526020016008820160009054906101000a900473ffffffffffffffffffffffffffffffffffffffff1673ffffffffffffffffffffffffffffffffffffffff1673ffffffffffffffffffffffffffffffffffffffff168152505090508086868151811061252a57fe5b60200260200101819052508480600101955050505b5050808060010191505061226d565b50818194509450505050915091565b60005481565b60356020528060005260406000206000915090505481565b828054600181600116156101000203166002900490600052602060002090601f016020900481019282601f106125bc57805160ff19168380011785556125ea565b828001600101855582156125ea579182015b828111156125e95782518255916020019190600101906125ce565b5b5090506125f79190612763565b5090565b6040518061012001604052806000815260200160008152602001600073ffffffffffffffffffffffffffffffffffffffff1681526020016060815260200160608152602001606081526020016000815260200160608152602001606081525090565b6040518061012001604052806000815260200160608152602001600073ffffffffffffffffffffffffffffffffffffffff168152602001600081526020016060815260200160008152602001600060018111156126b657fe5b815260200160008152602001600073ffffffffffffffffffffffffffffffffffffffff1681525090565b6040518061012001604052806000815260200160608152602001600073ffffffffffffffffffffffffffffffffffffffff1681526020016000815260200160608152602001600081526020016000600181111561273957fe5b815260200160008152602001600073ffffffffffffffffffffffffffffffffffffffff1681525090565b61278591905b80821115612781576000816000905550600101612769565b5090565b90565b600081359050612797816133a1565b92915050565b600082601f8301126127ae57600080fd5b81356127c16127bc82613215565b6131e8565b915080825260208301602083018583830111156127dd57600080fd5b6127e8838284613341565b50505092915050565b600081359050612800816133b8565b92915050565b60006020828403121561281857600080fd5b600061282684828501612788565b91505092915050565b6000806040838503121561284257600080fd5b600061285085828601612788565b9250506020612861858286016127f1565b9150509250929050565b600080600080600060a0868803121561288357600080fd5b600086013567ffffffffffffffff81111561289d57600080fd5b6128a98882890161279d565b95505060206128ba888289016127f1565b945050604086013567ffffffffffffffff8111156128d757600080fd5b6128e38882890161279d565b93505060606128f4888289016127f1565b925050608086013567ffffffffffffffff81111561291157600080fd5b61291d8882890161279d565b9150509295509295909350565b60006020828403121561293c57600080fd5b600061294a848285016127f1565b91505092915050565b60008060006060848603121561296857600080fd5b6000612976868287016127f1565b935050602061298786828701612788565b9250506040612998868287016127f1565b9150509250925092565b60008060008060008060c087890312156129bb57600080fd5b60006129c989828a016127f1565b965050602087013567ffffffffffffffff8111156129e657600080fd5b6129f289828a0161279d565b955050604087013567ffffffffffffffff811115612a0f57600080fd5b612a1b89828a0161279d565b945050606087013567ffffffffffffffff811115612a3857600080fd5b612a4489828a0161279d565b9350506080612a5589828a016127f1565b92505060a0612a6689828a01612788565b9150509295509295509295565b600080600080600080600060e0888a031215612a8e57600080fd5b6000612a9c8a828b016127f1565b975050602088013567ffffffffffffffff811115612ab957600080fd5b612ac58a828b0161279d565b965050604088013567ffffffffffffffff811115612ae257600080fd5b612aee8a828b0161279d565b955050606088013567ffffffffffffffff811115612b0b57600080fd5b612b178a828b0161279d565b9450506080612b288a828b016127f1565b93505060a088013567ffffffffffffffff811115612b4557600080fd5b612b518a828b0161279d565b92505060c088013567ffffffffffffffff811115612b6e57600080fd5b612b7a8a828b0161279d565b91505092959891949750929550565b60008060408385031215612b9c57600080fd5b6000612baa858286016127f1565b9250506020612bbb858286016127f1565b9150509250929050565b6000612bd18383612deb565b905092915050565b6000612be58383612ecc565b905092915050565b612bf6816132e0565b82525050565b612c05816132e0565b82525050565b6000612c1682613261565b612c20818561329c565b935083602082028501612c3285613241565b8060005b85811015612c6e5784840389528151612c4f8582612bc5565b9450612c5a83613282565b925060208a01995050600181019050612c36565b50829750879550505050505092915050565b6000612c8b8261326c565b612c9581856132ad565b935083602082028501612ca785613251565b8060005b85811015612ce35784840389528151612cc48582612bd9565b9450612ccf8361328f565b925060208a01995050600181019050612cab565b50829750879550505050505092915050565b612cfe8161332f565b82525050565b612d0d8161332f565b82525050565b6000612d1e82613277565b612d2881856132be565b9350612d38818560208601613350565b612d4181613383565b840191505092915050565b6000612d5782613277565b612d6181856132cf565b9350612d71818560208601613350565b612d7a81613383565b840191505092915050565b6000612d926024836132cf565b91507f4e6f20686f7573657320617661696c616c6520666f7220676976656e2070696e60008301527f636f6465000000000000000000000000000000000000000000000000000000006020830152604082019050919050565b600061012083016000830151612e046000860182612f98565b506020830151612e176020860182612f98565b506040830151612e2a6040860182612bed565b5060608301518482036060860152612e428282612d13565b91505060808301518482036080860152612e5c8282612d13565b91505060a083015184820360a0860152612e768282612d13565b91505060c0830151612e8b60c0860182612f98565b5060e083015184820360e0860152612ea38282612d13565b915050610100830151848203610100860152612ebf8282612d13565b9150508091505092915050565b600061012083016000830151612ee56000860182612f98565b5060208301518482036020860152612efd8282612d13565b9150506040830151612f126040860182612bed565b506060830151612f256060860182612f98565b5060808301518482036080860152612f3d8282612d13565b91505060a0830151612f5260a0860182612f98565b5060c0830151612f6560c0860182612cf5565b5060e0830151612f7860e0860182612f98565b50610100830151612f8d610100860182612bed565b508091505092915050565b612fa181613325565b82525050565b612fb081613325565b82525050565b60006040820190508181036000830152612fd08185612c0b565b9050612fdf6020830184612fa7565b9392505050565b600060408201905081810360008301526130008185612c80565b905061300f6020830184612fa7565b9392505050565b6000602082019050818103600083015261302f81612d85565b9050919050565b600060208201905061304b6000830184612fa7565b92915050565b600061012082019050613067600083018c612fa7565b8181036020830152613079818b612d4c565b9050613088604083018a612bfc565b6130956060830189612fa7565b81810360808301526130a78188612d4c565b90506130b660a0830187612fa7565b6130c360c0830186612d04565b6130d060e0830185612fa7565b6130de610100830184612bfc565b9a9950505050505050505050565b60006080820190506131016000830187612fa7565b81810360208301526131138186612d4c565b90506131226040830185612fa7565b61312f6060830184612fa7565b95945050505050565b60006101208201905061314e600083018c612fa7565b61315b602083018b612fa7565b613168604083018a612bfc565b818103606083015261317a8189612d4c565b9050818103608083015261318e8188612d4c565b905081810360a08301526131a28187612d4c565b90506131b160c0830186612fa7565b81810360e08301526131c38185612d4c565b90508181036101008301526131d88184612d4c565b90509a9950505050505050505050565b6000604051905081810181811067ffffffffffffffff8211171561320b57600080fd5b8060405250919050565b600067ffffffffffffffff82111561322c57600080fd5b601f19601f8301169050602081019050919050565b6000819050602082019050919050565b6000819050602082019050919050565b600081519050919050565b600081519050919050565b600081519050919050565b6000602082019050919050565b6000602082019050919050565b600082825260208201905092915050565b600082825260208201905092915050565b600082825260208201905092915050565b600082825260208201905092915050565b60006132eb82613305565b9050919050565b600081905061330082613394565b919050565b600073ffffffffffffffffffffffffffffffffffffffff82169050919050565b6000819050919050565b600061333a826132f2565b9050919050565b82818337600083830152505050565b60005b8381101561336e578082015181840152602081019050613353565b8381111561337d576000848401525b50505050565b6000601f19601f8301169050919050565b6002811061339e57fe5b50565b6133aa816132e0565b81146133b557600080fd5b50565b6133c181613325565b81146133cc57600080fd5b5056fe7472616e736665722074616b657320706c6163652066726f6d2070726576696f7573206f776e657220746f206e6577206f776e65725468697320686f75736520776173206465706c6f796564206f6e20676976656e20646174652021a365627a7a723158206c89824c5ae5f801cc3dd579d828c4ab527e3dd4a592ced0b6e4a71eabd06e3d6c6578706572696d656e74616cf564736f6c63430005100040",
  "source": "// SPDX-License-Identifier: MIT\r\npragma solidity >=0.4.22 <0.8.0;\r\npragma experimental ABIEncoderV2;\r\n\r\ncontract Sch {\r\n \r\n uint public houseCount;\r\n uint public historyCount;\r\n\r\n\r\n \r\nstruct History{\r\n    uint historyId;\r\n    uint houseId;\r\n    address owner;\r\n    string title;\r\n    string desc;\r\n    string contractorName;\r\n    uint256 historyDate;\r\n    string beforeImageHash;\r\n    string afterImageHash;\r\n\r\n\r\n\r\n}\r\n\r\nenum HouseStatus{\r\n    Available,\r\n    Requested\r\n    \r\n}\r\n\r\nHouseStatus constant defaultChoice=HouseStatus.Available;\r\n\r\n\r\n\r\nstruct House{\r\n     uint houseId;\r\n     string name;\r\n     address currentOwner;\r\n     uint256 pinCode;\r\n     string houseAddress;\r\n     uint256 houseDate;\r\n     HouseStatus houseStatus;\r\n     uint  totalHistoryCount;\r\n     address RequestedUser;\r\n     \r\n    \r\n\r\n }\r\n\r\n struct OutgoingRequest{\r\n     uint houseId;\r\n     string houseName;\r\n     uint status;                //0-> pending  1->accepted   2->rejected\r\n     uint256 dateOfReq;\r\n }\r\n\r\nHouse [] public house;\r\nHistory [][50] public history;\r\n\r\n\r\nmapping(address=>uint) public getHousesByOwnerCount;\r\nmapping(uint256=>uint) public getHousesByPincodeCount;\r\n\r\n//outgoing request\r\nmapping(address=>uint)public  OutgoingRequestMapCount;\r\nmapping(address=>OutgoingRequest[]) public OutgoingRequestMap;\r\n\r\n\r\n\r\nconstructor() public{\r\n    \r\n    historyCount=0;\r\n    houseCount=0;\r\n    \r\n    \r\n   \r\n\r\n}\r\n\r\n\r\n\r\nfunction addHouse(string memory nm,uint256 pc,string memory ha,uint256 hd,string memory _imageHash) public{\r\n   \r\n    house.push(House(houseCount,nm,msg.sender,pc,ha,hd,HouseStatus.Available,0,address(0x0)));\r\n    \r\n    \r\n    addHouseHistory(houseCount,\"Deploy-House\",\"This house was deployed on given date !\",\"---\",hd,_imageHash,_imageHash);\r\n    houseCount++;\r\n    \r\n    if(getHousesByOwnerCount[msg.sender]==0){\r\n        \r\n        getHousesByOwnerCount[msg.sender]=1;\r\n    }\r\n    else{\r\n        uint a=getHousesByOwnerCount[msg.sender];\r\n        a++;\r\n        getHousesByOwnerCount[msg.sender]=a;\r\n        \r\n    }\r\n    \r\n      \r\n    if(getHousesByPincodeCount[pc]==0){\r\n        \r\n        getHousesByPincodeCount[pc]=1;\r\n    }\r\n    else{\r\n        \r\n        uint a=getHousesByPincodeCount[pc];\r\n        a++;\r\n        getHousesByPincodeCount[pc]=a;\r\n        \r\n    }\r\n\r\n    \r\n\r\n    \r\n}  \r\n\r\n\r\nfunction getHousesByOwner(address _owner)public view returns(House[] memory ,uint){\r\n     \r\n     uint cnt=getHousesByOwnerCount[address(_owner)];\r\n\r\n    // require(cnt!=0,\"No houses availale for given owner\");\r\n     \r\n     House[] memory retHouse=new House[](cnt);\r\n     uint retHouseCount=0;\r\n     \r\n     for(uint i=0;i<houseCount;i++)\r\n     {\r\n         House storage temHouse=house[i];\r\n         if(address(temHouse.currentOwner)==address(_owner))\r\n         {\r\n             House memory temHouse1=house[i];\r\n             retHouse[retHouseCount]=temHouse1;\r\n             retHouseCount++;\r\n             \r\n         }\r\n     }\r\n     \r\n     return(retHouse,retHouseCount);\r\n     \r\n}\r\n\r\n\r\nfunction getHousesByPincode(uint256 _pinCode)public view returns(House[] memory,uint){\r\n    \r\n    \r\n    uint cnt=getHousesByPincodeCount[_pinCode];\r\n\r\n    require(cnt!=0,\"No houses availale for given pincode\");\r\n\r\n    House[] memory retHouse=new House[](cnt);\r\n    uint retHouseCount=0;\r\n    \r\n     for(uint i=0;i<houseCount;i++)\r\n     {\r\n         House storage temHouse=house[i];\r\n         uint256 pin=temHouse.pinCode;\r\n         if(pin==_pinCode)\r\n         {\r\n             House memory temHouse1=house[i];\r\n             retHouse[retHouseCount]=temHouse1;\r\n             retHouseCount++;\r\n             \r\n         }\r\n     }\r\n    \r\n    \r\n    return(retHouse,retHouseCount);\r\n}\r\n\r\n\r\nfunction addHouseHistory(uint _houseId,string memory title,string memory desc,string memory cn,uint256 hd,string memory _befImgHash,string memory _aftImgHash) public {\r\n  \r\n    \r\n    history[_houseId].push(History(historyCount,_houseId,msg.sender,title,desc,cn,hd,_befImgHash,_aftImgHash));\r\n    house[_houseId].totalHistoryCount++;\r\n    historyCount++;\r\n} \r\n\r\nfunction addHouseHistoryThroughAccept(uint _houseId,string memory title,string memory desc,string memory cn,uint256 hd,address newOwner) public {\r\n  \r\n    string memory t1=\"not available\";\r\n    history[_houseId].push(History(historyCount,_houseId,newOwner,title,desc,cn,hd,t1,t1));\r\n    house[_houseId].totalHistoryCount++;\r\n    historyCount++;\r\n} \r\n\r\nfunction getHouseHistory(uint _houseId)public view returns(History[] memory,uint){\r\n    \r\n    House storage _temHouse=house[_houseId];\r\n    uint  _totalHistoryCount=_temHouse.totalHistoryCount;\r\n    History[] memory _history=new History[](_totalHistoryCount);\r\n    \r\n    for(uint i=0;i<_totalHistoryCount;i++)\r\n    {\r\n        _history[i]=history[_houseId][i];\r\n    }\r\n   \r\n    return(_history,_totalHistoryCount);\r\n    \r\n}\r\n\r\nfunction requestHouse(uint _houseId,uint256 hd)public {\r\n\r\n    House storage _temHouse=house[_houseId];\r\n    _temHouse.houseStatus=HouseStatus.Requested;\r\n    _temHouse.RequestedUser=address(msg.sender);\r\n\r\n    string memory houseName= _temHouse.name;\r\n\r\n    OutgoingRequestMap[address(msg.sender)].push(OutgoingRequest(_houseId,houseName,0,hd));\r\n    OutgoingRequestMapCount[address(msg.sender)]=OutgoingRequestMapCount[address(msg.sender)]+1;\r\n}\r\n\r\nfunction agreeHouse(uint _houseId ,address _newOwner,uint256 hd)public {\r\n\r\n    House storage _temHouse=house[_houseId];\r\n    _temHouse.houseStatus=HouseStatus.Available;\r\n    _temHouse.RequestedUser=address(0x0);\r\n\r\n    uint cnt=getHousesByOwnerCount[address(msg.sender)];\r\n    cnt=cnt-1;\r\n    getHousesByOwnerCount[address(msg.sender)]=cnt;\r\n\r\n    cnt=getHousesByOwnerCount[_newOwner];\r\n    cnt=cnt+1;\r\n    getHousesByOwnerCount[_newOwner]=cnt;\r\n\r\n    _temHouse.currentOwner=_newOwner;\r\n    \r\n    string memory desc=\"transfer takes place from previous owner to new owner\";\r\n    addHouseHistoryThroughAccept(_houseId,\"Ownership Transfer\",desc,\"---\",hd,_newOwner); \r\n\r\n    //outgoing request handler\r\n\r\n    uint count=OutgoingRequestMapCount[address(_newOwner)];\r\n\r\n    for(uint i=0;i<count;i++){\r\n\r\n        OutgoingRequest storage outgoingstruct=OutgoingRequestMap[address(_newOwner)][i];\r\n        if(outgoingstruct.houseId==_houseId && outgoingstruct.status==0){\r\n\r\n            outgoingstruct.status=1;\r\n            outgoingstruct.dateOfReq=hd;\r\n        }\r\n    }\r\n    \r\n    \r\n}\r\n\r\n\r\nfunction disAgreeHouse(uint _houseId,address _newOwner,uint256 hd)public {\r\n\r\n    House storage _temHouse=house[_houseId];\r\n    _temHouse.houseStatus=HouseStatus.Available;\r\n    _temHouse.RequestedUser=address(0x0);\r\n\r\n    //outgoing request handler\r\n    uint count=OutgoingRequestMapCount[address(_newOwner)];\r\n\r\n    for(uint i=0;i<count;i++){\r\n\r\n        OutgoingRequest storage outgoingstruct=OutgoingRequestMap[address(_newOwner)][i];\r\n        if(outgoingstruct.houseId==_houseId && outgoingstruct.status==0){\r\n\r\n            outgoingstruct.status=2;\r\n             outgoingstruct.dateOfReq=hd;\r\n        }\r\n    }\r\n\r\n}\r\n\r\n}\r\n\r\n\r\n\r\n",
  "sourcePath": "E:/react/selfconcioushouse/src/contracts/Sch.sol",
  "compiler": {
    "name": "solc",
    "version": "0.5.16+commit.9c3226ce.Emscripten.clang"
  },
  "schemaVersion": "3.2.3",
  "updatedAt": "2020-10-16T09:12:34.052Z",
  "devdoc": {
    "methods": {}
  },
  "userdoc": {
    "methods": {}
  }
}