{
  "contractName": "Sch",
  "abi": [
    {
      "inputs": [],
      "payable": false,
      "stateMutability": "nonpayable",
      "type": "constructor"
    },
    {
      "constant": true,
      "inputs": [
        {
          "internalType": "address",
          "name": "",
          "type": "address"
        }
      ],
      "name": "getHousesByOwnerCount",
      "outputs": [
        {
          "internalType": "uint256",
          "name": "",
          "type": "uint256"
        }
      ],
      "payable": false,
      "stateMutability": "view",
      "type": "function"
    },
    {
      "constant": true,
      "inputs": [
        {
          "internalType": "uint256",
          "name": "",
          "type": "uint256"
        }
      ],
      "name": "getHousesByPincodeCount",
      "outputs": [
        {
          "internalType": "uint256",
          "name": "",
          "type": "uint256"
        }
      ],
      "payable": false,
      "stateMutability": "view",
      "type": "function"
    },
    {
      "constant": true,
      "inputs": [
        {
          "internalType": "uint256",
          "name": "",
          "type": "uint256"
        },
        {
          "internalType": "uint256",
          "name": "",
          "type": "uint256"
        }
      ],
      "name": "history",
      "outputs": [
        {
          "internalType": "uint256",
          "name": "historyId",
          "type": "uint256"
        },
        {
          "internalType": "uint256",
          "name": "houseId",
          "type": "uint256"
        },
        {
          "internalType": "address",
          "name": "owner",
          "type": "address"
        },
        {
          "internalType": "string",
          "name": "title",
          "type": "string"
        },
        {
          "internalType": "string",
          "name": "desc",
          "type": "string"
        },
        {
          "internalType": "string",
          "name": "contractorName",
          "type": "string"
        },
        {
          "internalType": "uint256",
          "name": "historyDate",
          "type": "uint256"
        }
      ],
      "payable": false,
      "stateMutability": "view",
      "type": "function"
    },
    {
      "constant": true,
      "inputs": [],
      "name": "historyCount",
      "outputs": [
        {
          "internalType": "uint256",
          "name": "",
          "type": "uint256"
        }
      ],
      "payable": false,
      "stateMutability": "view",
      "type": "function"
    },
    {
      "constant": true,
      "inputs": [
        {
          "internalType": "uint256",
          "name": "",
          "type": "uint256"
        }
      ],
      "name": "house",
      "outputs": [
        {
          "internalType": "uint256",
          "name": "houseId",
          "type": "uint256"
        },
        {
          "internalType": "string",
          "name": "name",
          "type": "string"
        },
        {
          "internalType": "address",
          "name": "currentOwner",
          "type": "address"
        },
        {
          "internalType": "uint256",
          "name": "pinCode",
          "type": "uint256"
        },
        {
          "internalType": "string",
          "name": "houseAddress",
          "type": "string"
        },
        {
          "internalType": "uint256",
          "name": "houseDate",
          "type": "uint256"
        },
        {
          "internalType": "enum Sch.HouseStatus",
          "name": "houseStatus",
          "type": "uint8"
        },
        {
          "internalType": "uint256",
          "name": "totalHistoryCount",
          "type": "uint256"
        },
        {
          "internalType": "address",
          "name": "RequestedUser",
          "type": "address"
        }
      ],
      "payable": false,
      "stateMutability": "view",
      "type": "function"
    },
    {
      "constant": true,
      "inputs": [],
      "name": "houseCount",
      "outputs": [
        {
          "internalType": "uint256",
          "name": "",
          "type": "uint256"
        }
      ],
      "payable": false,
      "stateMutability": "view",
      "type": "function"
    },
    {
      "constant": false,
      "inputs": [
        {
          "internalType": "string",
          "name": "nm",
          "type": "string"
        },
        {
          "internalType": "uint256",
          "name": "pc",
          "type": "uint256"
        },
        {
          "internalType": "string",
          "name": "ha",
          "type": "string"
        },
        {
          "internalType": "uint256",
          "name": "hd",
          "type": "uint256"
        }
      ],
      "name": "addHouse",
      "outputs": [],
      "payable": false,
      "stateMutability": "nonpayable",
      "type": "function"
    },
    {
      "constant": true,
      "inputs": [
        {
          "internalType": "address",
          "name": "_owner",
          "type": "address"
        }
      ],
      "name": "getHousesByOwner",
      "outputs": [
        {
          "components": [
            {
              "internalType": "uint256",
              "name": "houseId",
              "type": "uint256"
            },
            {
              "internalType": "string",
              "name": "name",
              "type": "string"
            },
            {
              "internalType": "address",
              "name": "currentOwner",
              "type": "address"
            },
            {
              "internalType": "uint256",
              "name": "pinCode",
              "type": "uint256"
            },
            {
              "internalType": "string",
              "name": "houseAddress",
              "type": "string"
            },
            {
              "internalType": "uint256",
              "name": "houseDate",
              "type": "uint256"
            },
            {
              "internalType": "enum Sch.HouseStatus",
              "name": "houseStatus",
              "type": "uint8"
            },
            {
              "internalType": "uint256",
              "name": "totalHistoryCount",
              "type": "uint256"
            },
            {
              "internalType": "address",
              "name": "RequestedUser",
              "type": "address"
            }
          ],
          "internalType": "struct Sch.House[]",
          "name": "",
          "type": "tuple[]"
        },
        {
          "internalType": "uint256",
          "name": "",
          "type": "uint256"
        }
      ],
      "payable": false,
      "stateMutability": "view",
      "type": "function"
    },
    {
      "constant": true,
      "inputs": [
        {
          "internalType": "uint256",
          "name": "_pinCode",
          "type": "uint256"
        }
      ],
      "name": "getHousesByPincode",
      "outputs": [
        {
          "components": [
            {
              "internalType": "uint256",
              "name": "houseId",
              "type": "uint256"
            },
            {
              "internalType": "string",
              "name": "name",
              "type": "string"
            },
            {
              "internalType": "address",
              "name": "currentOwner",
              "type": "address"
            },
            {
              "internalType": "uint256",
              "name": "pinCode",
              "type": "uint256"
            },
            {
              "internalType": "string",
              "name": "houseAddress",
              "type": "string"
            },
            {
              "internalType": "uint256",
              "name": "houseDate",
              "type": "uint256"
            },
            {
              "internalType": "enum Sch.HouseStatus",
              "name": "houseStatus",
              "type": "uint8"
            },
            {
              "internalType": "uint256",
              "name": "totalHistoryCount",
              "type": "uint256"
            },
            {
              "internalType": "address",
              "name": "RequestedUser",
              "type": "address"
            }
          ],
          "internalType": "struct Sch.House[]",
          "name": "",
          "type": "tuple[]"
        },
        {
          "internalType": "uint256",
          "name": "",
          "type": "uint256"
        }
      ],
      "payable": false,
      "stateMutability": "view",
      "type": "function"
    },
    {
      "constant": false,
      "inputs": [
        {
          "internalType": "uint256",
          "name": "_houseId",
          "type": "uint256"
        },
        {
          "internalType": "string",
          "name": "title",
          "type": "string"
        },
        {
          "internalType": "string",
          "name": "desc",
          "type": "string"
        },
        {
          "internalType": "string",
          "name": "cn",
          "type": "string"
        },
        {
          "internalType": "uint256",
          "name": "hd",
          "type": "uint256"
        }
      ],
      "name": "addHouseHistory",
      "outputs": [],
      "payable": false,
      "stateMutability": "nonpayable",
      "type": "function"
    },
    {
      "constant": true,
      "inputs": [
        {
          "internalType": "uint256",
          "name": "_houseId",
          "type": "uint256"
        }
      ],
      "name": "getHouseHistory",
      "outputs": [
        {
          "components": [
            {
              "internalType": "uint256",
              "name": "historyId",
              "type": "uint256"
            },
            {
              "internalType": "uint256",
              "name": "houseId",
              "type": "uint256"
            },
            {
              "internalType": "address",
              "name": "owner",
              "type": "address"
            },
            {
              "internalType": "string",
              "name": "title",
              "type": "string"
            },
            {
              "internalType": "string",
              "name": "desc",
              "type": "string"
            },
            {
              "internalType": "string",
              "name": "contractorName",
              "type": "string"
            },
            {
              "internalType": "uint256",
              "name": "historyDate",
              "type": "uint256"
            }
          ],
          "internalType": "struct Sch.History[]",
          "name": "",
          "type": "tuple[]"
        },
        {
          "internalType": "uint256",
          "name": "",
          "type": "uint256"
        }
      ],
      "payable": false,
      "stateMutability": "view",
      "type": "function"
    },
    {
      "constant": false,
      "inputs": [
        {
          "internalType": "uint256",
          "name": "_houseId",
          "type": "uint256"
        }
      ],
      "name": "requestHouse",
      "outputs": [],
      "payable": false,
      "stateMutability": "nonpayable",
      "type": "function"
    }
  ],
  "bytecode": "0x608060405234801561001057600080fd5b506000600181905550600080819055506123d68061002f6000396000f3fe608060405234801561001057600080fd5b50600436106100b45760003560e01c806375e6c7091161007157806375e6c709146101ae578063a53be729146101df578063b278a1e81461020f578063b3f603d11461022b578063bd74f8b11461025c578063e85668381461027a576100b4565b8063195d0edf146100b957806326fbf7e0146100d557806328718e4c146101065780633a9c9ffc1461013e578063600f11cc1461015c57806371d9e19e14610178575b600080fd5b6100d360048036036100ce9190810190611a5a565b6102aa565b005b6100ef60048036036100ea9190810190611aed565b6106b0565b6040516100fd929190611fcb565b60405180910390f35b610120600480360361011b9190810190611aed565b6109e7565b60405161013599989796959493929190612066565b60405180910390f35b610146610bbf565b604051610153919061204b565b60405180910390f35b61017660048036036101719190810190611b16565b610bc5565b005b610192600480360361018d9190810190611bd5565b610d4f565b6040516101a59796959493929190612101565b60405180910390f35b6101c860048036036101c39190810190611a31565b610f93565b6040516101d6929190611ffb565b60405180910390f35b6101f960048036036101f49190810190611aed565b61135a565b604051610206919061204b565b60405180910390f35b61022960048036036102249190810190611aed565b611372565b005b61024560048036036102409190810190611aed565b6113fe565b604051610253929190611ffb565b60405180910390f35b610264611797565b604051610271919061204b565b60405180910390f35b610294600480360361028f9190810190611a31565b61179d565b6040516102a1919061204b565b60405180910390f35b600260405180610120016040528060005481526020018681526020013373ffffffffffffffffffffffffffffffffffffffff1681526020018581526020018481526020018381526020016000600181111561030157fe5b815260200160008152602001600073ffffffffffffffffffffffffffffffffffffffff16815250908060018154018082558091505090600182039060005260206000209060090201600090919290919091506000820151816000015560208201518160010190805190602001906103799291906117b5565b5060408201518160020160006101000a81548173ffffffffffffffffffffffffffffffffffffffff021916908373ffffffffffffffffffffffffffffffffffffffff1602179055506060820151816003015560808201518160040190805190602001906103e79291906117b5565b5060a0820151816005015560c08201518160060160006101000a81548160ff0219169083600181111561041657fe5b021790555060e082015181600701556101008201518160080160006101000a81548173ffffffffffffffffffffffffffffffffffffffff021916908373ffffffffffffffffffffffffffffffffffffffff1602179055505050506105016000546040518060400160405280600c81526020017f4465706c6f792d486f757365000000000000000000000000000000000000000081525060405180606001604052806027815260200161236d602791396040518060400160405280601681526020017f6e6f20636f6e74726163746f7220617661696c616c650000000000000000000081525085610bc5565b60008081548092919060010191905055506000601760003373ffffffffffffffffffffffffffffffffffffffff1673ffffffffffffffffffffffffffffffffffffffff1681526020019081526020016000205414156105a4576001601760003373ffffffffffffffffffffffffffffffffffffffff1673ffffffffffffffffffffffffffffffffffffffff16815260200190815260200160002081905550610636565b6000601760003373ffffffffffffffffffffffffffffffffffffffff1673ffffffffffffffffffffffffffffffffffffffff168152602001908152602001600020549050808060010191505080601760003373ffffffffffffffffffffffffffffffffffffffff1673ffffffffffffffffffffffffffffffffffffffff16815260200190815260200160002081905550505b60006018600085815260200190815260200160002054141561067057600160186000858152602001908152602001600020819055506106aa565b6000601860008581526020019081526020016000205490508080600101915050806018600086815260200190815260200160002081905550505b50505050565b6060600080600284815481106106c257fe5b9060005260206000209060090201905060008160070154905060608160405190808252806020026020018201604052801561071757816020015b610704611835565b8152602001906001900390816106fc5790505b50905060008090505b828110156109d8576003876014811061073557fe5b01818154811061074157fe5b90600052602060002090600702016040518060e001604052908160008201548152602001600182015481526020016002820160009054906101000a900473ffffffffffffffffffffffffffffffffffffffff1673ffffffffffffffffffffffffffffffffffffffff1673ffffffffffffffffffffffffffffffffffffffff168152602001600382018054600181600116156101000203166002900480601f01602080910402602001604051908101604052809291908181526020018280546001816001161561010002031660029004801561085d5780601f106108325761010080835404028352916020019161085d565b820191906000526020600020905b81548152906001019060200180831161084057829003601f168201915b50505050508152602001600482018054600181600116156101000203166002900480601f0160208091040260200160405190810160405280929190818152602001828054600181600116156101000203166002900480156108ff5780601f106108d4576101008083540402835291602001916108ff565b820191906000526020600020905b8154815290600101906020018083116108e257829003601f168201915b50505050508152602001600582018054600181600116156101000203166002900480601f0160208091040260200160405190810160405280929190818152602001828054600181600116156101000203166002900480156109a15780601f10610976576101008083540402835291602001916109a1565b820191906000526020600020905b81548152906001019060200180831161098457829003601f168201915b505050505081526020016006820154815250508282815181106109c057fe5b60200260200101819052508080600101915050610720565b50808294509450505050915091565b600281815481106109f457fe5b9060005260206000209060090201600091509050806000015490806001018054600181600116156101000203166002900480601f016020809104026020016040519081016040528092919081815260200182805460018160011615610100020316600290048015610aa65780601f10610a7b57610100808354040283529160200191610aa6565b820191906000526020600020905b815481529060010190602001808311610a8957829003601f168201915b5050505050908060020160009054906101000a900473ffffffffffffffffffffffffffffffffffffffff1690806003015490806004018054600181600116156101000203166002900480601f016020809104026020016040519081016040528092919081815260200182805460018160011615610100020316600290048015610b705780601f10610b4557610100808354040283529160200191610b70565b820191906000526020600020905b815481529060010190602001808311610b5357829003601f168201915b5050505050908060050154908060060160009054906101000a900460ff16908060070154908060080160009054906101000a900473ffffffffffffffffffffffffffffffffffffffff16905089565b60015481565b60038560148110610bd257fe5b016040518060e0016040528060015481526020018781526020013373ffffffffffffffffffffffffffffffffffffffff1681526020018681526020018581526020018481526020018381525090806001815401808255809150509060018203906000526020600020906007020160009091929091909150600082015181600001556020820151816001015560408201518160020160006101000a81548173ffffffffffffffffffffffffffffffffffffffff021916908373ffffffffffffffffffffffffffffffffffffffff1602179055506060820151816003019080519060200190610cc09291906117b5565b506080820151816004019080519060200190610cdd9291906117b5565b5060a0820151816005019080519060200190610cfa9291906117b5565b5060c0820151816006015550505060028581548110610d1557fe5b9060005260206000209060090201600701600081548092919060010191905055506001600081548092919060010191905055505050505050565b60038260148110610d5c57fe5b018181548110610d6857fe5b9060005260206000209060070201600091509150508060000154908060010154908060020160009054906101000a900473ffffffffffffffffffffffffffffffffffffffff1690806003018054600181600116156101000203166002900480601f016020809104026020016040519081016040528092919081815260200182805460018160011615610100020316600290048015610e475780601f10610e1c57610100808354040283529160200191610e47565b820191906000526020600020905b815481529060010190602001808311610e2a57829003601f168201915b505050505090806004018054600181600116156101000203166002900480601f016020809104026020016040519081016040528092919081815260200182805460018160011615610100020316600290048015610ee55780601f10610eba57610100808354040283529160200191610ee5565b820191906000526020600020905b815481529060010190602001808311610ec857829003601f168201915b505050505090806005018054600181600116156101000203166002900480601f016020809104026020016040519081016040528092919081815260200182805460018160011615610100020316600290048015610f835780601f10610f5857610100808354040283529160200191610f83565b820191906000526020600020905b815481529060010190602001808311610f6657829003601f168201915b5050505050908060060154905087565b6060600080601760008573ffffffffffffffffffffffffffffffffffffffff1673ffffffffffffffffffffffffffffffffffffffff16815260200190815260200160002054905060608160405190808252806020026020018201604052801561101657816020015b611003611888565b815260200190600190039081610ffb5790505b509050600080905060008090505b60005481101561134b5760006002828154811061103d57fe5b906000526020600020906009020190508773ffffffffffffffffffffffffffffffffffffffff168160020160009054906101000a900473ffffffffffffffffffffffffffffffffffffffff1673ffffffffffffffffffffffffffffffffffffffff16141561133d576110ad61190b565b600283815481106110ba57fe5b90600052602060002090600902016040518061012001604052908160008201548152602001600182018054600181600116156101000203166002900480601f0160208091040260200160405190810160405280929190818152602001828054600181600116156101000203166002900480156111775780601f1061114c57610100808354040283529160200191611177565b820191906000526020600020905b81548152906001019060200180831161115a57829003601f168201915b505050505081526020016002820160009054906101000a900473ffffffffffffffffffffffffffffffffffffffff1673ffffffffffffffffffffffffffffffffffffffff1673ffffffffffffffffffffffffffffffffffffffff16815260200160038201548152602001600482018054600181600116156101000203166002900480601f0160208091040260200160405190810160405280929190818152602001828054600181600116156101000203166002900480156112795780601f1061124e57610100808354040283529160200191611279565b820191906000526020600020905b81548152906001019060200180831161125c57829003601f168201915b50505050508152602001600582015481526020016006820160009054906101000a900460ff1660018111156112aa57fe5b60018111156112b557fe5b8152602001600782015481526020016008820160009054906101000a900473ffffffffffffffffffffffffffffffffffffffff1673ffffffffffffffffffffffffffffffffffffffff1673ffffffffffffffffffffffffffffffffffffffff168152505090508085858151811061132857fe5b60200260200101819052508380600101945050505b508080600101915050611024565b50818194509450505050915091565b60186020528060005260406000206000915090505481565b60006002828154811061138157fe5b9060005260206000209060090201905060018160060160006101000a81548160ff021916908360018111156113b257fe5b0217905550338160080160006101000a81548173ffffffffffffffffffffffffffffffffffffffff021916908373ffffffffffffffffffffffffffffffffffffffff1602179055505050565b606060008060186000858152602001908152602001600020549050600081141561145d576040517f08c379a00000000000000000000000000000000000000000000000000000000081526004016114549061202b565b60405180910390fd5b60608160405190808252806020026020018201604052801561149957816020015b611486611888565b81526020019060019003908161147e5790505b509050600080905060008090505b600054811015611788576000600282815481106114c057fe5b9060005260206000209060090201905060008160030154905088811415611779576114e961190b565b600284815481106114f657fe5b90600052602060002090600902016040518061012001604052908160008201548152602001600182018054600181600116156101000203166002900480601f0160208091040260200160405190810160405280929190818152602001828054600181600116156101000203166002900480156115b35780601f10611588576101008083540402835291602001916115b3565b820191906000526020600020905b81548152906001019060200180831161159657829003601f168201915b505050505081526020016002820160009054906101000a900473ffffffffffffffffffffffffffffffffffffffff1673ffffffffffffffffffffffffffffffffffffffff1673ffffffffffffffffffffffffffffffffffffffff16815260200160038201548152602001600482018054600181600116156101000203166002900480601f0160208091040260200160405190810160405280929190818152602001828054600181600116156101000203166002900480156116b55780601f1061168a576101008083540402835291602001916116b5565b820191906000526020600020905b81548152906001019060200180831161169857829003601f168201915b50505050508152602001600582015481526020016006820160009054906101000a900460ff1660018111156116e657fe5b60018111156116f157fe5b8152602001600782015481526020016008820160009054906101000a900473ffffffffffffffffffffffffffffffffffffffff1673ffffffffffffffffffffffffffffffffffffffff1673ffffffffffffffffffffffffffffffffffffffff168152505090508086868151811061176457fe5b60200260200101819052508480600101955050505b505080806001019150506114a7565b50818194509450505050915091565b60005481565b60176020528060005260406000206000915090505481565b828054600181600116156101000203166002900490600052602060002090601f016020900481019282601f106117f657805160ff1916838001178555611824565b82800160010185558215611824579182015b82811115611823578251825591602001919060010190611808565b5b509050611831919061198e565b5090565b6040518060e001604052806000815260200160008152602001600073ffffffffffffffffffffffffffffffffffffffff168152602001606081526020016060815260200160608152602001600081525090565b6040518061012001604052806000815260200160608152602001600073ffffffffffffffffffffffffffffffffffffffff168152602001600081526020016060815260200160008152602001600060018111156118e157fe5b815260200160008152602001600073ffffffffffffffffffffffffffffffffffffffff1681525090565b6040518061012001604052806000815260200160608152602001600073ffffffffffffffffffffffffffffffffffffffff1681526020016000815260200160608152602001600081526020016000600181111561196457fe5b815260200160008152602001600073ffffffffffffffffffffffffffffffffffffffff1681525090565b6119b091905b808211156119ac576000816000905550600101611994565b5090565b90565b6000813590506119c28161233e565b92915050565b600082601f8301126119d957600080fd5b81356119ec6119e7826121b2565b612185565b91508082526020830160208301858383011115611a0857600080fd5b611a138382846122de565b50505092915050565b600081359050611a2b81612355565b92915050565b600060208284031215611a4357600080fd5b6000611a51848285016119b3565b91505092915050565b60008060008060808587031215611a7057600080fd5b600085013567ffffffffffffffff811115611a8a57600080fd5b611a96878288016119c8565b9450506020611aa787828801611a1c565b935050604085013567ffffffffffffffff811115611ac457600080fd5b611ad0878288016119c8565b9250506060611ae187828801611a1c565b91505092959194509250565b600060208284031215611aff57600080fd5b6000611b0d84828501611a1c565b91505092915050565b600080600080600060a08688031215611b2e57600080fd5b6000611b3c88828901611a1c565b955050602086013567ffffffffffffffff811115611b5957600080fd5b611b65888289016119c8565b945050604086013567ffffffffffffffff811115611b8257600080fd5b611b8e888289016119c8565b935050606086013567ffffffffffffffff811115611bab57600080fd5b611bb7888289016119c8565b9250506080611bc888828901611a1c565b9150509295509295909350565b60008060408385031215611be857600080fd5b6000611bf685828601611a1c565b9250506020611c0785828601611a1c565b9150509250929050565b6000611c1d8383611e37565b905092915050565b6000611c318383611ee1565b905092915050565b611c428161227d565b82525050565b611c518161227d565b82525050565b6000611c62826121fe565b611c6c8185612239565b935083602082028501611c7e856121de565b8060005b85811015611cba5784840389528151611c9b8582611c11565b9450611ca68361221f565b925060208a01995050600181019050611c82565b50829750879550505050505092915050565b6000611cd782612209565b611ce1818561224a565b935083602082028501611cf3856121ee565b8060005b85811015611d2f5784840389528151611d108582611c25565b9450611d1b8361222c565b925060208a01995050600181019050611cf7565b50829750879550505050505092915050565b611d4a816122cc565b82525050565b611d59816122cc565b82525050565b6000611d6a82612214565b611d74818561225b565b9350611d848185602086016122ed565b611d8d81612320565b840191505092915050565b6000611da382612214565b611dad818561226c565b9350611dbd8185602086016122ed565b611dc681612320565b840191505092915050565b6000611dde60248361226c565b91507f4e6f20686f7573657320617661696c616c6520666f7220676976656e2070696e60008301527f636f6465000000000000000000000000000000000000000000000000000000006020830152604082019050919050565b600060e083016000830151611e4f6000860182611fad565b506020830151611e626020860182611fad565b506040830151611e756040860182611c39565b5060608301518482036060860152611e8d8282611d5f565b91505060808301518482036080860152611ea78282611d5f565b91505060a083015184820360a0860152611ec18282611d5f565b91505060c0830151611ed660c0860182611fad565b508091505092915050565b600061012083016000830151611efa6000860182611fad565b5060208301518482036020860152611f128282611d5f565b9150506040830151611f276040860182611c39565b506060830151611f3a6060860182611fad565b5060808301518482036080860152611f528282611d5f565b91505060a0830151611f6760a0860182611fad565b5060c0830151611f7a60c0860182611d41565b5060e0830151611f8d60e0860182611fad565b50610100830151611fa2610100860182611c39565b508091505092915050565b611fb6816122c2565b82525050565b611fc5816122c2565b82525050565b60006040820190508181036000830152611fe58185611c57565b9050611ff46020830184611fbc565b9392505050565b600060408201905081810360008301526120158185611ccc565b90506120246020830184611fbc565b9392505050565b6000602082019050818103600083015261204481611dd1565b9050919050565b60006020820190506120606000830184611fbc565b92915050565b60006101208201905061207c600083018c611fbc565b818103602083015261208e818b611d98565b905061209d604083018a611c48565b6120aa6060830189611fbc565b81810360808301526120bc8188611d98565b90506120cb60a0830187611fbc565b6120d860c0830186611d50565b6120e560e0830185611fbc565b6120f3610100830184611c48565b9a9950505050505050505050565b600060e082019050612116600083018a611fbc565b6121236020830189611fbc565b6121306040830188611c48565b81810360608301526121428187611d98565b905081810360808301526121568186611d98565b905081810360a083015261216a8185611d98565b905061217960c0830184611fbc565b98975050505050505050565b6000604051905081810181811067ffffffffffffffff821117156121a857600080fd5b8060405250919050565b600067ffffffffffffffff8211156121c957600080fd5b601f19601f8301169050602081019050919050565b6000819050602082019050919050565b6000819050602082019050919050565b600081519050919050565b600081519050919050565b600081519050919050565b6000602082019050919050565b6000602082019050919050565b600082825260208201905092915050565b600082825260208201905092915050565b600082825260208201905092915050565b600082825260208201905092915050565b6000612288826122a2565b9050919050565b600081905061229d82612331565b919050565b600073ffffffffffffffffffffffffffffffffffffffff82169050919050565b6000819050919050565b60006122d78261228f565b9050919050565b82818337600083830152505050565b60005b8381101561230b5780820151818401526020810190506122f0565b8381111561231a576000848401525b50505050565b6000601f19601f8301169050919050565b6002811061233b57fe5b50565b6123478161227d565b811461235257600080fd5b50565b61235e816122c2565b811461236957600080fd5b5056fe5468697320686f75736520776173206465706c6f796564206f6e20676976656e20646174652021a365627a7a723158205e3e5b1e3ebf6e7d3739b0046777baa80be6cb4ea9f4979374824dde7b5a3ace6c6578706572696d656e74616cf564736f6c63430005100040",
  "source": "// SPDX-License-Identifier: MIT\r\npragma solidity >=0.4.22 <0.8.0;\r\npragma experimental ABIEncoderV2;\r\n\r\ncontract Sch {\r\n \r\n uint public houseCount;\r\n uint public historyCount;\r\n\r\n\r\n \r\nstruct History{\r\n    uint historyId;\r\n    uint houseId;\r\n    address owner;\r\n    string title;\r\n    string desc;\r\n    string contractorName;\r\n    uint256 historyDate;\r\n\r\n\r\n\r\n}\r\n\r\nenum HouseStatus{\r\n    Available,\r\n    Requested\r\n    \r\n}\r\n\r\nHouseStatus constant defaultChoice=HouseStatus.Available;\r\n\r\n\r\n\r\nstruct House{\r\n     uint houseId;\r\n     string name;\r\n     address currentOwner;\r\n     uint256 pinCode;\r\n     string houseAddress;\r\n     uint256 houseDate;\r\n     HouseStatus houseStatus;\r\n     uint  totalHistoryCount;\r\n     address RequestedUser;\r\n     \r\n    \r\n\r\n }\r\n\r\nHouse [] public house;\r\nHistory [][20] public history;\r\n\r\n\r\nmapping(address=>uint) public getHousesByOwnerCount;\r\nmapping(uint256=>uint) public getHousesByPincodeCount;\r\n\r\n\r\nconstructor() public{\r\n    \r\n    historyCount=0;\r\n    houseCount=0;\r\n    \r\n    \r\n   \r\n\r\n}\r\n\r\n\r\n\r\nfunction addHouse(string memory nm,uint256 pc,string memory ha,uint256 hd) public{\r\n   \r\n    house.push(House(houseCount,nm,msg.sender,pc,ha,hd,HouseStatus.Available,0,address(0x0)));\r\n    \r\n    \r\n    addHouseHistory(houseCount,\"Deploy-House\",\"This house was deployed on given date !\",\"no contractor availale\",hd);\r\n    houseCount++;\r\n    \r\n    if(getHousesByOwnerCount[msg.sender]==0){\r\n        \r\n        getHousesByOwnerCount[msg.sender]=1;\r\n    }\r\n    else{\r\n        uint a=getHousesByOwnerCount[msg.sender];\r\n        a++;\r\n        getHousesByOwnerCount[msg.sender]=a;\r\n        \r\n    }\r\n    \r\n      \r\n    if(getHousesByPincodeCount[pc]==0){\r\n        \r\n        getHousesByPincodeCount[pc]=1;\r\n    }\r\n    else{\r\n        \r\n        uint a=getHousesByPincodeCount[pc];\r\n        a++;\r\n        getHousesByPincodeCount[pc]=a;\r\n        \r\n    }\r\n\r\n    \r\n\r\n    \r\n}  \r\n\r\n\r\nfunction getHousesByOwner(address _owner)public view returns(House[] memory ,uint){\r\n     \r\n     uint cnt=getHousesByOwnerCount[address(_owner)];\r\n\r\n    // require(cnt!=0,\"No houses availale for given owner\");\r\n     \r\n     House[] memory retHouse=new House[](cnt);\r\n     uint retHouseCount=0;\r\n     \r\n     for(uint i=0;i<houseCount;i++)\r\n     {\r\n         House storage temHouse=house[i];\r\n         if(address(temHouse.currentOwner)==address(_owner))\r\n         {\r\n             House memory temHouse1=house[i];\r\n             retHouse[retHouseCount]=temHouse1;\r\n             retHouseCount++;\r\n             \r\n         }\r\n     }\r\n     \r\n     return(retHouse,retHouseCount);\r\n     \r\n}\r\n\r\n\r\nfunction getHousesByPincode(uint256 _pinCode)public view returns(House[] memory,uint){\r\n    \r\n    \r\n    uint cnt=getHousesByPincodeCount[_pinCode];\r\n\r\n    require(cnt!=0,\"No houses availale for given pincode\");\r\n\r\n    House[] memory retHouse=new House[](cnt);\r\n    uint retHouseCount=0;\r\n    \r\n     for(uint i=0;i<houseCount;i++)\r\n     {\r\n         House storage temHouse=house[i];\r\n         uint256 pin=temHouse.pinCode;\r\n         if(pin==_pinCode)\r\n         {\r\n             House memory temHouse1=house[i];\r\n             retHouse[retHouseCount]=temHouse1;\r\n             retHouseCount++;\r\n             \r\n         }\r\n     }\r\n    \r\n    \r\n    return(retHouse,retHouseCount);\r\n}\r\n\r\n\r\nfunction addHouseHistory(uint _houseId,string memory title,string memory desc,string memory cn,uint256 hd) public {\r\n  \r\n    \r\n    history[_houseId].push(History(historyCount,_houseId,msg.sender,title,desc,cn,hd));\r\n    house[_houseId].totalHistoryCount++;\r\n    historyCount++;\r\n} \r\n\r\n\r\nfunction getHouseHistory(uint _houseId)public view returns(History[] memory,uint){\r\n    \r\n    House storage _temHouse=house[_houseId];\r\n    uint  _totalHistoryCount=_temHouse.totalHistoryCount;\r\n    History[] memory _history=new History[](_totalHistoryCount);\r\n    \r\n    for(uint i=0;i<_totalHistoryCount;i++)\r\n    {\r\n        _history[i]=history[_houseId][i];\r\n    }\r\n   \r\n    return(_history,_totalHistoryCount);\r\n    \r\n}\r\n\r\nfunction requestHouse(uint _houseId)public {\r\n\r\n    House storage _temHouse=house[_houseId];\r\n    _temHouse.houseStatus=HouseStatus.Requested;\r\n    _temHouse.RequestedUser=address(msg.sender);\r\n}\r\n/*\r\nfunction agreeHouse(uint _houseId)public {\r\n\r\n    House storage _temHouse=house[_houseId];\r\n    \r\n    addHouseHistory(houseCount,\"Deploy-House\",\"This house was deployed on given date !\",\"no contractor availale\",hd);\r\n    \r\n}\r\n\r\n\r\nfunction disAgreeHouse(uint _houseId)public {\r\n\r\n}\r\n\r\n\r\n*/\r\n\r\n\r\n}\r\n\r\n\r\n\r\n\r\n\r\n\r\n/*// SPDX-License-Identifier: MIT\r\npragma solidity >=0.4.22 <0.8.0;\r\npragma experimental ABIEncoderV2;\r\n\r\ncontract Sch {\r\n \r\n uint public houseCount;\r\n uint public historyCount;\r\n\r\n\r\n \r\nstruct History{\r\n    uint historyId;\r\n    uint houseId;\r\n    address owner;\r\n    string title;\r\n    string desc;\r\n    string contractorName;\r\n    uint256 historyDate;\r\n\r\n\r\n}\r\n\r\n struct House{\r\n     uint houseId;\r\n     string name;\r\n     address currentOwner;\r\n     string pinCode;\r\n     string houseAddress;\r\n     History[] houseHistory;\r\n     uint256 houseDate;\r\n\r\n }\r\n\r\nmapping(uint=>House) public house;\r\n\r\nconstructor() public{\r\n    \r\n    historyCount=0;\r\n    houseCount=0;\r\n\r\n}\r\n\r\n\r\n\r\n\r\n\r\nfunction addHouse(string memory nm,string memory pc,string memory ha,uint256 hd) public{\r\n    historyCount++;\r\n    houseCount++;\r\n    History memory temp=History(historyCount,houseCount,msg.sender,\"house creation\",\"house created on blockchain\",\"hd\",hd);\r\n    house[houseCount].houseId=houseCount;\r\n    house[houseCount].name=nm;\r\n    house[houseCount].currentOwner=msg.sender;\r\n    house[houseCount].pinCode=pc;\r\n    house[houseCount].houseAddress=ha;\r\n    house[houseCount].houseDate=hd;\r\n    house[houseCount].houseHistory.push(temp);\r\n}\r\n\r\nfunction getHousesByAddress(address owner) public returns(House[] memory ,uint){\r\n    \r\n    House [] memory retHouse;\r\n    uint cnt=0;\r\n    \r\n    for(uint i=0;i<houseCount;i++)\r\n    {\r\n        House memory temHouse=house[i];\r\n        if(temHouse.currentOwner==owner)\r\n        {\r\n            retHouse[i]=temHouse;\r\n            cnt++;\r\n        }\r\n    }\r\n   \r\n    return(retHouse,cnt);\r\n    \r\n    \r\n}\r\n\r\nfunction getHousesByPincode(string memory pincode) public returns(House[] memory,uint){\r\n    \r\n    House [] memory retHouse;\r\n    uint cnt=0;\r\n    \r\n    \r\n    for(uint i=0;i<houseCount;i++)\r\n    {\r\n        House memory temHouse=house[i];\r\n        if(keccak256(abi.encodePacked((temHouse.pinCode)))==keccak256(abi.encodePacked((pincode))))\r\n        {\r\n            retHouse[i]=temHouse;\r\n            cnt++;\r\n        }\r\n    }\r\n   \r\n    return(retHouse,cnt);\r\n    \r\n    \r\n}\r\n\r\n\r\n\r\n\r\nfunction addHistory(uint houseid,string memory title,string memory desc,string memory cn,uint256 hd) public {\r\n    historyCount++;\r\n    House storage temHouse=house[houseid];\r\n    temHouse.houseHistory.push(History(historyCount,houseid,msg.sender,title,desc,cn,hd));\r\n}\r\n\r\n\r\nfunction getHouseHistorylength(uint houseid) public returns(uint){\r\n    \r\n    House storage temhouse=house[houseid];\r\n    \r\n  return(temhouse.houseHistory.length);\r\n    \r\n}\r\n\r\nfunction getHouseHistory(uint houseid ) public returns(History[] memory) {\r\n    \r\n    History[] memory history=new History[](historyCount);\r\n    House storage temhouse=house[houseid];\r\n    for(uint i=0;i<temhouse.houseHistory.length;i++)\r\n    {\r\n         history[i]=temhouse.houseHistory[i];\r\n    }\r\n    return (history);\r\n    \r\n}\r\n\r\n\r\n\r\n}\r\n*/\r\n",
  "sourcePath": "E:/react/selfconcioushouse/src/contracts/Sch.sol",
  "compiler": {
    "name": "solc",
    "version": "0.5.16+commit.9c3226ce.Emscripten.clang"
  },
  "schemaVersion": "3.2.3",
  "updatedAt": "2020-09-26T10:49:52.584Z",
  "networkType": "ethereum",
  "devdoc": {
    "methods": {}
  },
  "userdoc": {
    "methods": {}
  }
}