{
  "contractName": "Sch",
  "abi": [
    {
      "inputs": [],
      "payable": false,
      "stateMutability": "nonpayable",
      "type": "constructor"
    },
    {
      "constant": true,
      "inputs": [
        {
          "internalType": "address",
          "name": "",
          "type": "address"
        }
      ],
      "name": "getHousesByOwnerCount",
      "outputs": [
        {
          "internalType": "uint256",
          "name": "",
          "type": "uint256"
        }
      ],
      "payable": false,
      "stateMutability": "view",
      "type": "function"
    },
    {
      "constant": true,
      "inputs": [
        {
          "internalType": "uint256",
          "name": "",
          "type": "uint256"
        }
      ],
      "name": "getHousesByPincodeCount",
      "outputs": [
        {
          "internalType": "uint256",
          "name": "",
          "type": "uint256"
        }
      ],
      "payable": false,
      "stateMutability": "view",
      "type": "function"
    },
    {
      "constant": true,
      "inputs": [
        {
          "internalType": "uint256",
          "name": "",
          "type": "uint256"
        },
        {
          "internalType": "uint256",
          "name": "",
          "type": "uint256"
        }
      ],
      "name": "history",
      "outputs": [
        {
          "internalType": "uint256",
          "name": "historyId",
          "type": "uint256"
        },
        {
          "internalType": "uint256",
          "name": "houseId",
          "type": "uint256"
        },
        {
          "internalType": "address",
          "name": "owner",
          "type": "address"
        },
        {
          "internalType": "string",
          "name": "title",
          "type": "string"
        },
        {
          "internalType": "string",
          "name": "desc",
          "type": "string"
        },
        {
          "internalType": "string",
          "name": "contractorName",
          "type": "string"
        },
        {
          "internalType": "uint256",
          "name": "historyDate",
          "type": "uint256"
        }
      ],
      "payable": false,
      "stateMutability": "view",
      "type": "function"
    },
    {
      "constant": true,
      "inputs": [],
      "name": "historyCount",
      "outputs": [
        {
          "internalType": "uint256",
          "name": "",
          "type": "uint256"
        }
      ],
      "payable": false,
      "stateMutability": "view",
      "type": "function"
    },
    {
      "constant": true,
      "inputs": [
        {
          "internalType": "uint256",
          "name": "",
          "type": "uint256"
        }
      ],
      "name": "house",
      "outputs": [
        {
          "internalType": "uint256",
          "name": "houseId",
          "type": "uint256"
        },
        {
          "internalType": "string",
          "name": "name",
          "type": "string"
        },
        {
          "internalType": "address",
          "name": "currentOwner",
          "type": "address"
        },
        {
          "internalType": "uint256",
          "name": "pinCode",
          "type": "uint256"
        },
        {
          "internalType": "string",
          "name": "houseAddress",
          "type": "string"
        },
        {
          "internalType": "uint256",
          "name": "houseDate",
          "type": "uint256"
        },
        {
          "internalType": "enum Sch.HouseStatus",
          "name": "houseStatus",
          "type": "uint8"
        },
        {
          "internalType": "uint256",
          "name": "totalHistoryCount",
          "type": "uint256"
        },
        {
          "internalType": "address",
          "name": "RequestedUser",
          "type": "address"
        }
      ],
      "payable": false,
      "stateMutability": "view",
      "type": "function"
    },
    {
      "constant": true,
      "inputs": [],
      "name": "houseCount",
      "outputs": [
        {
          "internalType": "uint256",
          "name": "",
          "type": "uint256"
        }
      ],
      "payable": false,
      "stateMutability": "view",
      "type": "function"
    },
    {
      "constant": false,
      "inputs": [
        {
          "internalType": "string",
          "name": "nm",
          "type": "string"
        },
        {
          "internalType": "uint256",
          "name": "pc",
          "type": "uint256"
        },
        {
          "internalType": "string",
          "name": "ha",
          "type": "string"
        },
        {
          "internalType": "uint256",
          "name": "hd",
          "type": "uint256"
        }
      ],
      "name": "addHouse",
      "outputs": [],
      "payable": false,
      "stateMutability": "nonpayable",
      "type": "function"
    },
    {
      "constant": true,
      "inputs": [
        {
          "internalType": "address",
          "name": "_owner",
          "type": "address"
        }
      ],
      "name": "getHousesByOwner",
      "outputs": [
        {
          "components": [
            {
              "internalType": "uint256",
              "name": "houseId",
              "type": "uint256"
            },
            {
              "internalType": "string",
              "name": "name",
              "type": "string"
            },
            {
              "internalType": "address",
              "name": "currentOwner",
              "type": "address"
            },
            {
              "internalType": "uint256",
              "name": "pinCode",
              "type": "uint256"
            },
            {
              "internalType": "string",
              "name": "houseAddress",
              "type": "string"
            },
            {
              "internalType": "uint256",
              "name": "houseDate",
              "type": "uint256"
            },
            {
              "internalType": "enum Sch.HouseStatus",
              "name": "houseStatus",
              "type": "uint8"
            },
            {
              "internalType": "uint256",
              "name": "totalHistoryCount",
              "type": "uint256"
            },
            {
              "internalType": "address",
              "name": "RequestedUser",
              "type": "address"
            }
          ],
          "internalType": "struct Sch.House[]",
          "name": "",
          "type": "tuple[]"
        },
        {
          "internalType": "uint256",
          "name": "",
          "type": "uint256"
        }
      ],
      "payable": false,
      "stateMutability": "view",
      "type": "function"
    },
    {
      "constant": true,
      "inputs": [
        {
          "internalType": "uint256",
          "name": "_pinCode",
          "type": "uint256"
        }
      ],
      "name": "getHousesByPincode",
      "outputs": [
        {
          "components": [
            {
              "internalType": "uint256",
              "name": "houseId",
              "type": "uint256"
            },
            {
              "internalType": "string",
              "name": "name",
              "type": "string"
            },
            {
              "internalType": "address",
              "name": "currentOwner",
              "type": "address"
            },
            {
              "internalType": "uint256",
              "name": "pinCode",
              "type": "uint256"
            },
            {
              "internalType": "string",
              "name": "houseAddress",
              "type": "string"
            },
            {
              "internalType": "uint256",
              "name": "houseDate",
              "type": "uint256"
            },
            {
              "internalType": "enum Sch.HouseStatus",
              "name": "houseStatus",
              "type": "uint8"
            },
            {
              "internalType": "uint256",
              "name": "totalHistoryCount",
              "type": "uint256"
            },
            {
              "internalType": "address",
              "name": "RequestedUser",
              "type": "address"
            }
          ],
          "internalType": "struct Sch.House[]",
          "name": "",
          "type": "tuple[]"
        },
        {
          "internalType": "uint256",
          "name": "",
          "type": "uint256"
        }
      ],
      "payable": false,
      "stateMutability": "view",
      "type": "function"
    },
    {
      "constant": false,
      "inputs": [
        {
          "internalType": "uint256",
          "name": "_houseId",
          "type": "uint256"
        },
        {
          "internalType": "string",
          "name": "title",
          "type": "string"
        },
        {
          "internalType": "string",
          "name": "desc",
          "type": "string"
        },
        {
          "internalType": "string",
          "name": "cn",
          "type": "string"
        },
        {
          "internalType": "uint256",
          "name": "hd",
          "type": "uint256"
        }
      ],
      "name": "addHouseHistory",
      "outputs": [],
      "payable": false,
      "stateMutability": "nonpayable",
      "type": "function"
    },
    {
      "constant": true,
      "inputs": [
        {
          "internalType": "uint256",
          "name": "_houseId",
          "type": "uint256"
        }
      ],
      "name": "getHouseHistory",
      "outputs": [
        {
          "components": [
            {
              "internalType": "uint256",
              "name": "historyId",
              "type": "uint256"
            },
            {
              "internalType": "uint256",
              "name": "houseId",
              "type": "uint256"
            },
            {
              "internalType": "address",
              "name": "owner",
              "type": "address"
            },
            {
              "internalType": "string",
              "name": "title",
              "type": "string"
            },
            {
              "internalType": "string",
              "name": "desc",
              "type": "string"
            },
            {
              "internalType": "string",
              "name": "contractorName",
              "type": "string"
            },
            {
              "internalType": "uint256",
              "name": "historyDate",
              "type": "uint256"
            }
          ],
          "internalType": "struct Sch.History[]",
          "name": "",
          "type": "tuple[]"
        },
        {
          "internalType": "uint256",
          "name": "",
          "type": "uint256"
        }
      ],
      "payable": false,
      "stateMutability": "view",
      "type": "function"
    },
    {
      "constant": false,
      "inputs": [
        {
          "internalType": "uint256",
          "name": "_houseId",
          "type": "uint256"
        }
      ],
      "name": "requestHouse",
      "outputs": [],
      "payable": false,
      "stateMutability": "nonpayable",
      "type": "function"
    },
    {
      "constant": false,
      "inputs": [
        {
          "internalType": "uint256",
          "name": "_houseId",
          "type": "uint256"
        },
        {
          "internalType": "address",
          "name": "_newOwner",
          "type": "address"
        },
        {
          "internalType": "uint256",
          "name": "hd",
          "type": "uint256"
        }
      ],
      "name": "agreeHouse",
      "outputs": [],
      "payable": false,
      "stateMutability": "nonpayable",
      "type": "function"
    },
    {
      "constant": false,
      "inputs": [
        {
          "internalType": "uint256",
          "name": "_houseId",
          "type": "uint256"
        }
      ],
      "name": "disAgreeHouse",
      "outputs": [],
      "payable": false,
      "stateMutability": "nonpayable",
      "type": "function"
    }
  ],
  "bytecode": "0x608060405234801561001057600080fd5b506000600181905550600080819055506127d78061002f6000396000f3fe608060405234801561001057600080fd5b50600436106100ea5760003560e01c80639a20bd811161008c578063b3f603d111610066578063b3f603d11461027d578063bd74f8b1146102ae578063dbea574d146102cc578063e8566838146102e8576100ea565b80639a20bd8114610215578063a53be72914610231578063b278a1e814610261576100ea565b80633a9c9ffc116100c85780633a9c9ffc14610174578063600f11cc1461019257806371d9e19e146101ae57806375e6c709146101e4576100ea565b8063195d0edf146100ef57806326fbf7e01461010b57806328718e4c1461013c575b600080fd5b61010960048036036101049190810190611dd7565b610318565b005b61012560048036036101209190810190611e6a565b61071e565b604051610133929190612397565b60405180910390f35b61015660048036036101519190810190611e6a565b610a55565b60405161016b99989796959493929190612432565b60405180910390f35b61017c610c2d565b6040516101899190612417565b60405180910390f35b6101ac60048036036101a79190810190611ee2565b610c33565b005b6101c860048036036101c39190810190611fa1565b610dbd565b6040516101db97969594939291906124cd565b60405180910390f35b6101fe60048036036101f99190810190611dae565b611001565b60405161020c9291906123c7565b60405180910390f35b61022f600480360361022a9190810190611e93565b6113c8565b005b61024b60048036036102469190810190611e6a565b61164a565b6040516102589190612417565b60405180910390f35b61027b60048036036102769190810190611e6a565b611662565b005b61029760048036036102929190810190611e6a565b6116ee565b6040516102a59291906123c7565b60405180910390f35b6102b6611a87565b6040516102c39190612417565b60405180910390f35b6102e660048036036102e19190810190611e6a565b611a8d565b005b61030260048036036102fd9190810190611dae565b611b1a565b60405161030f9190612417565b60405180910390f35b600260405180610120016040528060005481526020018681526020013373ffffffffffffffffffffffffffffffffffffffff1681526020018581526020018481526020018381526020016000600181111561036f57fe5b815260200160008152602001600073ffffffffffffffffffffffffffffffffffffffff16815250908060018154018082558091505090600182039060005260206000209060090201600090919290919091506000820151816000015560208201518160010190805190602001906103e7929190611b32565b5060408201518160020160006101000a81548173ffffffffffffffffffffffffffffffffffffffff021916908373ffffffffffffffffffffffffffffffffffffffff160217905550606082015181600301556080820151816004019080519060200190610455929190611b32565b5060a0820151816005015560c08201518160060160006101000a81548160ff0219169083600181111561048457fe5b021790555060e082015181600701556101008201518160080160006101000a81548173ffffffffffffffffffffffffffffffffffffffff021916908373ffffffffffffffffffffffffffffffffffffffff16021790555050505061056f6000546040518060400160405280600c81526020017f4465706c6f792d486f757365000000000000000000000000000000000000000081525060405180606001604052806027815260200161276e602791396040518060400160405280601681526020017f6e6f20636f6e74726163746f7220617661696c616c650000000000000000000081525085610c33565b60008081548092919060010191905055506000601760003373ffffffffffffffffffffffffffffffffffffffff1673ffffffffffffffffffffffffffffffffffffffff168152602001908152602001600020541415610612576001601760003373ffffffffffffffffffffffffffffffffffffffff1673ffffffffffffffffffffffffffffffffffffffff168152602001908152602001600020819055506106a4565b6000601760003373ffffffffffffffffffffffffffffffffffffffff1673ffffffffffffffffffffffffffffffffffffffff168152602001908152602001600020549050808060010191505080601760003373ffffffffffffffffffffffffffffffffffffffff1673ffffffffffffffffffffffffffffffffffffffff16815260200190815260200160002081905550505b6000601860008581526020019081526020016000205414156106de5760016018600085815260200190815260200160002081905550610718565b6000601860008581526020019081526020016000205490508080600101915050806018600086815260200190815260200160002081905550505b50505050565b60606000806002848154811061073057fe5b9060005260206000209060090201905060008160070154905060608160405190808252806020026020018201604052801561078557816020015b610772611bb2565b81526020019060019003908161076a5790505b50905060008090505b82811015610a4657600387601481106107a357fe5b0181815481106107af57fe5b90600052602060002090600702016040518060e001604052908160008201548152602001600182015481526020016002820160009054906101000a900473ffffffffffffffffffffffffffffffffffffffff1673ffffffffffffffffffffffffffffffffffffffff1673ffffffffffffffffffffffffffffffffffffffff168152602001600382018054600181600116156101000203166002900480601f0160208091040260200160405190810160405280929190818152602001828054600181600116156101000203166002900480156108cb5780601f106108a0576101008083540402835291602001916108cb565b820191906000526020600020905b8154815290600101906020018083116108ae57829003601f168201915b50505050508152602001600482018054600181600116156101000203166002900480601f01602080910402602001604051908101604052809291908181526020018280546001816001161561010002031660029004801561096d5780601f106109425761010080835404028352916020019161096d565b820191906000526020600020905b81548152906001019060200180831161095057829003601f168201915b50505050508152602001600582018054600181600116156101000203166002900480601f016020809104026020016040519081016040528092919081815260200182805460018160011615610100020316600290048015610a0f5780601f106109e457610100808354040283529160200191610a0f565b820191906000526020600020905b8154815290600101906020018083116109f257829003601f168201915b50505050508152602001600682015481525050828281518110610a2e57fe5b6020026020010181905250808060010191505061078e565b50808294509450505050915091565b60028181548110610a6257fe5b9060005260206000209060090201600091509050806000015490806001018054600181600116156101000203166002900480601f016020809104026020016040519081016040528092919081815260200182805460018160011615610100020316600290048015610b145780601f10610ae957610100808354040283529160200191610b14565b820191906000526020600020905b815481529060010190602001808311610af757829003601f168201915b5050505050908060020160009054906101000a900473ffffffffffffffffffffffffffffffffffffffff1690806003015490806004018054600181600116156101000203166002900480601f016020809104026020016040519081016040528092919081815260200182805460018160011615610100020316600290048015610bde5780601f10610bb357610100808354040283529160200191610bde565b820191906000526020600020905b815481529060010190602001808311610bc157829003601f168201915b5050505050908060050154908060060160009054906101000a900460ff16908060070154908060080160009054906101000a900473ffffffffffffffffffffffffffffffffffffffff16905089565b60015481565b60038560148110610c4057fe5b016040518060e0016040528060015481526020018781526020013373ffffffffffffffffffffffffffffffffffffffff1681526020018681526020018581526020018481526020018381525090806001815401808255809150509060018203906000526020600020906007020160009091929091909150600082015181600001556020820151816001015560408201518160020160006101000a81548173ffffffffffffffffffffffffffffffffffffffff021916908373ffffffffffffffffffffffffffffffffffffffff1602179055506060820151816003019080519060200190610d2e929190611b32565b506080820151816004019080519060200190610d4b929190611b32565b5060a0820151816005019080519060200190610d68929190611b32565b5060c0820151816006015550505060028581548110610d8357fe5b9060005260206000209060090201600701600081548092919060010191905055506001600081548092919060010191905055505050505050565b60038260148110610dca57fe5b018181548110610dd657fe5b9060005260206000209060070201600091509150508060000154908060010154908060020160009054906101000a900473ffffffffffffffffffffffffffffffffffffffff1690806003018054600181600116156101000203166002900480601f016020809104026020016040519081016040528092919081815260200182805460018160011615610100020316600290048015610eb55780601f10610e8a57610100808354040283529160200191610eb5565b820191906000526020600020905b815481529060010190602001808311610e9857829003601f168201915b505050505090806004018054600181600116156101000203166002900480601f016020809104026020016040519081016040528092919081815260200182805460018160011615610100020316600290048015610f535780601f10610f2857610100808354040283529160200191610f53565b820191906000526020600020905b815481529060010190602001808311610f3657829003601f168201915b505050505090806005018054600181600116156101000203166002900480601f016020809104026020016040519081016040528092919081815260200182805460018160011615610100020316600290048015610ff15780601f10610fc657610100808354040283529160200191610ff1565b820191906000526020600020905b815481529060010190602001808311610fd457829003601f168201915b5050505050908060060154905087565b6060600080601760008573ffffffffffffffffffffffffffffffffffffffff1673ffffffffffffffffffffffffffffffffffffffff16815260200190815260200160002054905060608160405190808252806020026020018201604052801561108457816020015b611071611c05565b8152602001906001900390816110695790505b509050600080905060008090505b6000548110156113b9576000600282815481106110ab57fe5b906000526020600020906009020190508773ffffffffffffffffffffffffffffffffffffffff168160020160009054906101000a900473ffffffffffffffffffffffffffffffffffffffff1673ffffffffffffffffffffffffffffffffffffffff1614156113ab5761111b611c88565b6002838154811061112857fe5b90600052602060002090600902016040518061012001604052908160008201548152602001600182018054600181600116156101000203166002900480601f0160208091040260200160405190810160405280929190818152602001828054600181600116156101000203166002900480156111e55780601f106111ba576101008083540402835291602001916111e5565b820191906000526020600020905b8154815290600101906020018083116111c857829003601f168201915b505050505081526020016002820160009054906101000a900473ffffffffffffffffffffffffffffffffffffffff1673ffffffffffffffffffffffffffffffffffffffff1673ffffffffffffffffffffffffffffffffffffffff16815260200160038201548152602001600482018054600181600116156101000203166002900480601f0160208091040260200160405190810160405280929190818152602001828054600181600116156101000203166002900480156112e75780601f106112bc576101008083540402835291602001916112e7565b820191906000526020600020905b8154815290600101906020018083116112ca57829003601f168201915b50505050508152602001600582015481526020016006820160009054906101000a900460ff16600181111561131857fe5b600181111561132357fe5b8152602001600782015481526020016008820160009054906101000a900473ffffffffffffffffffffffffffffffffffffffff1673ffffffffffffffffffffffffffffffffffffffff1673ffffffffffffffffffffffffffffffffffffffff168152505090508085858151811061139657fe5b60200260200101819052508380600101945050505b508080600101915050611092565b50818194509450505050915091565b6000600284815481106113d757fe5b9060005260206000209060090201905060008160060160006101000a81548160ff0219169083600181111561140857fe5b021790555060008160080160006101000a81548173ffffffffffffffffffffffffffffffffffffffff021916908373ffffffffffffffffffffffffffffffffffffffff1602179055506000601760003373ffffffffffffffffffffffffffffffffffffffff1673ffffffffffffffffffffffffffffffffffffffff16815260200190815260200160002054905060018103905080601760003373ffffffffffffffffffffffffffffffffffffffff1673ffffffffffffffffffffffffffffffffffffffff16815260200190815260200160002081905550601760008573ffffffffffffffffffffffffffffffffffffffff1673ffffffffffffffffffffffffffffffffffffffff16815260200190815260200160002054905060018101905080601760008673ffffffffffffffffffffffffffffffffffffffff1673ffffffffffffffffffffffffffffffffffffffff16815260200190815260200160002081905550838260020160006101000a81548173ffffffffffffffffffffffffffffffffffffffff021916908373ffffffffffffffffffffffffffffffffffffffff1602179055506060604051806060016040528060358152602001612739603591399050611642866040518060400160405280601281526020017f4f776e657273686970205472616e736665720000000000000000000000000000815250836040518060400160405280601681526020017f6e6f20636f6e74726163746f7220617661696c616c650000000000000000000081525088610c33565b505050505050565b60186020528060005260406000206000915090505481565b60006002828154811061167157fe5b9060005260206000209060090201905060018160060160006101000a81548160ff021916908360018111156116a257fe5b0217905550338160080160006101000a81548173ffffffffffffffffffffffffffffffffffffffff021916908373ffffffffffffffffffffffffffffffffffffffff1602179055505050565b606060008060186000858152602001908152602001600020549050600081141561174d576040517f08c379a0000000000000000000000000000000000000000000000000000000008152600401611744906123f7565b60405180910390fd5b60608160405190808252806020026020018201604052801561178957816020015b611776611c05565b81526020019060019003908161176e5790505b509050600080905060008090505b600054811015611a78576000600282815481106117b057fe5b9060005260206000209060090201905060008160030154905088811415611a69576117d9611c88565b600284815481106117e657fe5b90600052602060002090600902016040518061012001604052908160008201548152602001600182018054600181600116156101000203166002900480601f0160208091040260200160405190810160405280929190818152602001828054600181600116156101000203166002900480156118a35780601f10611878576101008083540402835291602001916118a3565b820191906000526020600020905b81548152906001019060200180831161188657829003601f168201915b505050505081526020016002820160009054906101000a900473ffffffffffffffffffffffffffffffffffffffff1673ffffffffffffffffffffffffffffffffffffffff1673ffffffffffffffffffffffffffffffffffffffff16815260200160038201548152602001600482018054600181600116156101000203166002900480601f0160208091040260200160405190810160405280929190818152602001828054600181600116156101000203166002900480156119a55780601f1061197a576101008083540402835291602001916119a5565b820191906000526020600020905b81548152906001019060200180831161198857829003601f168201915b50505050508152602001600582015481526020016006820160009054906101000a900460ff1660018111156119d657fe5b60018111156119e157fe5b8152602001600782015481526020016008820160009054906101000a900473ffffffffffffffffffffffffffffffffffffffff1673ffffffffffffffffffffffffffffffffffffffff1673ffffffffffffffffffffffffffffffffffffffff1681525050905080868681518110611a5457fe5b60200260200101819052508480600101955050505b50508080600101915050611797565b50818194509450505050915091565b60005481565b600060028281548110611a9c57fe5b9060005260206000209060090201905060008160060160006101000a81548160ff02191690836001811115611acd57fe5b021790555060008160080160006101000a81548173ffffffffffffffffffffffffffffffffffffffff021916908373ffffffffffffffffffffffffffffffffffffffff1602179055505050565b60176020528060005260406000206000915090505481565b828054600181600116156101000203166002900490600052602060002090601f016020900481019282601f10611b7357805160ff1916838001178555611ba1565b82800160010185558215611ba1579182015b82811115611ba0578251825591602001919060010190611b85565b5b509050611bae9190611d0b565b5090565b6040518060e001604052806000815260200160008152602001600073ffffffffffffffffffffffffffffffffffffffff168152602001606081526020016060815260200160608152602001600081525090565b6040518061012001604052806000815260200160608152602001600073ffffffffffffffffffffffffffffffffffffffff16815260200160008152602001606081526020016000815260200160006001811115611c5e57fe5b815260200160008152602001600073ffffffffffffffffffffffffffffffffffffffff1681525090565b6040518061012001604052806000815260200160608152602001600073ffffffffffffffffffffffffffffffffffffffff16815260200160008152602001606081526020016000815260200160006001811115611ce157fe5b815260200160008152602001600073ffffffffffffffffffffffffffffffffffffffff1681525090565b611d2d91905b80821115611d29576000816000905550600101611d11565b5090565b90565b600081359050611d3f8161270a565b92915050565b600082601f830112611d5657600080fd5b8135611d69611d648261257e565b612551565b91508082526020830160208301858383011115611d8557600080fd5b611d908382846126aa565b50505092915050565b600081359050611da881612721565b92915050565b600060208284031215611dc057600080fd5b6000611dce84828501611d30565b91505092915050565b60008060008060808587031215611ded57600080fd5b600085013567ffffffffffffffff811115611e0757600080fd5b611e1387828801611d45565b9450506020611e2487828801611d99565b935050604085013567ffffffffffffffff811115611e4157600080fd5b611e4d87828801611d45565b9250506060611e5e87828801611d99565b91505092959194509250565b600060208284031215611e7c57600080fd5b6000611e8a84828501611d99565b91505092915050565b600080600060608486031215611ea857600080fd5b6000611eb686828701611d99565b9350506020611ec786828701611d30565b9250506040611ed886828701611d99565b9150509250925092565b600080600080600060a08688031215611efa57600080fd5b6000611f0888828901611d99565b955050602086013567ffffffffffffffff811115611f2557600080fd5b611f3188828901611d45565b945050604086013567ffffffffffffffff811115611f4e57600080fd5b611f5a88828901611d45565b935050606086013567ffffffffffffffff811115611f7757600080fd5b611f8388828901611d45565b9250506080611f9488828901611d99565b9150509295509295909350565b60008060408385031215611fb457600080fd5b6000611fc285828601611d99565b9250506020611fd385828601611d99565b9150509250929050565b6000611fe98383612203565b905092915050565b6000611ffd83836122ad565b905092915050565b61200e81612649565b82525050565b61201d81612649565b82525050565b600061202e826125ca565b6120388185612605565b93508360208202850161204a856125aa565b8060005b8581101561208657848403895281516120678582611fdd565b9450612072836125eb565b925060208a0199505060018101905061204e565b50829750879550505050505092915050565b60006120a3826125d5565b6120ad8185612616565b9350836020820285016120bf856125ba565b8060005b858110156120fb57848403895281516120dc8582611ff1565b94506120e7836125f8565b925060208a019950506001810190506120c3565b50829750879550505050505092915050565b61211681612698565b82525050565b61212581612698565b82525050565b6000612136826125e0565b6121408185612627565b93506121508185602086016126b9565b612159816126ec565b840191505092915050565b600061216f826125e0565b6121798185612638565b93506121898185602086016126b9565b612192816126ec565b840191505092915050565b60006121aa602483612638565b91507f4e6f20686f7573657320617661696c616c6520666f7220676976656e2070696e60008301527f636f6465000000000000000000000000000000000000000000000000000000006020830152604082019050919050565b600060e08301600083015161221b6000860182612379565b50602083015161222e6020860182612379565b5060408301516122416040860182612005565b5060608301518482036060860152612259828261212b565b91505060808301518482036080860152612273828261212b565b91505060a083015184820360a086015261228d828261212b565b91505060c08301516122a260c0860182612379565b508091505092915050565b6000610120830160008301516122c66000860182612379565b50602083015184820360208601526122de828261212b565b91505060408301516122f36040860182612005565b5060608301516123066060860182612379565b506080830151848203608086015261231e828261212b565b91505060a083015161233360a0860182612379565b5060c083015161234660c086018261210d565b5060e083015161235960e0860182612379565b5061010083015161236e610100860182612005565b508091505092915050565b6123828161268e565b82525050565b6123918161268e565b82525050565b600060408201905081810360008301526123b18185612023565b90506123c06020830184612388565b9392505050565b600060408201905081810360008301526123e18185612098565b90506123f06020830184612388565b9392505050565b600060208201905081810360008301526124108161219d565b9050919050565b600060208201905061242c6000830184612388565b92915050565b600061012082019050612448600083018c612388565b818103602083015261245a818b612164565b9050612469604083018a612014565b6124766060830189612388565b81810360808301526124888188612164565b905061249760a0830187612388565b6124a460c083018661211c565b6124b160e0830185612388565b6124bf610100830184612014565b9a9950505050505050505050565b600060e0820190506124e2600083018a612388565b6124ef6020830189612388565b6124fc6040830188612014565b818103606083015261250e8187612164565b905081810360808301526125228186612164565b905081810360a08301526125368185612164565b905061254560c0830184612388565b98975050505050505050565b6000604051905081810181811067ffffffffffffffff8211171561257457600080fd5b8060405250919050565b600067ffffffffffffffff82111561259557600080fd5b601f19601f8301169050602081019050919050565b6000819050602082019050919050565b6000819050602082019050919050565b600081519050919050565b600081519050919050565b600081519050919050565b6000602082019050919050565b6000602082019050919050565b600082825260208201905092915050565b600082825260208201905092915050565b600082825260208201905092915050565b600082825260208201905092915050565b60006126548261266e565b9050919050565b6000819050612669826126fd565b919050565b600073ffffffffffffffffffffffffffffffffffffffff82169050919050565b6000819050919050565b60006126a38261265b565b9050919050565b82818337600083830152505050565b60005b838110156126d75780820151818401526020810190506126bc565b838111156126e6576000848401525b50505050565b6000601f19601f8301169050919050565b6002811061270757fe5b50565b61271381612649565b811461271e57600080fd5b50565b61272a8161268e565b811461273557600080fd5b5056fe7472616e736665722074616b657320706c6163652066726f6d2070726576696f7573206f776e657220746f206e6577206f776e65725468697320686f75736520776173206465706c6f796564206f6e20676976656e20646174652021a365627a7a72315820fcb7962a6be099000230e53dbbbbd7b83dc6e256a37bced11b767d5bb22804fa6c6578706572696d656e74616cf564736f6c63430005100040",
  "source": "// SPDX-License-Identifier: MIT\r\npragma solidity >=0.4.22 <0.8.0;\r\npragma experimental ABIEncoderV2;\r\n\r\ncontract Sch {\r\n \r\n uint public houseCount;\r\n uint public historyCount;\r\n\r\n\r\n \r\nstruct History{\r\n    uint historyId;\r\n    uint houseId;\r\n    address owner;\r\n    string title;\r\n    string desc;\r\n    string contractorName;\r\n    uint256 historyDate;\r\n\r\n\r\n\r\n}\r\n\r\nenum HouseStatus{\r\n    Available,\r\n    Requested\r\n    \r\n}\r\n\r\nHouseStatus constant defaultChoice=HouseStatus.Available;\r\n\r\n\r\n\r\nstruct House{\r\n     uint houseId;\r\n     string name;\r\n     address currentOwner;\r\n     uint256 pinCode;\r\n     string houseAddress;\r\n     uint256 houseDate;\r\n     HouseStatus houseStatus;\r\n     uint  totalHistoryCount;\r\n     address RequestedUser;\r\n     \r\n    \r\n\r\n }\r\n\r\nHouse [] public house;\r\nHistory [][20] public history;\r\n\r\n\r\nmapping(address=>uint) public getHousesByOwnerCount;\r\nmapping(uint256=>uint) public getHousesByPincodeCount;\r\n\r\n\r\nconstructor() public{\r\n    \r\n    historyCount=0;\r\n    houseCount=0;\r\n    \r\n    \r\n   \r\n\r\n}\r\n\r\n\r\n\r\nfunction addHouse(string memory nm,uint256 pc,string memory ha,uint256 hd) public{\r\n   \r\n    house.push(House(houseCount,nm,msg.sender,pc,ha,hd,HouseStatus.Available,0,address(0x0)));\r\n    \r\n    \r\n    addHouseHistory(houseCount,\"Deploy-House\",\"This house was deployed on given date !\",\"no contractor availale\",hd);\r\n    houseCount++;\r\n    \r\n    if(getHousesByOwnerCount[msg.sender]==0){\r\n        \r\n        getHousesByOwnerCount[msg.sender]=1;\r\n    }\r\n    else{\r\n        uint a=getHousesByOwnerCount[msg.sender];\r\n        a++;\r\n        getHousesByOwnerCount[msg.sender]=a;\r\n        \r\n    }\r\n    \r\n      \r\n    if(getHousesByPincodeCount[pc]==0){\r\n        \r\n        getHousesByPincodeCount[pc]=1;\r\n    }\r\n    else{\r\n        \r\n        uint a=getHousesByPincodeCount[pc];\r\n        a++;\r\n        getHousesByPincodeCount[pc]=a;\r\n        \r\n    }\r\n\r\n    \r\n\r\n    \r\n}  \r\n\r\n\r\nfunction getHousesByOwner(address _owner)public view returns(House[] memory ,uint){\r\n     \r\n     uint cnt=getHousesByOwnerCount[address(_owner)];\r\n\r\n    // require(cnt!=0,\"No houses availale for given owner\");\r\n     \r\n     House[] memory retHouse=new House[](cnt);\r\n     uint retHouseCount=0;\r\n     \r\n     for(uint i=0;i<houseCount;i++)\r\n     {\r\n         House storage temHouse=house[i];\r\n         if(address(temHouse.currentOwner)==address(_owner))\r\n         {\r\n             House memory temHouse1=house[i];\r\n             retHouse[retHouseCount]=temHouse1;\r\n             retHouseCount++;\r\n             \r\n         }\r\n     }\r\n     \r\n     return(retHouse,retHouseCount);\r\n     \r\n}\r\n\r\n\r\nfunction getHousesByPincode(uint256 _pinCode)public view returns(House[] memory,uint){\r\n    \r\n    \r\n    uint cnt=getHousesByPincodeCount[_pinCode];\r\n\r\n    require(cnt!=0,\"No houses availale for given pincode\");\r\n\r\n    House[] memory retHouse=new House[](cnt);\r\n    uint retHouseCount=0;\r\n    \r\n     for(uint i=0;i<houseCount;i++)\r\n     {\r\n         House storage temHouse=house[i];\r\n         uint256 pin=temHouse.pinCode;\r\n         if(pin==_pinCode)\r\n         {\r\n             House memory temHouse1=house[i];\r\n             retHouse[retHouseCount]=temHouse1;\r\n             retHouseCount++;\r\n             \r\n         }\r\n     }\r\n    \r\n    \r\n    return(retHouse,retHouseCount);\r\n}\r\n\r\n\r\nfunction addHouseHistory(uint _houseId,string memory title,string memory desc,string memory cn,uint256 hd) public {\r\n  \r\n    \r\n    history[_houseId].push(History(historyCount,_houseId,msg.sender,title,desc,cn,hd));\r\n    house[_houseId].totalHistoryCount++;\r\n    historyCount++;\r\n} \r\n\r\n\r\nfunction getHouseHistory(uint _houseId)public view returns(History[] memory,uint){\r\n    \r\n    House storage _temHouse=house[_houseId];\r\n    uint  _totalHistoryCount=_temHouse.totalHistoryCount;\r\n    History[] memory _history=new History[](_totalHistoryCount);\r\n    \r\n    for(uint i=0;i<_totalHistoryCount;i++)\r\n    {\r\n        _history[i]=history[_houseId][i];\r\n    }\r\n   \r\n    return(_history,_totalHistoryCount);\r\n    \r\n}\r\n\r\nfunction requestHouse(uint _houseId)public {\r\n\r\n    House storage _temHouse=house[_houseId];\r\n    _temHouse.houseStatus=HouseStatus.Requested;\r\n    _temHouse.RequestedUser=address(msg.sender);\r\n}\r\n\r\nfunction agreeHouse(uint _houseId ,address _newOwner,uint256 hd)public {\r\n\r\n    House storage _temHouse=house[_houseId];\r\n    _temHouse.houseStatus=HouseStatus.Available;\r\n    _temHouse.RequestedUser=address(0x0);\r\n\r\n    uint cnt=getHousesByOwnerCount[address(msg.sender)];\r\n    cnt=cnt-1;\r\n    getHousesByOwnerCount[address(msg.sender)]=cnt;\r\n\r\n    cnt=getHousesByOwnerCount[_newOwner];\r\n    cnt=cnt+1;\r\n    getHousesByOwnerCount[_newOwner]=cnt;\r\n\r\n    _temHouse.currentOwner=_newOwner;\r\n    \r\n    string memory desc=\"transfer takes place from previous owner to new owner\";\r\n    addHouseHistory(_houseId,\"Ownership Transfer\",desc,\"no contractor availale\",hd);\r\n    \r\n}\r\n\r\n\r\nfunction disAgreeHouse(uint _houseId)public {\r\n\r\n    House storage _temHouse=house[_houseId];\r\n    _temHouse.houseStatus=HouseStatus.Available;\r\n    _temHouse.RequestedUser=address(0x0);\r\n\r\n}\r\n\r\n\r\n\r\n\r\n\r\n}\r\n\r\n\r\n\r\n\r\n\r\n\r\n/*// SPDX-License-Identifier: MIT\r\npragma solidity >=0.4.22 <0.8.0;\r\npragma experimental ABIEncoderV2;\r\n\r\ncontract Sch {\r\n \r\n uint public houseCount;\r\n uint public historyCount;\r\n\r\n\r\n \r\nstruct History{\r\n    uint historyId;\r\n    uint houseId;\r\n    address owner;\r\n    string title;\r\n    string desc;\r\n    string contractorName;\r\n    uint256 historyDate;\r\n\r\n\r\n}\r\n\r\n struct House{\r\n     uint houseId;\r\n     string name;\r\n     address currentOwner;\r\n     string pinCode;\r\n     string houseAddress;\r\n     History[] houseHistory;\r\n     uint256 houseDate;\r\n\r\n }\r\n\r\nmapping(uint=>House) public house;\r\n\r\nconstructor() public{\r\n    \r\n    historyCount=0;\r\n    houseCount=0;\r\n\r\n}\r\n\r\n\r\n\r\n\r\n\r\nfunction addHouse(string memory nm,string memory pc,string memory ha,uint256 hd) public{\r\n    historyCount++;\r\n    houseCount++;\r\n    History memory temp=History(historyCount,houseCount,msg.sender,\"house creation\",\"house created on blockchain\",\"hd\",hd);\r\n    house[houseCount].houseId=houseCount;\r\n    house[houseCount].name=nm;\r\n    house[houseCount].currentOwner=msg.sender;\r\n    house[houseCount].pinCode=pc;\r\n    house[houseCount].houseAddress=ha;\r\n    house[houseCount].houseDate=hd;\r\n    house[houseCount].houseHistory.push(temp);\r\n}\r\n\r\nfunction getHousesByAddress(address owner) public returns(House[] memory ,uint){\r\n    \r\n    House [] memory retHouse;\r\n    uint cnt=0;\r\n    \r\n    for(uint i=0;i<houseCount;i++)\r\n    {\r\n        House memory temHouse=house[i];\r\n        if(temHouse.currentOwner==owner)\r\n        {\r\n            retHouse[i]=temHouse;\r\n            cnt++;\r\n        }\r\n    }\r\n   \r\n    return(retHouse,cnt);\r\n    \r\n    \r\n}\r\n\r\nfunction getHousesByPincode(string memory pincode) public returns(House[] memory,uint){\r\n    \r\n    House [] memory retHouse;\r\n    uint cnt=0;\r\n    \r\n    \r\n    for(uint i=0;i<houseCount;i++)\r\n    {\r\n        House memory temHouse=house[i];\r\n        if(keccak256(abi.encodePacked((temHouse.pinCode)))==keccak256(abi.encodePacked((pincode))))\r\n        {\r\n            retHouse[i]=temHouse;\r\n            cnt++;\r\n        }\r\n    }\r\n   \r\n    return(retHouse,cnt);\r\n    \r\n    \r\n}\r\n\r\n\r\n\r\n\r\nfunction addHistory(uint houseid,string memory title,string memory desc,string memory cn,uint256 hd) public {\r\n    historyCount++;\r\n    House storage temHouse=house[houseid];\r\n    temHouse.houseHistory.push(History(historyCount,houseid,msg.sender,title,desc,cn,hd));\r\n}\r\n\r\n\r\nfunction getHouseHistorylength(uint houseid) public returns(uint){\r\n    \r\n    House storage temhouse=house[houseid];\r\n    \r\n  return(temhouse.houseHistory.length);\r\n    \r\n}\r\n\r\nfunction getHouseHistory(uint houseid ) public returns(History[] memory) {\r\n    \r\n    History[] memory history=new History[](historyCount);\r\n    House storage temhouse=house[houseid];\r\n    for(uint i=0;i<temhouse.houseHistory.length;i++)\r\n    {\r\n         history[i]=temhouse.houseHistory[i];\r\n    }\r\n    return (history);\r\n    \r\n}\r\n\r\n\r\n\r\n}\r\n*/\r\n",
  "sourcePath": "E:/react/selfconcioushouse/src/contracts/Sch.sol",
  "compiler": {
    "name": "solc",
    "version": "0.5.16+commit.9c3226ce.Emscripten.clang"
  },
  "schemaVersion": "3.2.3",
  "updatedAt": "2020-10-05T13:15:42.489Z",
  "networkType": "ethereum",
  "devdoc": {
    "methods": {}
  },
  "userdoc": {
    "methods": {}
  }
}