{
  "contractName": "Sch",
  "abi": [
    {
      "inputs": [],
      "payable": false,
      "stateMutability": "nonpayable",
      "type": "constructor"
    },
    {
      "constant": true,
      "inputs": [
        {
          "internalType": "address",
          "name": "",
          "type": "address"
        },
        {
          "internalType": "uint256",
          "name": "",
          "type": "uint256"
        }
      ],
      "name": "OutgoingRequestMap",
      "outputs": [
        {
          "internalType": "uint256",
          "name": "houseId",
          "type": "uint256"
        },
        {
          "internalType": "string",
          "name": "houseName",
          "type": "string"
        },
        {
          "internalType": "uint256",
          "name": "status",
          "type": "uint256"
        },
        {
          "internalType": "uint256",
          "name": "dateOfReq",
          "type": "uint256"
        }
      ],
      "payable": false,
      "stateMutability": "view",
      "type": "function"
    },
    {
      "constant": true,
      "inputs": [
        {
          "internalType": "address",
          "name": "",
          "type": "address"
        }
      ],
      "name": "OutgoingRequestMapCount",
      "outputs": [
        {
          "internalType": "uint256",
          "name": "",
          "type": "uint256"
        }
      ],
      "payable": false,
      "stateMutability": "view",
      "type": "function"
    },
    {
      "constant": true,
      "inputs": [
        {
          "internalType": "address",
          "name": "",
          "type": "address"
        }
      ],
      "name": "getHousesByOwnerCount",
      "outputs": [
        {
          "internalType": "uint256",
          "name": "",
          "type": "uint256"
        }
      ],
      "payable": false,
      "stateMutability": "view",
      "type": "function"
    },
    {
      "constant": true,
      "inputs": [
        {
          "internalType": "uint256",
          "name": "",
          "type": "uint256"
        }
      ],
      "name": "getHousesByPincodeCount",
      "outputs": [
        {
          "internalType": "uint256",
          "name": "",
          "type": "uint256"
        }
      ],
      "payable": false,
      "stateMutability": "view",
      "type": "function"
    },
    {
      "constant": true,
      "inputs": [
        {
          "internalType": "uint256",
          "name": "",
          "type": "uint256"
        },
        {
          "internalType": "uint256",
          "name": "",
          "type": "uint256"
        }
      ],
      "name": "history",
      "outputs": [
        {
          "internalType": "uint256",
          "name": "historyId",
          "type": "uint256"
        },
        {
          "internalType": "uint256",
          "name": "houseId",
          "type": "uint256"
        },
        {
          "internalType": "address",
          "name": "owner",
          "type": "address"
        },
        {
          "internalType": "string",
          "name": "title",
          "type": "string"
        },
        {
          "internalType": "string",
          "name": "desc",
          "type": "string"
        },
        {
          "internalType": "string",
          "name": "contractorName",
          "type": "string"
        },
        {
          "internalType": "uint256",
          "name": "historyDate",
          "type": "uint256"
        },
        {
          "internalType": "string",
          "name": "beforeImageHash",
          "type": "string"
        },
        {
          "internalType": "string",
          "name": "afterImageHash",
          "type": "string"
        }
      ],
      "payable": false,
      "stateMutability": "view",
      "type": "function"
    },
    {
      "constant": true,
      "inputs": [],
      "name": "historyCount",
      "outputs": [
        {
          "internalType": "uint256",
          "name": "",
          "type": "uint256"
        }
      ],
      "payable": false,
      "stateMutability": "view",
      "type": "function"
    },
    {
      "constant": true,
      "inputs": [
        {
          "internalType": "uint256",
          "name": "",
          "type": "uint256"
        }
      ],
      "name": "house",
      "outputs": [
        {
          "internalType": "uint256",
          "name": "houseId",
          "type": "uint256"
        },
        {
          "internalType": "string",
          "name": "name",
          "type": "string"
        },
        {
          "internalType": "address",
          "name": "currentOwner",
          "type": "address"
        },
        {
          "internalType": "uint256",
          "name": "pinCode",
          "type": "uint256"
        },
        {
          "internalType": "string",
          "name": "houseAddress",
          "type": "string"
        },
        {
          "internalType": "uint256",
          "name": "houseDate",
          "type": "uint256"
        },
        {
          "internalType": "enum Sch.HouseStatus",
          "name": "houseStatus",
          "type": "uint8"
        },
        {
          "internalType": "uint256",
          "name": "totalHistoryCount",
          "type": "uint256"
        },
        {
          "internalType": "address",
          "name": "RequestedUser",
          "type": "address"
        }
      ],
      "payable": false,
      "stateMutability": "view",
      "type": "function"
    },
    {
      "constant": true,
      "inputs": [],
      "name": "houseCount",
      "outputs": [
        {
          "internalType": "uint256",
          "name": "",
          "type": "uint256"
        }
      ],
      "payable": false,
      "stateMutability": "view",
      "type": "function"
    },
    {
      "constant": true,
      "inputs": [],
      "name": "organiser",
      "outputs": [
        {
          "internalType": "address",
          "name": "",
          "type": "address"
        }
      ],
      "payable": false,
      "stateMutability": "view",
      "type": "function"
    },
    {
      "constant": false,
      "inputs": [
        {
          "internalType": "string",
          "name": "nm",
          "type": "string"
        },
        {
          "internalType": "uint256",
          "name": "pc",
          "type": "uint256"
        },
        {
          "internalType": "string",
          "name": "ha",
          "type": "string"
        },
        {
          "internalType": "uint256",
          "name": "hd",
          "type": "uint256"
        },
        {
          "internalType": "string",
          "name": "_imageHash",
          "type": "string"
        }
      ],
      "name": "addHouse",
      "outputs": [],
      "payable": false,
      "stateMutability": "nonpayable",
      "type": "function"
    },
    {
      "constant": true,
      "inputs": [
        {
          "internalType": "address",
          "name": "_owner",
          "type": "address"
        }
      ],
      "name": "getHousesByOwner",
      "outputs": [
        {
          "components": [
            {
              "internalType": "uint256",
              "name": "houseId",
              "type": "uint256"
            },
            {
              "internalType": "string",
              "name": "name",
              "type": "string"
            },
            {
              "internalType": "address",
              "name": "currentOwner",
              "type": "address"
            },
            {
              "internalType": "uint256",
              "name": "pinCode",
              "type": "uint256"
            },
            {
              "internalType": "string",
              "name": "houseAddress",
              "type": "string"
            },
            {
              "internalType": "uint256",
              "name": "houseDate",
              "type": "uint256"
            },
            {
              "internalType": "enum Sch.HouseStatus",
              "name": "houseStatus",
              "type": "uint8"
            },
            {
              "internalType": "uint256",
              "name": "totalHistoryCount",
              "type": "uint256"
            },
            {
              "internalType": "address",
              "name": "RequestedUser",
              "type": "address"
            }
          ],
          "internalType": "struct Sch.House[]",
          "name": "",
          "type": "tuple[]"
        },
        {
          "internalType": "uint256",
          "name": "",
          "type": "uint256"
        }
      ],
      "payable": false,
      "stateMutability": "view",
      "type": "function"
    },
    {
      "constant": true,
      "inputs": [
        {
          "internalType": "uint256",
          "name": "_pinCode",
          "type": "uint256"
        }
      ],
      "name": "getHousesByPincode",
      "outputs": [
        {
          "components": [
            {
              "internalType": "uint256",
              "name": "houseId",
              "type": "uint256"
            },
            {
              "internalType": "string",
              "name": "name",
              "type": "string"
            },
            {
              "internalType": "address",
              "name": "currentOwner",
              "type": "address"
            },
            {
              "internalType": "uint256",
              "name": "pinCode",
              "type": "uint256"
            },
            {
              "internalType": "string",
              "name": "houseAddress",
              "type": "string"
            },
            {
              "internalType": "uint256",
              "name": "houseDate",
              "type": "uint256"
            },
            {
              "internalType": "enum Sch.HouseStatus",
              "name": "houseStatus",
              "type": "uint8"
            },
            {
              "internalType": "uint256",
              "name": "totalHistoryCount",
              "type": "uint256"
            },
            {
              "internalType": "address",
              "name": "RequestedUser",
              "type": "address"
            }
          ],
          "internalType": "struct Sch.House[]",
          "name": "",
          "type": "tuple[]"
        },
        {
          "internalType": "uint256",
          "name": "",
          "type": "uint256"
        }
      ],
      "payable": false,
      "stateMutability": "view",
      "type": "function"
    },
    {
      "constant": false,
      "inputs": [
        {
          "internalType": "uint256",
          "name": "_houseId",
          "type": "uint256"
        },
        {
          "internalType": "string",
          "name": "title",
          "type": "string"
        },
        {
          "internalType": "string",
          "name": "desc",
          "type": "string"
        },
        {
          "internalType": "string",
          "name": "cn",
          "type": "string"
        },
        {
          "internalType": "uint256",
          "name": "hd",
          "type": "uint256"
        },
        {
          "internalType": "string",
          "name": "_befImgHash",
          "type": "string"
        },
        {
          "internalType": "string",
          "name": "_aftImgHash",
          "type": "string"
        }
      ],
      "name": "addHouseHistory",
      "outputs": [],
      "payable": false,
      "stateMutability": "nonpayable",
      "type": "function"
    },
    {
      "constant": false,
      "inputs": [
        {
          "internalType": "uint256",
          "name": "_houseId",
          "type": "uint256"
        },
        {
          "internalType": "string",
          "name": "title",
          "type": "string"
        },
        {
          "internalType": "string",
          "name": "desc",
          "type": "string"
        },
        {
          "internalType": "string",
          "name": "cn",
          "type": "string"
        },
        {
          "internalType": "uint256",
          "name": "hd",
          "type": "uint256"
        },
        {
          "internalType": "address",
          "name": "newOwner",
          "type": "address"
        }
      ],
      "name": "addHouseHistoryThroughAccept",
      "outputs": [],
      "payable": false,
      "stateMutability": "nonpayable",
      "type": "function"
    },
    {
      "constant": true,
      "inputs": [
        {
          "internalType": "uint256",
          "name": "_houseId",
          "type": "uint256"
        }
      ],
      "name": "getHouseHistory",
      "outputs": [
        {
          "components": [
            {
              "internalType": "uint256",
              "name": "historyId",
              "type": "uint256"
            },
            {
              "internalType": "uint256",
              "name": "houseId",
              "type": "uint256"
            },
            {
              "internalType": "address",
              "name": "owner",
              "type": "address"
            },
            {
              "internalType": "string",
              "name": "title",
              "type": "string"
            },
            {
              "internalType": "string",
              "name": "desc",
              "type": "string"
            },
            {
              "internalType": "string",
              "name": "contractorName",
              "type": "string"
            },
            {
              "internalType": "uint256",
              "name": "historyDate",
              "type": "uint256"
            },
            {
              "internalType": "string",
              "name": "beforeImageHash",
              "type": "string"
            },
            {
              "internalType": "string",
              "name": "afterImageHash",
              "type": "string"
            }
          ],
          "internalType": "struct Sch.History[]",
          "name": "",
          "type": "tuple[]"
        },
        {
          "internalType": "uint256",
          "name": "",
          "type": "uint256"
        }
      ],
      "payable": false,
      "stateMutability": "view",
      "type": "function"
    },
    {
      "constant": false,
      "inputs": [
        {
          "internalType": "uint256",
          "name": "_houseId",
          "type": "uint256"
        },
        {
          "internalType": "uint256",
          "name": "hd",
          "type": "uint256"
        }
      ],
      "name": "requestHouse",
      "outputs": [],
      "payable": false,
      "stateMutability": "nonpayable",
      "type": "function"
    },
    {
      "constant": false,
      "inputs": [
        {
          "internalType": "uint256",
          "name": "_houseId",
          "type": "uint256"
        },
        {
          "internalType": "address",
          "name": "_newOwner",
          "type": "address"
        },
        {
          "internalType": "uint256",
          "name": "hd",
          "type": "uint256"
        }
      ],
      "name": "agreeHouse",
      "outputs": [],
      "payable": false,
      "stateMutability": "nonpayable",
      "type": "function"
    },
    {
      "constant": false,
      "inputs": [
        {
          "internalType": "uint256",
          "name": "_houseId",
          "type": "uint256"
        },
        {
          "internalType": "address",
          "name": "_newOwner",
          "type": "address"
        },
        {
          "internalType": "uint256",
          "name": "hd",
          "type": "uint256"
        }
      ],
      "name": "disAgreeHouse",
      "outputs": [],
      "payable": false,
      "stateMutability": "nonpayable",
      "type": "function"
    },
    {
      "constant": false,
      "inputs": [
        {
          "internalType": "uint256",
          "name": "_houseId",
          "type": "uint256"
        }
      ],
      "name": "changeStatus",
      "outputs": [],
      "payable": false,
      "stateMutability": "nonpayable",
      "type": "function"
    }
  ],
  "bytecode": "0x608060405234801561001057600080fd5b5060006001819055506000808190555033600260006101000a81548173ffffffffffffffffffffffffffffffffffffffff021916908373ffffffffffffffffffffffffffffffffffffffff160217905550613548806100706000396000f3fe608060405234801561001057600080fd5b50600436106101205760003560e01c806375e6c709116100ad578063b175bac111610071578063b175bac11461033e578063b3f603d11461036e578063bd74f8b11461039f578063e8025d77146103bd578063e8566838146103d957610120565b806375e6c709146102875780637e537486146102b8578063801f89a7146102d65780639a20bd81146102f2578063a53be7291461030e57610120565b806330c8db5d116100f457806330c8db5d146101dd5780633a9c9ffc146101f95780635e5505d7146102175780636e6c6b3a1461023357806371d9e19e1461024f57610120565b80623e6b8114610125578063036d096c1461014157806326fbf7e01461017457806328718e4c146101a5575b600080fd5b61013f600480360361013a9190810190612c48565b610409565b005b61015b600480360361015691908101906128ee565b610688565b60405161016b94939291906131c6565b60405180910390f35b61018e600480360361018991908101906129e9565b61076a565b60405161019c929190613090565b60405180910390f35b6101bf60048036036101ba91908101906129e9565b610be6565b6040516101d49998979695949392919061312b565b60405180910390f35b6101f760048036036101f2919081019061292a565b610dbe565b005b6102016111c7565b60405161020e9190613110565b60405180910390f35b610231600480360361022c9190810190612b32565b6111cd565b005b61024d60048036036102489190810190612a12565b6113a1565b005b61026960048036036102649190810190612c48565b61151e565b60405161027e99989796959493929190613212565b60405180910390f35b6102a1600480360361029c91908101906128c5565b61189e565b6040516102af9291906130c0565b60405180910390f35b6102c0611c65565b6040516102cd9190613075565b60405180910390f35b6102f060048036036102eb9190810190612a61565b611c8b565b005b61030c60048036036103079190810190612a12565b611e99565b005b610328600480360361032391908101906129e9565b61220a565b6040516103359190613110565b60405180910390f35b610358600480360361035391908101906128c5565b612222565b6040516103659190613110565b60405180910390f35b610388600480360361038391908101906129e9565b61223a565b6040516103969291906130c0565b60405180910390f35b6103a76125d3565b6040516103b49190613110565b60405180910390f35b6103d760048036036103d291908101906129e9565b6125d9565b005b6103f360048036036103ee91908101906128c5565b612622565b6040516104009190613110565b60405180910390f35b60006003838154811061041857fe5b9060005260206000209060090201905060018160060160006101000a81548160ff0219169083600181111561044957fe5b0217905550338160080160006101000a81548173ffffffffffffffffffffffffffffffffffffffff021916908373ffffffffffffffffffffffffffffffffffffffff1602179055506060816001018054600181600116156101000203166002900480601f01602080910402602001604051908101604052809291908181526020018280546001816001161561010002031660029004801561052b5780601f106105005761010080835404028352916020019161052b565b820191906000526020600020905b81548152906001019060200180831161050e57829003601f168201915b50505050509050603960003373ffffffffffffffffffffffffffffffffffffffff1673ffffffffffffffffffffffffffffffffffffffff16815260200190815260200160002060405180608001604052808681526020018381526020016000815260200185815250908060018154018082558091505090600182039060005260206000209060040201600090919290919091506000820151816000015560208201518160010190805190602001906105e492919061263a565b5060408201518160020155606082015181600301555050506001603860003373ffffffffffffffffffffffffffffffffffffffff1673ffffffffffffffffffffffffffffffffffffffff1681526020019081526020016000205401603860003373ffffffffffffffffffffffffffffffffffffffff1673ffffffffffffffffffffffffffffffffffffffff1681526020019081526020016000208190555050505050565b603960205281600052604060002081815481106106a157fe5b906000526020600020906004020160009150915050806000015490806001018054600181600116156101000203166002900480601f0160208091040260200160405190810160405280929190818152602001828054600181600116156101000203166002900480156107545780601f1061072957610100808354040283529160200191610754565b820191906000526020600020905b81548152906001019060200180831161073757829003601f168201915b5050505050908060020154908060030154905084565b60606000806003848154811061077c57fe5b906000526020600020906009020190506000816007015490506060816040519080825280602002602001820160405280156107d157816020015b6107be6126ba565b8152602001906001900390816107b65790505b50905060008090505b82811015610bd757600487603281106107ef57fe5b0181815481106107fb57fe5b90600052602060002090600902016040518061012001604052908160008201548152602001600182015481526020016002820160009054906101000a900473ffffffffffffffffffffffffffffffffffffffff1673ffffffffffffffffffffffffffffffffffffffff1673ffffffffffffffffffffffffffffffffffffffff168152602001600382018054600181600116156101000203166002900480601f0160208091040260200160405190810160405280929190818152602001828054600181600116156101000203166002900480156109185780601f106108ed57610100808354040283529160200191610918565b820191906000526020600020905b8154815290600101906020018083116108fb57829003601f168201915b50505050508152602001600482018054600181600116156101000203166002900480601f0160208091040260200160405190810160405280929190818152602001828054600181600116156101000203166002900480156109ba5780601f1061098f576101008083540402835291602001916109ba565b820191906000526020600020905b81548152906001019060200180831161099d57829003601f168201915b50505050508152602001600582018054600181600116156101000203166002900480601f016020809104026020016040519081016040528092919081815260200182805460018160011615610100020316600290048015610a5c5780601f10610a3157610100808354040283529160200191610a5c565b820191906000526020600020905b815481529060010190602001808311610a3f57829003601f168201915b5050505050815260200160068201548152602001600782018054600181600116156101000203166002900480601f016020809104026020016040519081016040528092919081815260200182805460018160011615610100020316600290048015610b085780601f10610add57610100808354040283529160200191610b08565b820191906000526020600020905b815481529060010190602001808311610aeb57829003601f168201915b50505050508152602001600882018054600181600116156101000203166002900480601f016020809104026020016040519081016040528092919081815260200182805460018160011615610100020316600290048015610baa5780601f10610b7f57610100808354040283529160200191610baa565b820191906000526020600020905b815481529060010190602001808311610b8d57829003601f168201915b505050505081525050828281518110610bbf57fe5b602002602001018190525080806001019150506107da565b50808294509450505050915091565b60038181548110610bf357fe5b9060005260206000209060090201600091509050806000015490806001018054600181600116156101000203166002900480601f016020809104026020016040519081016040528092919081815260200182805460018160011615610100020316600290048015610ca55780601f10610c7a57610100808354040283529160200191610ca5565b820191906000526020600020905b815481529060010190602001808311610c8857829003601f168201915b5050505050908060020160009054906101000a900473ffffffffffffffffffffffffffffffffffffffff1690806003015490806004018054600181600116156101000203166002900480601f016020809104026020016040519081016040528092919081815260200182805460018160011615610100020316600290048015610d6f5780601f10610d4457610100808354040283529160200191610d6f565b820191906000526020600020905b815481529060010190602001808311610d5257829003601f168201915b5050505050908060050154908060060160009054906101000a900460ff16908060070154908060080160009054906101000a900473ffffffffffffffffffffffffffffffffffffffff16905089565b600360405180610120016040528060005481526020018781526020013373ffffffffffffffffffffffffffffffffffffffff16815260200186815260200185815260200184815260200160006001811115610e1557fe5b815260200160008152602001600073ffffffffffffffffffffffffffffffffffffffff1681525090806001815401808255809150509060018203906000526020600020906009020160009091929091909150600082015181600001556020820151816001019080519060200190610e8d92919061263a565b5060408201518160020160006101000a81548173ffffffffffffffffffffffffffffffffffffffff021916908373ffffffffffffffffffffffffffffffffffffffff160217905550606082015181600301556080820151816004019080519060200190610efb92919061263a565b5060a0820151816005015560c08201518160060160006101000a81548160ff02191690836001811115610f2a57fe5b021790555060e082015181600701556101008201518160080160006101000a81548173ffffffffffffffffffffffffffffffffffffffff021916908373ffffffffffffffffffffffffffffffffffffffff1602179055505050506110176000546040518060400160405280600c81526020017f4465706c6f792d486f75736500000000000000000000000000000000000000008152506040518060600160405280602781526020016134df602791396040518060400160405280600381526020017f2d2d2d00000000000000000000000000000000000000000000000000000000008152508686876111cd565b60008081548092919060010191905055506000603660003373ffffffffffffffffffffffffffffffffffffffff1673ffffffffffffffffffffffffffffffffffffffff1681526020019081526020016000205414156110ba576001603660003373ffffffffffffffffffffffffffffffffffffffff1673ffffffffffffffffffffffffffffffffffffffff1681526020019081526020016000208190555061114c565b6000603660003373ffffffffffffffffffffffffffffffffffffffff1673ffffffffffffffffffffffffffffffffffffffff168152602001908152602001600020549050808060010191505080603660003373ffffffffffffffffffffffffffffffffffffffff1673ffffffffffffffffffffffffffffffffffffffff16815260200190815260200160002081905550505b60006037600086815260200190815260200160002054141561118657600160376000868152602001908152602001600020819055506111c0565b6000603760008681526020019081526020016000205490508080600101915050806037600087815260200190815260200160002081905550505b5050505050565b60015481565b600487603281106111da57fe5b0160405180610120016040528060015481526020018981526020013373ffffffffffffffffffffffffffffffffffffffff1681526020018881526020018781526020018681526020018581526020018481526020018381525090806001815401808255809150509060018203906000526020600020906009020160009091929091909150600082015181600001556020820151816001015560408201518160020160006101000a81548173ffffffffffffffffffffffffffffffffffffffff021916908373ffffffffffffffffffffffffffffffffffffffff16021790555060608201518160030190805190602001906112d592919061263a565b5060808201518160040190805190602001906112f292919061263a565b5060a082015181600501908051906020019061130f92919061263a565b5060c0820151816006015560e082015181600701908051906020019061133692919061263a565b5061010082015181600801908051906020019061135492919061263a565b505050506003878154811061136557fe5b90600052602060002090600902016007016000815480929190600101919050555060016000815480929190600101919050555050505050505050565b6000600384815481106113b057fe5b9060005260206000209060090201905060008160060160006101000a81548160ff021916908360018111156113e157fe5b021790555060008160080160006101000a81548173ffffffffffffffffffffffffffffffffffffffff021916908373ffffffffffffffffffffffffffffffffffffffff1602179055506000603860008573ffffffffffffffffffffffffffffffffffffffff1673ffffffffffffffffffffffffffffffffffffffff16815260200190815260200160002054905060008090505b81811015611516576000603960008773ffffffffffffffffffffffffffffffffffffffff1673ffffffffffffffffffffffffffffffffffffffff16815260200190815260200160002082815481106114c857fe5b906000526020600020906004020190508681600001541480156114ef575060008160020154145b1561150857600281600201819055508481600301819055505b508080600101915050611474565b505050505050565b6004826032811061152b57fe5b01818154811061153757fe5b9060005260206000209060090201600091509150508060000154908060010154908060020160009054906101000a900473ffffffffffffffffffffffffffffffffffffffff1690806003018054600181600116156101000203166002900480601f0160208091040260200160405190810160405280929190818152602001828054600181600116156101000203166002900480156116165780601f106115eb57610100808354040283529160200191611616565b820191906000526020600020905b8154815290600101906020018083116115f957829003601f168201915b505050505090806004018054600181600116156101000203166002900480601f0160208091040260200160405190810160405280929190818152602001828054600181600116156101000203166002900480156116b45780601f10611689576101008083540402835291602001916116b4565b820191906000526020600020905b81548152906001019060200180831161169757829003601f168201915b505050505090806005018054600181600116156101000203166002900480601f0160208091040260200160405190810160405280929190818152602001828054600181600116156101000203166002900480156117525780601f1061172757610100808354040283529160200191611752565b820191906000526020600020905b81548152906001019060200180831161173557829003601f168201915b505050505090806006015490806007018054600181600116156101000203166002900480601f0160208091040260200160405190810160405280929190818152602001828054600181600116156101000203166002900480156117f65780601f106117cb576101008083540402835291602001916117f6565b820191906000526020600020905b8154815290600101906020018083116117d957829003601f168201915b505050505090806008018054600181600116156101000203166002900480601f0160208091040260200160405190810160405280929190818152602001828054600181600116156101000203166002900480156118945780601f1061186957610100808354040283529160200191611894565b820191906000526020600020905b81548152906001019060200180831161187757829003601f168201915b5050505050905089565b6060600080603660008573ffffffffffffffffffffffffffffffffffffffff1673ffffffffffffffffffffffffffffffffffffffff16815260200190815260200160002054905060608160405190808252806020026020018201604052801561192157816020015b61190e61271c565b8152602001906001900390816119065790505b509050600080905060008090505b600054811015611c565760006003828154811061194857fe5b906000526020600020906009020190508773ffffffffffffffffffffffffffffffffffffffff168160020160009054906101000a900473ffffffffffffffffffffffffffffffffffffffff1673ffffffffffffffffffffffffffffffffffffffff161415611c48576119b861279f565b600383815481106119c557fe5b90600052602060002090600902016040518061012001604052908160008201548152602001600182018054600181600116156101000203166002900480601f016020809104026020016040519081016040528092919081815260200182805460018160011615610100020316600290048015611a825780601f10611a5757610100808354040283529160200191611a82565b820191906000526020600020905b815481529060010190602001808311611a6557829003601f168201915b505050505081526020016002820160009054906101000a900473ffffffffffffffffffffffffffffffffffffffff1673ffffffffffffffffffffffffffffffffffffffff1673ffffffffffffffffffffffffffffffffffffffff16815260200160038201548152602001600482018054600181600116156101000203166002900480601f016020809104026020016040519081016040528092919081815260200182805460018160011615610100020316600290048015611b845780601f10611b5957610100808354040283529160200191611b84565b820191906000526020600020905b815481529060010190602001808311611b6757829003601f168201915b50505050508152602001600582015481526020016006820160009054906101000a900460ff166001811115611bb557fe5b6001811115611bc057fe5b8152602001600782015481526020016008820160009054906101000a900473ffffffffffffffffffffffffffffffffffffffff1673ffffffffffffffffffffffffffffffffffffffff1673ffffffffffffffffffffffffffffffffffffffff1681525050905080858581518110611c3357fe5b60200260200101819052508380600101945050505b50808060010191505061192f565b50818194509450505050915091565b600260009054906101000a900473ffffffffffffffffffffffffffffffffffffffff1681565b60606040518060400160405280600d81526020017f6e6f7420617661696c61626c6500000000000000000000000000000000000000815250905060048760328110611cd257fe5b0160405180610120016040528060015481526020018981526020018473ffffffffffffffffffffffffffffffffffffffff1681526020018881526020018781526020018681526020018581526020018381526020018381525090806001815401808255809150509060018203906000526020600020906009020160009091929091909150600082015181600001556020820151816001015560408201518160020160006101000a81548173ffffffffffffffffffffffffffffffffffffffff021916908373ffffffffffffffffffffffffffffffffffffffff1602179055506060820151816003019080519060200190611dcd92919061263a565b506080820151816004019080519060200190611dea92919061263a565b5060a0820151816005019080519060200190611e0792919061263a565b5060c0820151816006015560e0820151816007019080519060200190611e2e92919061263a565b50610100820151816008019080519060200190611e4c92919061263a565b5050505060038781548110611e5d57fe5b90600052602060002090600902016007016000815480929190600101919050555060016000815480929190600101919050555050505050505050565b600060038481548110611ea857fe5b9060005260206000209060090201905060008160060160006101000a81548160ff02191690836001811115611ed957fe5b021790555060008160080160006101000a81548173ffffffffffffffffffffffffffffffffffffffff021916908373ffffffffffffffffffffffffffffffffffffffff1602179055506000603660003373ffffffffffffffffffffffffffffffffffffffff1673ffffffffffffffffffffffffffffffffffffffff16815260200190815260200160002054905060018103905080603660003373ffffffffffffffffffffffffffffffffffffffff1673ffffffffffffffffffffffffffffffffffffffff16815260200190815260200160002081905550603660008573ffffffffffffffffffffffffffffffffffffffff1673ffffffffffffffffffffffffffffffffffffffff16815260200190815260200160002054905060018101905080603660008673ffffffffffffffffffffffffffffffffffffffff1673ffffffffffffffffffffffffffffffffffffffff16815260200190815260200160002081905550838260020160006101000a81548173ffffffffffffffffffffffffffffffffffffffff021916908373ffffffffffffffffffffffffffffffffffffffff16021790555060606040518060600160405280603581526020016134aa603591399050612114866040518060400160405280601281526020017f4f776e657273686970205472616e736665720000000000000000000000000000815250836040518060400160405280600381526020017f2d2d2d0000000000000000000000000000000000000000000000000000000000815250888a611c8b565b6000603860008773ffffffffffffffffffffffffffffffffffffffff1673ffffffffffffffffffffffffffffffffffffffff16815260200190815260200160002054905060008090505b81811015612200576000603960008973ffffffffffffffffffffffffffffffffffffffff1673ffffffffffffffffffffffffffffffffffffffff16815260200190815260200160002082815481106121b257fe5b906000526020600020906004020190508881600001541480156121d9575060008160020154145b156121f257600181600201819055508681600301819055505b50808060010191505061215e565b5050505050505050565b60376020528060005260406000206000915090505481565b60386020528060005260406000206000915090505481565b6060600080603760008581526020019081526020016000205490506000811415612299576040517f08c379a0000000000000000000000000000000000000000000000000000000008152600401612290906130f0565b60405180910390fd5b6060816040519080825280602002602001820160405280156122d557816020015b6122c261271c565b8152602001906001900390816122ba5790505b509050600080905060008090505b6000548110156125c4576000600382815481106122fc57fe5b90600052602060002090600902019050600081600301549050888114156125b55761232561279f565b6003848154811061233257fe5b90600052602060002090600902016040518061012001604052908160008201548152602001600182018054600181600116156101000203166002900480601f0160208091040260200160405190810160405280929190818152602001828054600181600116156101000203166002900480156123ef5780601f106123c4576101008083540402835291602001916123ef565b820191906000526020600020905b8154815290600101906020018083116123d257829003601f168201915b505050505081526020016002820160009054906101000a900473ffffffffffffffffffffffffffffffffffffffff1673ffffffffffffffffffffffffffffffffffffffff1673ffffffffffffffffffffffffffffffffffffffff16815260200160038201548152602001600482018054600181600116156101000203166002900480601f0160208091040260200160405190810160405280929190818152602001828054600181600116156101000203166002900480156124f15780601f106124c6576101008083540402835291602001916124f1565b820191906000526020600020905b8154815290600101906020018083116124d457829003601f168201915b50505050508152602001600582015481526020016006820160009054906101000a900460ff16600181111561252257fe5b600181111561252d57fe5b8152602001600782015481526020016008820160009054906101000a900473ffffffffffffffffffffffffffffffffffffffff1673ffffffffffffffffffffffffffffffffffffffff1673ffffffffffffffffffffffffffffffffffffffff16815250509050808686815181106125a057fe5b60200260200101819052508480600101955050505b505080806001019150506122e3565b50818194509450505050915091565b60005481565b6000600382815481106125e857fe5b9060005260206000209060090201905060018160060160006101000a81548160ff0219169083600181111561261957fe5b02179055505050565b60366020528060005260406000206000915090505481565b828054600181600116156101000203166002900490600052602060002090601f016020900481019282601f1061267b57805160ff19168380011785556126a9565b828001600101855582156126a9579182015b828111156126a857825182559160200191906001019061268d565b5b5090506126b69190612822565b5090565b6040518061012001604052806000815260200160008152602001600073ffffffffffffffffffffffffffffffffffffffff1681526020016060815260200160608152602001606081526020016000815260200160608152602001606081525090565b6040518061012001604052806000815260200160608152602001600073ffffffffffffffffffffffffffffffffffffffff1681526020016000815260200160608152602001600081526020016000600181111561277557fe5b815260200160008152602001600073ffffffffffffffffffffffffffffffffffffffff1681525090565b6040518061012001604052806000815260200160608152602001600073ffffffffffffffffffffffffffffffffffffffff168152602001600081526020016060815260200160008152602001600060018111156127f857fe5b815260200160008152602001600073ffffffffffffffffffffffffffffffffffffffff1681525090565b61284491905b80821115612840576000816000905550600101612828565b5090565b90565b6000813590506128568161347b565b92915050565b600082601f83011261286d57600080fd5b813561288061287b826132ef565b6132c2565b9150808252602083016020830185838301111561289c57600080fd5b6128a783828461341b565b50505092915050565b6000813590506128bf81613492565b92915050565b6000602082840312156128d757600080fd5b60006128e584828501612847565b91505092915050565b6000806040838503121561290157600080fd5b600061290f85828601612847565b9250506020612920858286016128b0565b9150509250929050565b600080600080600060a0868803121561294257600080fd5b600086013567ffffffffffffffff81111561295c57600080fd5b6129688882890161285c565b9550506020612979888289016128b0565b945050604086013567ffffffffffffffff81111561299657600080fd5b6129a28882890161285c565b93505060606129b3888289016128b0565b925050608086013567ffffffffffffffff8111156129d057600080fd5b6129dc8882890161285c565b9150509295509295909350565b6000602082840312156129fb57600080fd5b6000612a09848285016128b0565b91505092915050565b600080600060608486031215612a2757600080fd5b6000612a35868287016128b0565b9350506020612a4686828701612847565b9250506040612a57868287016128b0565b9150509250925092565b60008060008060008060c08789031215612a7a57600080fd5b6000612a8889828a016128b0565b965050602087013567ffffffffffffffff811115612aa557600080fd5b612ab189828a0161285c565b955050604087013567ffffffffffffffff811115612ace57600080fd5b612ada89828a0161285c565b945050606087013567ffffffffffffffff811115612af757600080fd5b612b0389828a0161285c565b9350506080612b1489828a016128b0565b92505060a0612b2589828a01612847565b9150509295509295509295565b600080600080600080600060e0888a031215612b4d57600080fd5b6000612b5b8a828b016128b0565b975050602088013567ffffffffffffffff811115612b7857600080fd5b612b848a828b0161285c565b965050604088013567ffffffffffffffff811115612ba157600080fd5b612bad8a828b0161285c565b955050606088013567ffffffffffffffff811115612bca57600080fd5b612bd68a828b0161285c565b9450506080612be78a828b016128b0565b93505060a088013567ffffffffffffffff811115612c0457600080fd5b612c108a828b0161285c565b92505060c088013567ffffffffffffffff811115612c2d57600080fd5b612c398a828b0161285c565b91505092959891949750929550565b60008060408385031215612c5b57600080fd5b6000612c69858286016128b0565b9250506020612c7a858286016128b0565b9150509250929050565b6000612c908383612eaa565b905092915050565b6000612ca48383612f8b565b905092915050565b612cb5816133ba565b82525050565b612cc4816133ba565b82525050565b6000612cd58261333b565b612cdf8185613376565b935083602082028501612cf18561331b565b8060005b85811015612d2d5784840389528151612d0e8582612c84565b9450612d198361335c565b925060208a01995050600181019050612cf5565b50829750879550505050505092915050565b6000612d4a82613346565b612d548185613387565b935083602082028501612d668561332b565b8060005b85811015612da25784840389528151612d838582612c98565b9450612d8e83613369565b925060208a01995050600181019050612d6a565b50829750879550505050505092915050565b612dbd81613409565b82525050565b612dcc81613409565b82525050565b6000612ddd82613351565b612de78185613398565b9350612df781856020860161342a565b612e008161345d565b840191505092915050565b6000612e1682613351565b612e2081856133a9565b9350612e3081856020860161342a565b612e398161345d565b840191505092915050565b6000612e516024836133a9565b91507f4e6f20686f7573657320617661696c616c6520666f7220676976656e2070696e60008301527f636f6465000000000000000000000000000000000000000000000000000000006020830152604082019050919050565b600061012083016000830151612ec36000860182613057565b506020830151612ed66020860182613057565b506040830151612ee96040860182612cac565b5060608301518482036060860152612f018282612dd2565b91505060808301518482036080860152612f1b8282612dd2565b91505060a083015184820360a0860152612f358282612dd2565b91505060c0830151612f4a60c0860182613057565b5060e083015184820360e0860152612f628282612dd2565b915050610100830151848203610100860152612f7e8282612dd2565b9150508091505092915050565b600061012083016000830151612fa46000860182613057565b5060208301518482036020860152612fbc8282612dd2565b9150506040830151612fd16040860182612cac565b506060830151612fe46060860182613057565b5060808301518482036080860152612ffc8282612dd2565b91505060a083015161301160a0860182613057565b5060c083015161302460c0860182612db4565b5060e083015161303760e0860182613057565b5061010083015161304c610100860182612cac565b508091505092915050565b613060816133ff565b82525050565b61306f816133ff565b82525050565b600060208201905061308a6000830184612cbb565b92915050565b600060408201905081810360008301526130aa8185612cca565b90506130b96020830184613066565b9392505050565b600060408201905081810360008301526130da8185612d3f565b90506130e96020830184613066565b9392505050565b6000602082019050818103600083015261310981612e44565b9050919050565b60006020820190506131256000830184613066565b92915050565b600061012082019050613141600083018c613066565b8181036020830152613153818b612e0b565b9050613162604083018a612cbb565b61316f6060830189613066565b81810360808301526131818188612e0b565b905061319060a0830187613066565b61319d60c0830186612dc3565b6131aa60e0830185613066565b6131b8610100830184612cbb565b9a9950505050505050505050565b60006080820190506131db6000830187613066565b81810360208301526131ed8186612e0b565b90506131fc6040830185613066565b6132096060830184613066565b95945050505050565b600061012082019050613228600083018c613066565b613235602083018b613066565b613242604083018a612cbb565b81810360608301526132548189612e0b565b905081810360808301526132688188612e0b565b905081810360a083015261327c8187612e0b565b905061328b60c0830186613066565b81810360e083015261329d8185612e0b565b90508181036101008301526132b28184612e0b565b90509a9950505050505050505050565b6000604051905081810181811067ffffffffffffffff821117156132e557600080fd5b8060405250919050565b600067ffffffffffffffff82111561330657600080fd5b601f19601f8301169050602081019050919050565b6000819050602082019050919050565b6000819050602082019050919050565b600081519050919050565b600081519050919050565b600081519050919050565b6000602082019050919050565b6000602082019050919050565b600082825260208201905092915050565b600082825260208201905092915050565b600082825260208201905092915050565b600082825260208201905092915050565b60006133c5826133df565b9050919050565b60008190506133da8261346e565b919050565b600073ffffffffffffffffffffffffffffffffffffffff82169050919050565b6000819050919050565b6000613414826133cc565b9050919050565b82818337600083830152505050565b60005b8381101561344857808201518184015260208101905061342d565b83811115613457576000848401525b50505050565b6000601f19601f8301169050919050565b6002811061347857fe5b50565b613484816133ba565b811461348f57600080fd5b50565b61349b816133ff565b81146134a657600080fd5b5056fe7472616e736665722074616b657320706c6163652066726f6d2070726576696f7573206f776e657220746f206e6577206f776e65725468697320686f75736520776173206465706c6f796564206f6e20676976656e20646174652021a365627a7a72315820412b968836bcbadd97346e0f8337e2a283257172b1e1055150035264fe1b39fb6c6578706572696d656e74616cf564736f6c63430005100040",
  "source": "// SPDX-License-Identifier: MIT\r\npragma solidity >=0.4.22 <0.8.0;\r\npragma experimental ABIEncoderV2;\r\n\r\ncontract Sch {\r\n \r\n uint public houseCount;\r\n uint public historyCount;\r\n address public organiser;\r\n\r\n\r\n \r\nstruct History{\r\n    uint historyId;\r\n    uint houseId;\r\n    address owner;\r\n    string title;\r\n    string desc;\r\n    string contractorName;\r\n    uint256 historyDate;\r\n    string beforeImageHash;\r\n    string afterImageHash;\r\n\r\n\r\n\r\n}\r\n\r\nenum HouseStatus{\r\n    Available,\r\n    Requested\r\n    \r\n}\r\n\r\nHouseStatus constant defaultChoice=HouseStatus.Available;\r\n\r\n\r\n\r\nstruct House{\r\n     uint houseId;\r\n     string name;\r\n     address currentOwner;\r\n     uint256 pinCode;\r\n     string houseAddress;\r\n     uint256 houseDate;\r\n     HouseStatus houseStatus;\r\n     uint  totalHistoryCount;\r\n     address RequestedUser;\r\n     \r\n    \r\n\r\n }\r\n\r\n struct OutgoingRequest{\r\n     uint houseId;\r\n     string houseName;\r\n     uint status;                //0-> pending  1->accepted   2->rejected\r\n     uint256 dateOfReq;\r\n }\r\n\r\nHouse [] public house;\r\nHistory [][50] public history;\r\n\r\n\r\nmapping(address=>uint) public getHousesByOwnerCount;\r\nmapping(uint256=>uint) public getHousesByPincodeCount;\r\n\r\n//outgoing request\r\nmapping(address=>uint)public  OutgoingRequestMapCount;\r\nmapping(address=>OutgoingRequest[]) public OutgoingRequestMap;\r\n\r\n\r\n\r\nconstructor() public{\r\n    \r\n    historyCount=0;\r\n    houseCount=0;\r\n    organiser = msg.sender;\r\n    \r\n    \r\n   \r\n\r\n}\r\n\r\n\r\n\r\nfunction addHouse(string memory nm,uint256 pc,string memory ha,uint256 hd,string memory _imageHash) public{\r\n   \r\n    house.push(House(houseCount,nm,msg.sender,pc,ha,hd,HouseStatus.Available,0,address(0x0)));\r\n    \r\n    \r\n    addHouseHistory(houseCount,\"Deploy-House\",\"This house was deployed on given date !\",\"---\",hd,_imageHash,_imageHash);\r\n    houseCount++;\r\n    \r\n    if(getHousesByOwnerCount[msg.sender]==0){\r\n        \r\n        getHousesByOwnerCount[msg.sender]=1;\r\n    }\r\n    else{\r\n        uint a=getHousesByOwnerCount[msg.sender];\r\n        a++;\r\n        getHousesByOwnerCount[msg.sender]=a;\r\n        \r\n    }\r\n    \r\n      \r\n    if(getHousesByPincodeCount[pc]==0){\r\n        \r\n        getHousesByPincodeCount[pc]=1;\r\n    }\r\n    else{\r\n        \r\n        uint a=getHousesByPincodeCount[pc];\r\n        a++;\r\n        getHousesByPincodeCount[pc]=a;\r\n        \r\n    }\r\n\r\n    \r\n\r\n    \r\n}  \r\n\r\n\r\nfunction getHousesByOwner(address _owner)public view returns(House[] memory ,uint){\r\n     \r\n     uint cnt=getHousesByOwnerCount[address(_owner)];\r\n\r\n    // require(cnt!=0,\"No houses availale for given owner\");\r\n     \r\n     House[] memory retHouse=new House[](cnt);\r\n     uint retHouseCount=0;\r\n     \r\n     for(uint i=0;i<houseCount;i++)\r\n     {\r\n         House storage temHouse=house[i];\r\n         if(address(temHouse.currentOwner)==address(_owner))\r\n         {\r\n             House memory temHouse1=house[i];\r\n             retHouse[retHouseCount]=temHouse1;\r\n             retHouseCount++;\r\n             \r\n         }\r\n     }\r\n     \r\n     return(retHouse,retHouseCount);\r\n     \r\n}\r\n\r\n\r\nfunction getHousesByPincode(uint256 _pinCode)public view returns(House[] memory,uint){\r\n    \r\n    \r\n    uint cnt=getHousesByPincodeCount[_pinCode];\r\n\r\n    require(cnt!=0,\"No houses availale for given pincode\");\r\n\r\n    House[] memory retHouse=new House[](cnt);\r\n    uint retHouseCount=0;\r\n    \r\n     for(uint i=0;i<houseCount;i++)\r\n     {\r\n         House storage temHouse=house[i];\r\n         uint256 pin=temHouse.pinCode;\r\n         if(pin==_pinCode)\r\n         {\r\n             House memory temHouse1=house[i];\r\n             retHouse[retHouseCount]=temHouse1;\r\n             retHouseCount++;\r\n             \r\n         }\r\n     }\r\n    \r\n    \r\n    return(retHouse,retHouseCount);\r\n}\r\n\r\n\r\nfunction addHouseHistory(uint _houseId,string memory title,string memory desc,string memory cn,uint256 hd,string memory _befImgHash,string memory _aftImgHash) public {\r\n  \r\n    \r\n    history[_houseId].push(History(historyCount,_houseId,msg.sender,title,desc,cn,hd,_befImgHash,_aftImgHash));\r\n    house[_houseId].totalHistoryCount++;\r\n    historyCount++;\r\n} \r\n\r\nfunction addHouseHistoryThroughAccept(uint _houseId,string memory title,string memory desc,string memory cn,uint256 hd,address newOwner) public {\r\n  \r\n    string memory t1=\"not available\";\r\n    history[_houseId].push(History(historyCount,_houseId,newOwner,title,desc,cn,hd,t1,t1));\r\n    house[_houseId].totalHistoryCount++;\r\n    historyCount++;\r\n} \r\n\r\nfunction getHouseHistory(uint _houseId)public view returns(History[] memory,uint){\r\n    \r\n    House storage _temHouse=house[_houseId];\r\n    uint  _totalHistoryCount=_temHouse.totalHistoryCount;\r\n    History[] memory _history=new History[](_totalHistoryCount);\r\n    \r\n    for(uint i=0;i<_totalHistoryCount;i++)\r\n    {\r\n        _history[i]=history[_houseId][i];\r\n    }\r\n   \r\n    return(_history,_totalHistoryCount);\r\n    \r\n}\r\n\r\nfunction requestHouse(uint _houseId,uint256 hd)public {\r\n\r\n    House storage _temHouse=house[_houseId];\r\n    _temHouse.houseStatus=HouseStatus.Requested;\r\n    _temHouse.RequestedUser=address(msg.sender);\r\n\r\n    string memory houseName= _temHouse.name;\r\n\r\n    OutgoingRequestMap[address(msg.sender)].push(OutgoingRequest(_houseId,houseName,0,hd));\r\n    OutgoingRequestMapCount[address(msg.sender)]=OutgoingRequestMapCount[address(msg.sender)]+1;\r\n}\r\n\r\nfunction agreeHouse(uint _houseId ,address _newOwner,uint256 hd)public {\r\n\r\n    House storage _temHouse=house[_houseId];\r\n    _temHouse.houseStatus=HouseStatus.Available;\r\n    _temHouse.RequestedUser=address(0x0);\r\n\r\n    uint cnt=getHousesByOwnerCount[address(msg.sender)];\r\n    cnt=cnt-1;\r\n    getHousesByOwnerCount[address(msg.sender)]=cnt;\r\n\r\n    cnt=getHousesByOwnerCount[_newOwner];\r\n    cnt=cnt+1;\r\n    getHousesByOwnerCount[_newOwner]=cnt;\r\n\r\n    _temHouse.currentOwner=_newOwner;\r\n    \r\n    string memory desc=\"transfer takes place from previous owner to new owner\";\r\n    addHouseHistoryThroughAccept(_houseId,\"Ownership Transfer\",desc,\"---\",hd,_newOwner); \r\n\r\n    //outgoing request handler\r\n\r\n    uint count=OutgoingRequestMapCount[address(_newOwner)];\r\n\r\n    for(uint i=0;i<count;i++){\r\n\r\n        OutgoingRequest storage outgoingstruct=OutgoingRequestMap[address(_newOwner)][i];\r\n        if(outgoingstruct.houseId==_houseId && outgoingstruct.status==0){\r\n\r\n            outgoingstruct.status=1;\r\n            outgoingstruct.dateOfReq=hd;\r\n        }\r\n    }\r\n    \r\n    \r\n}\r\n\r\n\r\nfunction disAgreeHouse(uint _houseId,address _newOwner,uint256 hd)public {\r\n\r\n    House storage _temHouse=house[_houseId];\r\n    _temHouse.houseStatus=HouseStatus.Available;\r\n    _temHouse.RequestedUser=address(0x0);\r\n\r\n    //outgoing request handler\r\n    uint count=OutgoingRequestMapCount[address(_newOwner)];\r\n\r\n    for(uint i=0;i<count;i++){\r\n\r\n        OutgoingRequest storage outgoingstruct=OutgoingRequestMap[address(_newOwner)][i];\r\n        if(outgoingstruct.houseId==_houseId && outgoingstruct.status==0){\r\n\r\n            outgoingstruct.status=2;\r\n             outgoingstruct.dateOfReq=hd;\r\n        }\r\n    }\r\n\r\n}\r\n\r\nfunction changeStatus(uint _houseId)public{\r\n\r\n     House storage _temHouse=house[_houseId];\r\n     _temHouse.houseStatus=HouseStatus.Requested;\r\n\r\n}\r\n\r\n}\r\n\r\n\r\n\r\n",
  "sourcePath": "E:/react/selfconcioushouse/src/contracts/Sch.sol",
  "compiler": {
    "name": "solc",
    "version": "0.5.16+commit.9c3226ce.Emscripten.clang"
  },
  "schemaVersion": "3.2.3",
  "updatedAt": "2020-12-18T17:20:18.844Z",
  "networkType": "ethereum",
  "devdoc": {
    "methods": {}
  },
  "userdoc": {
    "methods": {}
  }
}